:020000040800F2
:10000000085B0020DD010008A1440008213D000834
:10001000F94200084D0D0008914D00080000000055
:100020000000000000000000000000004501000882
:10003000810D000800000000890100086D470008DC
:10004000F7010008F7010008F7010008F7010008B0
:10005000F7010008F7010008F7010008F7010008A0
:10006000F7010008F7010008F7010008F701000890
:10007000F7010008F7010008F7010008F701000880
:10008000F7010008F7010008410C0008F70100081B
:10009000814D0008F7010008F7010008F70100088A
:1000A000F701000825480008F7010008F7010008DB
:1000B000F7010008F7010008F7010008F701000840
:1000C000F7010008F7010008F7010008F701000830
:1000D000F7010008614D0008F7010008714D0008A4
:1000E000F7010008F7010008F7010008F701000810
:1000F000F7010008F7010008F7010008510C00089B
:10010000F7010008F7010008F7010008F7010008EF
:10011000F7010008F7010008F7010008F7010008DF
:10012000F7010008F7010008F7010008F7010008CF
:10013000DFF80CD000F0D0FC004800477D8D0008AF
:10014000085B0020224B19680868B0E8F00F80F3C4
:100150000988BFF36F8F4FF0000080F311884EF0D5
:100160000D0E70470000000006480068006880F32C
:10017000088862B661B6BFF34F8FBFF36F8F00DFA1
:1001800000BF00BF08ED00E0EFF30980BFF36F8F01
:100190000F4B1A6820E9F00F106008B54FF05000BF
:1001A00080F31188BFF34F8FBFF36F8F0AF008FF02
:1001B0004FF0000080F31188BDE808401968086816
:1001C000B0E8F00F80F30988BFF36F8F704700BF6E
:1001D000EC080020EFF305807047000006488047D8
:1001E00006480047FEE7FEE7FEE7FEE7FEE7FEE71C
:1001F000FEE7FEE7FEE7FEE72348000831010008BE
:10020000202A04DB203A21FA02F00021704721FA6B
:1002100002F3D040C2F120029140084319467047D2
:1002200040EA01039B0703D009E008C9121F08C078
:10023000042AFAD203E011F8013B00F8013B521EF8
:10024000F9D27047D2B201E000F8012B491EFBD26F
:1002500070470022F6E710B513460A4604461946D1
:10026000FFF7F0FF204610BD421E12F8013F002BA1
:10027000FBD111F8013B02F8013B002BF9D170478B
:10028000F0B480EA0102D40F4200B2EB410F02D277
:100290000246084611464A0042D0C30DDDB2C1F302
:1002A000C752AD1A202D35DAC1F3160141F4000210
:1002B00004B15242C5F1200602FA06F12A41104467
:1002C000B3EBD05F23D0C4B1012DA0EBC35009DC48
:1002D000F0BC4FF0004202EAC352DBB200F500006E
:1002E00000F018BA400000F1807000EBC350A0F19C
:1002F000807040EAD170490009E0490841EAC071C4
:10030000A0EBC35000F50000400800EBC350F0BC68
:1003100000F0F7B96142012202EB4101001BF6E750
:10032000F0BC704781F00041AAE780F00040A7E7E9
:1003300080EA010210B502F00043400022D04A00DA
:100340001FD0010E01EB1261C0F35600C2F356023A
:1003500040F4000042F40002A0FB022000047F39B8
:10036000140400D0401C50EA124001D44000491E41
:10037000C2B20C0604EBD010401C4008802A02D008
:1003800003E0002010BD20F00100002900DA002069
:10039000184310BD30B480EA010202F0004530F08D
:1003A000004221F0004013D090B1C30DD40DC2F330
:1003B0001601C0F31600E41A41F4000140F40002F3
:1003C0007D34914201D3641C00E04900002C02DA24
:1003D00030BC002070474FF400000023914201D34D
:1003E000891A034340084FEA4101F7D151B19142C4
:1003F00002D14FF0004105E002D24FF0010101E0CF
:100400006FF0010103EBC450284430BC00F079B90F
:100410002DE9FE4F81EA030404F0004421F000417D
:1004200000944FF0000B23F0004350EA01045ED02B
:1004300052EA03045BD0C3F30A54C1F30A552C44B7
:10044000A4F2F3340194A0FB0254C1F3130141F46C
:100450008011C3F3130343F4801301FB024400FB38
:10046000034E840A970A44EA815447EA8357A4FB5F
:10047000076802958D0A05FB07854FEA932C04FB5C
:100480000C542705029D4FEA065847EA1637B5EB8C
:1004900008056EEB070C870E920E47EA811742EAB9
:1004A0008312A7FB0201B6EB0B0164EB00042B0DDA
:1004B00043EA0C335E1844EB1C50DA465146E7FB26
:1004C0000201C5F313044FEA0B3343EA14534FEA16
:1004D0000432019C43EA0603A4F10C040294009C3C
:1004E000CDE900B400F053F903B0BDE8F08F00206F
:1004F0000146F9E7C10F80EAE0700844CA07962375
:10050000002100F007B996230022114600F002B93D
:100510000EB540F2334102910021CDE900110A46A7
:100520000B4600F034F903B000BD00F0004220F0AB
:100530000040C10DC0F3160040F400007F2901DA2D
:1005400000207047962903DCC1F19601C84001E004
:1005500096398840002AF4D040427047C1F30A52CD
:1005600010B5C1F3130140F2FF3341F480119A42F8
:1005700001DA002010BD40F233439A42A2F2334226
:1005800003DC5242FFF73CFE10BD904010BD00F06E
:10059000004230F000400AD0C10D01F56071C0F397
:1005A000160042EA0151C20840071143704700207B
:1005B0000146704730B5041E71F1000404DB4FF0B2
:1005C0000044404264EB0101141E73F1000405DB9A
:1005D0001C464FF00043524263EB04038B4208BFBA
:1005E000824230BD30B5041E71F1000404DB4FF0CF
:1005F0000044404264EB0101141E73F1000405DB6A
:100600001C464FF00043524263EB0403994208BF7B
:10061000904230BD01F0004330B421F0004150EA77
:10062000010206D00A0DA2F56072C1F31301002A7F
:1006300002DC30BC00207047440F44EAC104C10012
:10064000E01830BC00EBC25000F05BB8002801DBC2
:10065000C0F10040002901DBC1F100418142704737
:10066000002801DBC0F10040002901DBC1F100419D
:100670008842704730B50B460146002020220124F5
:1006800009E021FA02F59D4205D303FA02F5491B60
:1006900004FA02F52844151EA2F10102F1DC30BD76
:1006A0002DE9F05F0546002092469B4688460646A7
:1006B000814640241BE02846414647462246FFF734
:1006C0009FFD53465A46C01A914110D31146184611
:1006D000224600F013FA2D1A67EB01084F46224616
:1006E0000120002100F00AFA17EB00094E41201EFC
:1006F000A4F10104DFDC484631462A464346BDE802
:10070000F09F0029A8BF7047401C490008BF20F097
:100710000100704710B4B0FA80FC00FA0CF050EA07
:10072000010404BF10BC704749B1CCF1200421FA88
:1007300004F411FA0CF118BF012121430843A3EB83
:100740000C01CB1D4FEA00614FEA102042BF002090
:1007500010BC704700EBC35010440029A4BF10BC6C
:100760007047401C490008BF20F0010010BC7047D2
:1007700010B5141E73F1000408DA401C41F10001A9
:1007800092185B411A4301D120F0010010BD2DE900
:10079000F04D92469B4611B1B1FA81F202E0B0FAF7
:1007A00080F22032904600F0A9F904460F4640EA54
:1007B0000A0041EA0B0153465A46084313D011463A
:1007C00053EA010019D0C8F140025046FFF718FD66
:1007D00005460E4650465946424600F08FF90843FA
:1007E00005D0012004E020463946BDE8F08D002008
:1007F000054346EAE0762C4337430A986305E40A4A
:10080000A0EB08000022FD0A44EA47540A3002D552
:1008100000200146E9E7010510196941DDE90845B5
:1008200000196941BDE8F04DA2E72DE9FE4F804671
:1008300081EA0300C00F0C46009021F0004123F034
:100840000045B8EB0200A94105D24046214690463A
:100850001C460B46024623F00040104347D0270DAC
:10086000C7F30A00C3F30A510290401A01904028CE
:100870006BDAC3F3130040F4801B0098924620B15A
:100880000023D2EB030A63EB0B0B01985946C0F12E
:100890004002504600F032F906460D465046594691
:1008A000019A00F03AF910EB08006141002487EA50
:1008B000115284EAE7731A4340D0009A62B3019A56
:1008C000012A4FEA075215DC001B61EB02014FF0D1
:1008D000004202EA0752CDE90042001C41F58011B6
:1008E00032462B46FFF753FF03B0BDE8F08F40467A
:1008F0002146F9E7001B61EB0201001C41F5801362
:1009000000185B412018A2F5001747EB030140EAED
:10091000D570B6196D4111E06D084FEA360645EA0B
:10092000C0754FEA0752001B61EB0201001C41F544
:10093000801149084FEA30000019514132462B46D8
:1009400003B0BDE8F04FFFF713BF0098012240004D
:100950000023D0EB020263EBE073009821464FEADC
:10096000E074B8EB000061EB0401E9E783F00043B9
:100970005BE781F0004158E72DE9F04D81EA03047F
:1009800004F0004B21F0004514464FF0000A23F01C
:10099000004150EA050220D054EA01021DD0C5F3FF
:1009A0000A570246C5F31303C1F31300C1F30A56F5
:1009B00040F4801543F48013A7EB0608101BD646BD
:1009C00008F2FD3873EB050002D308F1010801E0DD
:1009D00092185B41B8F1000F03DA00200146BDE830
:1009E000F08D00204FF48011064684460EE0171B60
:1009F00073EB050705D3121B63EB050306434CEAB3
:100A0000010C49084FEA300092185B4150EA010797
:100A1000EDD152EA030012D082EA040083EA050114
:100A2000084305D0101BAB4106D20122002306E08B
:100A300000224FF0004302E06FF0010253101AEB66
:100A400006004CEB085110EB0A0041EB0B01BDE82E
:100A5000F04DFFF78DBE70B521F0004303430CD07D
:100A6000C1F30A550024D5EB040564EB0403D61743
:100A7000AD1AB34102DB0020014670BD201841EBE6
:100A8000025170BD0EB5C10F80EAE0700844CA077C
:100A9000002140F233438DE80E000A460B46FFF773
:100AA00076FE03B000BDC1F30A52C1F3130140F258
:100AB000FF3341F480119A4202DA00200146704768
:100AC00040F233439A42A2F2334202DC5242FFF731
:100AD00097BB00F013B80000064C074D06E0E06835
:100AE00040F0010394E8070098471034AC42F6D375
:100AF000FFF722FBBCEE0008DCEE0008202A04DB36
:100B0000203A00FA02F1002070479140C2F1200320
:100B100020FA03F3194390407047202A06DBCB17D5
:100B2000203A41FA02F043EAE07306E041FA02F3A8
:100B3000D040C2F1200291400843194670472DE988
:100B4000F04D00231A461B1A8A4103DB00200146A0
:100B5000BDE8F08DC1F30A52C1F3130141F48015D1
:100B60004FF0000BD10702D100186D41521E002733
:100B7000044640F2FF11384601EB620A3E468046C9
:100B8000024600204FF48011FFF73AFBC219714171
:100B9000BB1846EB0100B4EB030C75EB000C04D35F
:100BA000E41A65EB000517460E46241908F101000A
:100BB0006D4180463428E3DDF91946EB0600091B38
:100BC000A84103D24FF0FF32134601E00022134642
:100BD0001BEB070046EB0A51BDE8F04DFFF7C8BD1F
:100BE00070B58D1810F8014B14F0030201D110F804
:100BF000012B231106D110F8013B03E010F8016B23
:100C000001F8016B521EF9D1ABB110F8012B04F0C1
:100C10000C048A1A0C2C03D0A2EB84129B1C08E053
:100C200010F8014BA2EB0422F8E712F8014B01F88F
:100C3000014B5B1EF9D5A942D4D3002070BD000042
:100C400010B5024800F065FA10BD000070100020D9
:100C500010B5024800F05DFA10BD0000A0100020A1
:100C600070B5044600252068806800F0010018B3C4
:100C70002068806820F001002168886001F066FD2E
:100C8000054613E001F062FD401B02280ED92068E2
:100C9000806800F0010048B1A06A40F01000A06236
:100CA000E06A40F00100E062012070BD20688068C9
:100CB00000F001000028E5D10020F6E738B5044631
:100CC0000025002000902068806800F0010078BBBB
:100CD0002068806840F00100216888601948006839
:100CE0001949B0FBF1F0009002E00098401E00901E
:100CF00000980028F9D101F029FD054619E001F01E
:100D000025FD401B022814D92068806800F00100EE
:100D100078B9A06A40F01000A062E06A40F00100DB
:100D2000E06200BF002084F8240000BF012038BD2D
:100D300005E02068806800F001000028DFD0002076
:100D4000F5E70000E808002040420F0000BFFEE782
:100D500000B58BB00020069007900120089000207D
:100D6000019002900390049005900120099001A940
:100D7000024800F0AFFD0BB000BD0000D010002015
:100D8000704772B600BFFEE770B50446B3F5804FFA
:100D900013D1D1E9000540EA05108D6840EA05202D
:100DA0008D6928438D8940EA054054F82250064E4B
:100DB0003540284344F8220003E06FF0704044F8C7
:100DC0002200002070BD00000000F0CF70B5024688
:100DD000086852F8200020F001000E6842F8260052
:100DE0008868082801D1402300E0002348681843A0
:100DF0008E683043CE6830430E6930434E693043CD
:100E0000CE6930430E6A30434E6A30438E6A3043B7
:100E1000CE6A30430E6B40EA060488690443486B8F
:100E20000443074D45F4806545F4E025086852F811
:100E30002000A84320430E6842F82600002070BD21
:100E40007FFB080010B50346D1E9000440EA041016
:100E50008C6840EA04208C8940EA0444088A401ED9
:100E600044EA0054087D801E44EA00608C692043F7
:100E7000541C53F8244004F040442043541C43F8CD
:100E80002400002010BD0000F8B504460026002014
:100E9000009000BF94F82400012801D10220F8BD81
:100EA000012084F8240000BF2046FFF7D9FE064643
:100EB0002046FFF703FF0646002E69D1A06A20F402
:100EC000885040F00200A062022001F047FD344942
:100ED0000968B1FBF0F04000009002E00098401E6D
:100EE000009000980028F9D12068806840F0080040
:100EF0002168886001F02AFC054616E001F026FC16
:100F0000401B0A2811D92068806800F0080060B1F1
:100F1000A06A20F0020040F01000A06200BF002094
:100F200084F8240000BF0120B9E72068806800F041
:100F300008000028E2D12068806840F004002168A1
:100F4000886001F003FC054616E001F0FFFB401B42
:100F50000A2811D92068806800F0040060B1A06AF6
:100F600020F0020040F01000A06200BF002084F8D2
:100F7000240000BF012092E72068806800F0040090
:100F80000028E2D1A06A20F0020040F00100A06237
:100F900000BF002084F8240000BF30467FE7000037
:100FA000E80800207047000038B502460023002002
:100FB000009000BF92F82400012801D1022038BD22
:100FC000012082F8240000BF4868072812D2106868
:100FD000406B0C79641E04EB84051F24AC40A043D5
:100FE0000D796D1E05EB85050C68AC402043146837
:100FF000606327E048680D2812D21068006B0C79F6
:10100000E41F04EB84051F24AC40A0430D79ED1FC1
:1010100005EB85050C68AC4020431468206311E0A3
:101020001068C06A0C790D3C04EB84051F24AC40A9
:10103000A0430D790D3D05EB85050C68AC402043C0
:101040001468E06208680A2812D31068C0680C7837
:101050000A3C04EB44050724AC40A0430D780A3D4C
:1010600005EB45058C68AC4020431468E0600FE058
:10107000106800690C7804EB44050724AC40A043D9
:101080000D7805EB45058C68AC4020431468206161
:101090000868102802D00868112827D1174C10685A
:1010A000A0421ED11068806800F40000F0B91068FA
:1010B000806840F400001468A0600868102815D10A
:1010C0000F4800680F4CB0FBF4F000EB80004000CC
:1010D000009002E00098401E009000980028F9D18E
:1010E00004E0906A40F020009062012300BF0020DD
:1010F00082F8240000BF184661E700000024014088
:10110000E808002040420F00704701460868C06CA4
:10111000704770B50446206805682068466806F088
:10112000200020282DD105F00200022829D1A06A34
:1011300000F0100018B9A06A40F40070A0622068A6
:10114000806800F46020B0F5602F13D1207B88B94F
:101150002068406820F0200021684860A06A20F4E0
:101160008070A062A06A00F4805018B9A06A40F0B4
:101170000100A0622046FFF7C7FF6FF01200216850
:10118000086006F08000802839D105F004000428AA
:1011900035D1A06A00F0100018B9A06A40F40050E0
:1011A000A0622068806800F4E040B0F5E04F0DD008
:1011B0002068406800F48060D0B92068806800F43E
:1011C0006020B0F5602F13D1207B88B9206840687B
:1011D00020F0800021684860A06A20F48050A0625E
:1011E000A06A00F4807018B9A06A40F00100A06203
:1011F0002046FFF7D7FE6FF00C002168086006F06C
:10120000400040280DD105F0010050B1A06A40F423
:101210008030A062204600F0B5F86FF00100216830
:10122000086070BD2DE9F041044600270025002626
:10123000A84614B90120BDE8F081A06810B1207D56
:1012400000B100BFA06A30B90020E06284F8240039
:10125000204600F099F82046FFF702FD0746A06AF5
:1012600000F01000002873D1002F7ED1A06A20F476
:10127000885040F00200A0623F4AD4E90001904249
:1012800008D1E069B0F5402F02D14FF4002002E010
:10129000E06900E0E0690143207B41EA4000064349
:1012A000A068B0F5807F02D0A068012802D14FF479
:1012B000807000E000200543207D012811D1207BB3
:1012C00038B9A069401E4FF4006141EA403005433F
:1012D00007E0A06A40F02000A062E06A40F0010050
:1012E000E0622068406820F4694028432168486033
:1012F0002068806821490840304321688860A068E0
:10130000B0F5807F02D0A068012802D14FF4807030
:1013100000E00020B0F5807F03D1208A401E4FEA14
:1013200000582068C06A20F4700040EA0800216874
:10133000C8622068806812490840B04209D1002084
:10134000E062A06A20F0020040F00100A06211E01B
:101350000BE0A06A20F0020040F01000A062E06AFA
:1013600040F00100E062012704E0A06A40F01000B4
:10137000A062012738465EE7003C0140FDF7E1FF2F
:10138000FE0E1FFF7047000010B586B00446002017
:1013900002900390049005903049206888422BD138
:1013A00000BF2F48806940F400702D4988610846CD
:1013B000806900F40070019000BF00BF00BF0846C4
:1013C000806940F0040088610846806900F00400EC
:1013D000019000BF00BF0F2002900320039002A9DC
:1013E000204801F005F800220521122001F064FADE
:1013F000122001F051FA2EE01B49206888422AD1C0
:1014000000BF1748806940F40040154988610846CC
:10141000806900F40040019000BF00BF00BF084693
:10142000806940F0800088610846806900F0800093
:10143000019000BF00BFC02002900320039002A9CA
:101440000A4800F0D5FF002205212F2001F034FAD0
:101450002F2001F021FA06B010BD00000024014049
:101460000010024000080140003C0140001C014007
:10147000F8B504460D46002600200090002701F034
:1014800065F906462068806800F4807050B1A06A53
:1014900040F02000A06200BF002084F8240000BFBC
:1014A0000120F8BD2068406800F4807020BB2068EF
:1014B000C06A00F47000F8B917E0681CA8B125B143
:1014C00001F044F9801BA8420FD92068006800F0A1
:1014D000020050B9A06A40F00400A06200BF0020E2
:1014E00084F8240000BF0320DBE72068006800F0D8
:1014F00002000028E1D053E0022001F02FFA384921
:101500000968B1FBF0F021680969364A114091B9C8
:101510002168C9689211114069B921680969324A84
:10152000114031B92168C9689211114009B91421DB
:1015300017E0292115E0216809692B4A114021B9DA
:101540002168C9689211114041B121680969274A8F
:10155000114029B92168C968114009B9542100E036
:10156000FC2100FB01F718E0681C98B125B101F0DF
:10157000EDF8801BA8420DD90098B8420AD2A06AA3
:1015800040F00400A06200BF002084F8240000BFE7
:10159000032086E70098401C00900098B842E3D3EF
:1015A0006FF0120021680860A06A40F40070A06229
:1015B0002068806800F46020B0F5602F0DD1207B9A
:1015C00058B9A06A20F48070A062A06A00F480502C
:1015D00018B9A06A40F00100A062002061E7000095
:1015E000E8080020244992249224491249922400B8
:1015F00070B50446002500BF94F82400012801D1ED
:10160000022070BD012084F8240000BF2046FFF7AF
:1016100055FB0546002D77D1A06A40F20121884391
:1016200040F48070A0623C492068884208D13B4861
:10163000006800F4702008B9012002E0002000E0FA
:10164000012078B1A06A20F48010A0622068406870
:1016500000F4806000B3A06A20F4005040F4805091
:10166000A06219E0A06A40F48010A0622B49091F13
:101670002068884203D028492068884204D127483E
:10168000006800F4806000E0002028B1A06A20F427
:10169000005040F48050A062A06A00F4805020B155
:1016A000E06A20F00600E06201E00020E06200BF96
:1016B000002084F8240000BFC01E21680860206854
:1016C000806800F46020B0F5602F16D112492068C0
:1016D000884208D11148006800F4702008B9012040
:1016E00002E0002000E0012038B12068806840F46A
:1016F000A000216888600CE006E02068806840F463
:1017000080102168886004E000BF002084F8240075
:1017100000BF284675E7000000280140042401406E
:1017200070B50446002500BF94F82400012801D1BB
:10173000022070BD012084F8240000BF2046FFF77E
:101740008FFA05462DB9A06A20F4885040F00100B8
:10175000A06200BF002084F8240000BF2846E8E70C
:1017600010B5024692F82030012B01D0022B06D191
:1017700010684069084314686061002010BD506A19
:1017800040F4802050620120F8E7F0B504460D4691
:101790001E4694F8207020688368A86800B900E0AD
:1017A00000BF012F01D0022F7DD103F0806030B93E
:1017B00003F0006018B903F0805000287ED0C3F316
:1017C0000161012088403060A86860B9B5F800C0A8
:1017D000E86840EA4C5C206800F5C07000EB01103E
:1017E000C0F800C00FE0D5E901C040EACC00D5F850
:1017F0000CC040EA0C00D4F800C00CF5C07C0CEB27
:10180000011CCCF80000D5F810C0206800F5C070AD
:1018100000EB0110C0F804C0287D01280ED120681B
:1018200000F5C07000EB0110406840F4807C206837
:1018300000F5C07000EB0110C0F804C0D0790006BC
:1018400092F806C040EA0C4092F805C040EA0C202D
:1018500092F804C040EA0C00D4F800C00CF5C07C3B
:101860000CEB011CCCF80C00D078000692F802C0FA
:1018700040EA0C4092F801C040EA0C2092F800C007
:1018800040EA0C00D4F800C00CF5C07C0CEB011C45
:10189000CCF80800206800F5C07000EB011000686B
:1018A00040F0010C01E00FE008E0206800F5C07096
:1018B00000EB0110C0F800C00020F0BD606A40F4E9
:1018C000001060620120F8E7606A40F480206062E6
:1018D0000120F2E7F0B504460A46216894F820504A
:1018E000012D01D0022D74D1D1F8000240F0010089
:1018F000C1F80002107D00F01F06012000FA06F377
:10190000D1F81C029843C1F81C02D069C8B9D1F8BB
:101910000C029843C1F80C02908880B2968940EA84
:10192000064601F51070576940F83760108880B29C
:10193000168940EA064601F51070576900EBC700AA
:101940004660D069012819D1D1F80C021843C1F8BA
:101950000C02908880B2168840EA064601F51070A5
:10196000576940F83760908980B2168940EA064688
:1019700001F51070576900EBC7004660906928B9FF
:10198000D1F804029843C1F8040204E0D1F804023B
:101990001843C1F80402106928B9D1F81402984319
:1019A000C1F8140204E0D1F814021843C1F814027B
:1019B000106A012804D1D1F81C021843C1F81C0296
:1019C000D1F8000220F00100C1F800020020F0BDB3
:1019D000FFE7606A40F4802060620120F7E770470B
:1019E00010B50246002092F82030012B01D0022BC6
:1019F00009D121B91468E46804F0030003E0146815
:101A0000246904F0030010BD70B5044694F820501A
:101A1000012D01D0022D7DD151B92068C06800F0A0
:101A2000030080B9606A40F400106062012070BD5C
:101A30002068006900F0030028B9606A40F40010D3
:101A400060620120F3E7206800F5D87000EB011018
:101A5000006800F004009060906840B9206800F5CC
:101A6000D87000EB01100068400D106007E020689E
:101A700000F5D87000EB01100068C00850602068C5
:101A800000F5D87000EB0110006800F00200D06093
:101A9000206800F5D87000EB0110406800F00F00DE
:101AA000082802D30820106108E0206800F5D870EB
:101AB00000EB0110406800F00F001061206800F595
:101AC000D87000EB0110406800F47F40000A90617C
:101AD000206800F5D87000EB01104068000C5061E0
:101AE000206800F5D87000EB01108068187020683D
:101AF00000F5D87000EB0110806800F47F40000A08
:101B00005870206800F5D87000EB0110806800F470
:101B10007F0000E03CE0000C9870206800F5D87071
:101B200000EB01108068000ED870206800F5D870B6
:101B300000EB0110C0681871206800F5D87000EB48
:101B40000110C06800F47F40000A5871206800F559
:101B5000D87000EB0110C06800F47F00000C987191
:101B6000206800F5D87000EB0110C068000ED87135
:101B700031B92068C06840F020002668F06005E0B8
:101B80002068006940F020002668306100204EE7A0
:101B9000606A40F480206062012048E72DE9F05F30
:101BA00004460025206846692068D0F80490206823
:101BB00087682068D0F80CA02068D0F810B02068A2
:101BC000D0F8188006F00100002855D007F0010079
:101BD000C0B101202168886007F0020018B12046DA
:101BE00000F0A3FA0EE007F0040010B145F4006520
:101BF00008E007F0080010B145F4805502E02046E7
:101C000000F092FA07F48070C8B14FF48070216838
:101C1000886007F4007018B1204600F088FA0EE0E2
:101C200007F4806010B145F4005508E007F4006047
:101C300010B145F4804502E0204600F077FA07F441
:101C40008030C8B14FF480302168886007F40030DC
:101C500018B1204600F06DFA0EE007F4802010B1B4
:101C600045F4004508E007F4002010B145F4803544
:101C700002E0204600F05CFA06F0080038B10AF0F5
:101C8000100020B145F4007510202168C86006F0EE
:101C9000040040B10AF0080028B108202168C8609B
:101CA000204600F0A9F906F0020038B12068C068AB
:101CB00000F0030010B1204600F0A0F906F040004B
:101CC00038B10BF0100020B145F480651020216878
:101CD000086106F0200040B10BF0080028B1082090
:101CE00021680861204600F0EDF906F0100038B1D7
:101CF0002068006900F0030010B1204600F0E3F90D
:101D000006F4003040B109F0100028B1102021681D
:101D10004860204600F0D8F906F4803040B109F060
:101D2000080028B1082021684860204600F002FA27
:101D300006F4004088B309F0040078B306F480701C
:101D400020B108F0010008B145F0010506F400706B
:101D500020B108F0020008B145F0020506F48060E9
:101D600020B108F0040008B145F0040506F4006055
:101D7000A0B108F0700088B108F07000402817D0BA
:101D800006DC10280BD020280CD0302819D10CE00C
:101D9000502810D0602814D110E01DE019E045F063
:101DA00008050FE045F010050CE045F0200509E0BE
:101DB00045F0400506E045F0800503E045F48075F8
:101DC00000E000BF00BF2068806920F0700021683B
:101DD00088610420216848602DB1606A28436062F0
:101DE0002046FFF7FCFDBDE8F09F70B504460CB936
:101DF000012070BD94F8200010B9204600F0B0F822
:101E00002068006840F001002168086000F09EFC36
:101E100005460DE000F09AFC401B0A2808D9606ACC
:101E200040F400306062052084F820000120E0E7E3
:101E30002068406800F001000028EBD020680068AE
:101E400020F002002168086000F080FC05460DE0EB
:101E500000F07CFC401B0A2808D9606A40F400307E
:101E60006062052084F820000120C2E720684068F5
:101E700000F002000028EBD1207E012806D1206866
:101E8000006840F080002168086005E02068006874
:101E900020F0800021680860607E012806D120685B
:101EA000006840F040002168086005E02068006894
:101EB00020F0400021680860A07E012806D120683B
:101EC000006840F020002168086005E02068006894
:101ED00020F0200021680860E07E012806D12068FB
:101EE000006820F010002168086005E020680068A4
:101EF00040F0100021680860207F012806D120688A
:101F0000006840F008002168086005E0206800686B
:101F100020F0080021680860607F012806D1206851
:101F2000006840F004002168086005E0206800684F
:101F300020F0040021680860D4E902010843216907
:101F40000843616908436168491E08432168C86104
:101F500000206062012084F82000002049E7000092
:101F600010B586B0044600200290039004900590BE
:101F70001E492068884236D100BF1D48C06940F024
:101F800000701B49C8610846C06900F000700190EC
:101F900000BF00BF00BF0846806940F004008861B0
:101FA0000846806900F00400019000BF00BFC8141B
:101FB000029000200390049002A90E4800F018FA45
:101FC0004FF480500290022003900320059002A954
:101FD000084800F00DFA00220521142000F06CFCE6
:101FE000142000F059FC06B010BD00000064004051
:101FF00000100240000801407047000010B5044680
:10200000284803F019FC2849087028480078401E29
:10201000274908700846007800EB400101EBC0003A
:10202000244901EB8000816A2148007800EB4002DE
:1020300002EBC0001F4A02EB8000806A401C1C4A71
:10204000127802EB420303EBC2021A4B03EB82024B
:10205000906232290CD81649097801EB410202EB53
:10206000C1011A4602EB8100214603F06BFC0BE034
:102070000F49097801EB410202EBC1010D4A02EB65
:102080008100214603F01EFC21460B4803F01AFC98
:10209000074800780949087002210948FFF760FBEA
:1020A00010BD0000700900206C0900206E0900209E
:1020B0007809002040520020F05200200C08002037
:1020C000D010002070477047704770B5044694F8F0
:1020D0002000012822D1022084F820002068006816
:1020E00020F001002168086000F030FB05460DE09B
:1020F00000F02CFB401B0A2808D9606A40F400302D
:102100006062052084F82000012070BD20684068CE
:1021100000F001000028EBD16062F6E7606A40F44D
:10212000002060620120F0E77047704770477047F9
:102130007047704770470146002291F8210002283D
:1021400008D00420886300BF002081F8200000BF71
:10215000012070470868006820F00E000B681860C6
:102160000868006820F001000B68186091F84030A2
:1021700001209840CB6B5860012081F8210000BFFE
:10218000002081F8200000BF1046E2E770B5044649
:10219000002594F82100022803D00420A063012523
:1021A000C1E02068006820F00E0021680860206807
:1021B000006820F00100216808605C4920688842BE
:1021C00052D95A4978392068884201D1012047E024
:1021D000564964392068884201D1102040E05349B3
:1021E00050392068884201D1801539E04F493C3987
:1021F0002068884201D1801432E04C492839206897
:10220000884202D14FF480302AE0484914392068CE
:10221000884202D14FF4801022E04449206888426D
:1022200001D140041CE042492068884201D10120CC
:1022300016E03F4914312068884201D110200FE098
:102240003B4928312068884201D1801508E038498F
:102250003C312068884201D1801401E04FF4803085
:102260003349091F086051E03049783920688842B5
:1022700001D1012047E02D4964392068884201D10D
:10228000102040E0294950392068884201D180154A
:1022900039E026493C392068884201D1801432E077
:1022A000224928392068884202D14FF480302AE040
:1022B0001E4914392068884202D14FF4801022E070
:1022C0001A492068884201D140041CE0184920685E
:1022D000884201D1012016E0154914312068884256
:1022E00001D110200FE0124928312068884201D125
:1022F000801508E00E493C312068884201D18014E5
:1023000001E04FF48030094980394860012084F8A9
:10231000210000BF002084F8200000BF606B10B1D6
:102320002046616B8847284670BD0000800002404F
:102330000804024070B5044600F008FA0646254637
:10234000681C10B104480078054400BF00F0FEF995
:10235000801BA842FAD370BDE408002000B585B008
:10236000002001900290039004901C48006808B17E
:1023700005B000BD01201949086000BF1848406938
:1023800040F48070164948610846406900F4807046
:10239000009000BF00BF41F20100019002200290B6
:1023A0000320049001A90F4800F022F84FF6807036
:1023B0000190022002900320049001A90A4800F035
:1023C00017F84CF233700190022002900320049021
:1023D00001A9064800F00CF800BFC9E7B8080020C2
:1023E000001002400020014000180140001401408C
:1023F0002DE9F847024600239C467BE14FF0010897
:1024000008FA03F4D1F8008008EA0400A0427DD164
:10241000DFF8F4A2D1F80480A8EB0A09D0453AD03D
:1024200014DCB8F1030F50D009DCB8F1000F31D043
:10243000B8F1010F1CD0B8F1020F49D120E0B8F17A
:10244000110F18D0B8F1120F42D11EE0B9F5881F54
:1024500025D006DCB9F5803F20D0B9F5801F37D1F3
:102460001AE0B9F5001F18D0B9F5041F30D117E0F4
:10247000D1F80CC02DE0D1F80C8008F1040C28E054
:10248000D1F80C8008F1080C23E0D1F80C8008F199
:102490000C0C1EE000BF00BF00BF00BF00BF00BFAC
:1024A000D1F80880B8F1000F02D14FF0040C0BE016
:1024B000D1F80880B8F1010F03D14FF0080C146176
:1024C00002E04FF0080C546103E04FF0000C00E014
:1024D00000BF00BFFF2801D8904601E002F10408C8
:1024E0004646FF2802D84FEA830803E0A3F1080814
:1024F0004FEA88084746D6F800804FF00F0909FADE
:1025000007F928EA09080CFA07F900E07AE048EA36
:102510000908C6F80080D1F8048008F08058B8F1A6
:10252000805F6FD100BFDFF8E481D8F8188048F0F1
:102530000108DFF8D891C9F81880C846D8F8188083
:1025400008F00108CDF8008000BF00BF4FEAB9389D
:102550004FEA930958F829504FEA83784FEA1879DF
:102560004FF00F0808FA09F825EA0805DFF8A081FE
:10257000424502D14FF0000824E0DFF8988142453F
:1025800002D14FF001081DE0DFF88C81424502D1F5
:102590004FF0020816E0DFF88481424502D14FF087
:1025A00003080FE0DFF87881424502D14FF00408BC
:1025B00008E0DFF87081424502D14FF0050801E0E4
:1025C0004FF006084FEA83794FEA197908FA09F8BB
:1025D00048EA0505DFF850814FEA930948F8295089
:1025E000D1F8048008F48018B8F5801F0BD1DFF80B
:1025F0003C81D8F8008048EA0008DFF83091C9F83B
:1026000000800AE075E0DFF82481D8F8008028EA2D
:102610000008DFF81891C9F80080D1F8048008F4A8
:102620000018B8F5001F0ED1DFF8008108F104088A
:10263000D8F8008048EA0008DFF8F09009F10409B2
:10264000C9F800800DE0DFF8E48008F10408D8F84C
:10265000008028EA0008DFF8D49009F10409C9F8DD
:102660000080D1F8048008F40038B8F5003F0ED19E
:10267000DFF8B880A8F10408D8F8008048EA00081C
:10268000DFF8A890A9F10409C9F800800DE0DFF88F
:102690009C80A8F10408D8F8008028EA0008DFF838
:1026A0008C90A9F10409C9F80080D1F8048008F4DD
:1026B0008038B8F5803F0ED1DFF87080A8F10808A7
:1026C000D8F8008048EA0008DFF86090A9F108090E
:1026D000C9F800800DE0DFF85480A8F10808D8F8A8
:1026E000008028EA0008DFF84490A9F10809C9F839
:1026F00000805B1CD1F8008028FA03F8B8F1000FC5
:102700007FF47CAEBDE8F887000011100010024095
:1027100000080140000C014000100140001401407D
:1027200000180140001C014008000140080401405D
:10273000024693680B400BB1012000E00020704777
:102740000AB1016101E00B040361704701480068B0
:1027500070470000DC08002003480068034909783E
:102760000844014908607047DC080020E4080020A4
:1027700010B50848006840F01000064908600320C2
:1027800000F0D8F80F2000F007F800F055F800200E
:1027900010BD000000200240F0B587B004460026BE
:1027A0000027002500BF1F48806940F400601D49D4
:1027B00088610846806900F40060009000BF00BF97
:1027C00001A902A800F0B4FA00F0EAFA0646164899
:1027D000B6FBF0F0471E15481549086040F2E73196
:1027E0001348C1604760002101618160816100F090
:1027F0008BFD054695B90E4800F0BAFD05466DB94A
:10280000192000F049F8102C07D200222146192087
:1028100000F052F80748046000E00125284607B0A0
:10282000F0BD00000010024040420F00002C0140AB
:10283000E0130020E008002008B500BF14488069BC
:1028400040F00100124988610846806900F00100EB
:10285000009000BF00BF00BF0846C06940F0805034
:10286000C8610846C06900F08050009000BF00BFFA
:1028700000220F21901E00F01FF800BF0549486894
:1028800020F0E06040F00070486000BF08BD00002C
:10289000001002400000014001460846002809DB04
:1028A00000F01F0301229A4043099B0003F1E0233B
:1028B000C3F8002100BF70472DE9F05F80460D4648
:1028C0001646002702F09EFA074639462A46334646
:1028D00001F00700C0F1070ABAF1040F02D94FF066
:1028E000040A01E0C0F1070AD14600F1040ABAF176
:1028F000070F02D24FF0000A01E0A0F1030AD4460C
:102900004FF0010A0AFA09FAAAF1010A0AEA020AD0
:102910000AFA0CFA4FF0010B0BFA0CFBABF1010BAE
:102920000BEA030B4AEA0B042146404602F072FA16
:10293000BDE8F09F00BF00F00702064B19684FF694
:10294000FF031940044B0B4343EA0221014B19607A
:1029500000BF70470CED00E00000FA052DE9F047DC
:1029600006464FF00008002500270024A146042E4B
:1029700037D004DC012E3CD0022E6CD160E0082E52
:1029800033D0102E67D136484468006800F080705C
:1029900008B33448C4F38341475C04F4803078B111
:1029A0002F484068C0F340402F4911F8008004F4DC
:1029B000803040B12D48B0FBF8F000FB07F502E095
:1029C0002B4807FB00F52648406800F48000B0F56E
:1029D000800F01D1A94603E068000321B0FBF1F9A3
:1029E0003AE000F0EDF9814636E000F0E9F9814681
:1029F00032E01B48046A04F44070B0F5807F05D1D2
:102A000004F0020010B14FF4004918E004F44070E3
:102A1000B0F5007F07D11248406A00F0020010B103
:102A200049F640490BE004F44070B0F5407F06D110
:102A30000B48006800F4003008B14FF224490BE065
:102A400000F0AEF906494968C1F38131491C4900DB
:102A5000B0FBF1F900E000BF00BF4846BDE8F087D9
:102A60000010024032BE000842BE000800127A0088
:102A700000093D00F8B5044600260025207800F046
:102A8000010000286BD000274348C06900F0805047
:102A900070B900BF4048C06940F080503E49C861ED
:102AA0000846C06900F08050009000BF00BF0127B9
:102AB0003A48006800F48070B0B93848006840F4C3
:102AC000807036490860FFF741FE064606E0FFF7D2
:102AD0003DFE801B642801D90320F8BD2F48006803
:102AE00000F480700028F2D02B48006A00F4407592
:102AF0002DB3A08800F44070A84220D02648006A78
:102B000020F4407501202649086000200860224812
:102B1000056205F0010090B1FFF718FE064608E0D7
:102B2000FFF714FE801B41F28831884201D903204F
:102B3000D3E71948006A00F002000028F0D01648D8
:102B4000006A20F440706168084313490862012F4D
:102B500004D10846C06920F08050C86100BF2078C9
:102B600000F00200022807D10B48406820F44040E2
:102B7000A168084308494860207800F01000102838
:102B800007D10548406820F4800061690843024984
:102B900048600020A1E700000010024000700040E3
:102BA0004004424270B504460D460CB9012070BD88
:102BB0005A48006800F00700A8420ED25748006843
:102BC00020F007002843554908600846006800F0D7
:102BD0000700A84201D00120E9E7207800F00200B8
:102BE00002281DD1207800F00400042805D14C48AB
:102BF000406840F4E0604A494860207800F00800EE
:102C0000082805D14648406840F46050444948606F
:102C10004348406820F0F000A168084340494860FC
:102C2000207800F0010078B36068012806D13C48A4
:102C3000006800F4003090B90120B8E7606802280D
:102C400006D13748006800F0007040B90120AEE7B7
:102C50003348006800F0020008B90120A7E73048B7
:102C6000406820F00300616808432D494860FFF781
:102C70006DFD064609E0FFF769FD801B41F28831D2
:102C8000884202D9032092E707E02548406800F017
:102C90000C006168B0EB810FEDD12048006800F0B6
:102CA0000700A8420ED91D48006820F007002843FD
:102CB0001A4908600846006800F00700A84201D0E1
:102CC000012074E7207800F00400042807D114489C
:102CD000406820F4E060E1680843114948602078CA
:102CE00000F00800082808D10D48406820F4605022
:102CF000216940EAC1000A49486000F061F80849CA
:102D00004968C1F30311074A515CC840064908608D
:102D100006480068FFF740FD002048E70020024019
:102D20000010024044BE0008E8080020E00800202F
:102D30000F2202600D4A526802F0030242600B4A01
:102D4000526802F0F0028260084A526802F4E062BF
:102D5000C260064A526802F46052D2080261044A14
:102D6000126802F007020A6070470000001002407B
:102D7000002002400148006870470000E808002079
:102D800000B5FFF7F7FF04494968C1F30221034A80
:102D9000515CC84000BD00000010024054BE000855
:102DA00000B5FFF7E7FF04494968C1F3C221034AB0
:102DB000515CC84000BD00000010024054BE000835
:102DC00070B500210022002400230020134D696803
:102DD00001F00C05F5B1042D02D0082D19D101E048
:102DE0000F4819E00F4DC1F38346AB5D01F4803508
:102DF00055B10A4D6D68C5F340450B4E725D084DE7
:102E00005D43B5FBF2F402E0084D03FB05F42046F8
:102E100002E000BF024800BF00BF70BD00100240CA
:102E200000127A0020BE000830BE000800093D00F4
:102E3000F8B504460CB90120F8BD207800F0010077
:102E4000002878D0F848406800F00C0004280CD026
:102E5000F548406800F00C00082811D1F24840689D
:102E600000F48030B0F5803F0AD1EF48006800F4EC
:102E7000003000285FD0606800285CD10120DBE7CB
:102E800000BF6068B0F5803F06D1E748006840F4B5
:102E90008030E549086028E0606858B9E248006879
:102EA00020F48030E04908600846006820F4802063
:102EB00008601AE06068B0F5A02F0BD1DA4800680E
:102EC00040F48020D84908600846006840F480300B
:102ED00008600AE0D448006820F48030D2490860D5
:102EE0000846006820F48020086000BF606888B150
:102EF000FFF72CFC054606E0FFF728FC401B642882
:102F000001D9032098E7C848006800F40030002881
:102F1000F2D010E0FFF71AFC054606E0FFF716FCBA
:102F2000401B642801D9032086E7BF48006800F4ED
:102F300000300028F2D1207800F00200022857D19A
:102F4000B948406800F00C0050B1B748406800F044
:102F50000C00082818D1B448406800F4803098B9B3
:102F6000B148006800F0020020B12069012801D0BA
:102F7000012061E7AC48006820F0F800616940EA90
:102F8000C100A949086033E02069E8B10120A749E0
:102F90000860FFF7DBFB054606E0FFF7D7FB401BA9
:102FA000022801D9032047E79F48006800F002008B
:102FB0000028F2D09C48006820F0F800616940EADF
:102FC000C1009949086013E0002098490860FFF7A4
:102FD000BDFB054606E0FFF7B9FB401B022801D9FF
:102FE000032029E79048006800F002000028F2D191
:102FF000207800F0080008282DD1A069B8B1012080
:103000008B490860FFF7A2FB054606E0FFF79EFB31
:10301000401B022801D903200EE78348406A00F0D4
:1030200002000028F2D0012001F090FA13E0002005
:103030007F490860FFF78AFB054606E0FFF786FB3D
:10304000401B022801D90320F6E67748406A00F0C9
:1030500002000028F2D1207800F00400042873D187
:1030600000277148C06900F0805070B900BF6E48F9
:10307000C06940F080506C49C8610846C06900F0E2
:103080008050009000BF00BF01276A48006800F42C
:103090008070B0B96748006840F480706549086086
:1030A000FFF754FB054606E0FFF750FB401B642882
:1030B00001D90320C0E65F48006800F48070002852
:1030C000F2D000BFE068012806D15748006A40F0FE
:1030D00001005549086227E0E06858B95248006A83
:1030E00020F00100504908620846006A20F0040000
:1030F000086219E0E06805280BD14B48006A40F0EF
:103100000400494908620846006A40F0010008626C
:103110000AE04548006A20F0010043490862084679
:10312000006A20F00400086200BFE068A0B1FFF769
:103130000DFB054609E0FFF709FB401B41F2883112
:10314000884202D9032077E622E03748006A00F07F
:1031500002000028EFD012E0FFF7F8FA054608E079
:10316000FFF7F4FA401B41F28831884201D903206D
:1031700062E62D48006A00F002000028F0D1012F1D
:1031800005D12948C06920F080502749C86100BF97
:10319000E069C8B32448406800F00C00082860D0FB
:1031A000E069022848D1002020490866FFF7CEFADE
:1031B000054606E0FFF7CAFA401B022801D90320A2
:1031C0003AE61948006800F000700028F2D1206A41
:1031D000B0F5803F07D11448406820F40030A16862
:1031E000084311494860D4E9080108430E49496879
:1031F00021F4741108430C49486001200B4908660A
:10320000FFF7A4FA054607E03DE0FFF79FFA401BF1
:10321000022801D903200FE60348006800F000707F
:103220000028F2D02FE000000010024000004242CF
:103230008004424200700040002014490866FFF7F5
:1032400085FA054606E0FFF781FA401B022801D9FE
:103250000320F1E50E48006800F000700028F2D16C
:1032600011E0E069012800D1E6E50948466806F466
:103270008031206A814204D106F47011606A814273
:1032800001D00120D8E50020D6E500000000424230
:103290000010024070B504460E4615461CB1A069E8
:1032A000B0F5807F01D1012070BD94F8410028B9AC
:1032B000002084F84000204600F01FF804F10801C7
:1032C0002068FDF783FD3146A2682068FDF7BAFD4E
:1032D0002946236BD4E90102FDF756FDA168206859
:1032E00050F8210040F00100A268216841F8220056
:1032F000012084F841000020D6E710B50446FFF70E
:103300002DF810BD7047704710B504460CB9012068
:1033100010BD94F83D0028B9002084F83C002046F8
:1033200000F025F8022084F83D00211D206801F0FE
:1033300081FA012084F8460000BF84F83E00012194
:103340003F200155402001554120015500BF00BFDD
:10335000012084F8420043200155442001554520B6
:10336000015500BF012084F83D000020D0E77047E0
:10337000014691F83D00012801D00120704702204C
:1033800081F83D000868C06840F001000B68D86013
:10339000164B0868984213D0154B086898420FD016
:1033A0000868B0F1804F0BD0124B0868984207D0E4
:1033B000114B0868984203D0104B086898420CD112
:1033C0000868806800F00702062A0CD008680068C8
:1033D00040F001000B68186005E00868006840F0E4
:1033E00001000B6818600020C8E70000002C0140B5
:1033F000003401400004004000080040000C004080
:10340000704710B5044620680069C0F34000D8B189
:103410002068C068C0F34000B0B16FF002002168BE
:103420000861012020772068806900F0030018B14E
:103430002046FFF7E5FF05E0204600F0ADF8204606
:1034400000F0ABF80020207720680069C0F380000E
:10345000D8B12068C068C0F38000B0B16FF004003C
:1034600021680861022020772068806900F440709C
:1034700018B12046FFF7C4FF05E0204600F08CF8A5
:10348000204600F08AF80020207720680069C0F309
:10349000C000D8B12068C068C0F3C000B0B16FF000
:1034A000080021680861042020772068C06900F0C6
:1034B000030018B12046FFF7A3FF05E0204600F007
:1034C0006BF8204600F069F800202077206800693A
:1034D000C0F30010D8B12068C068C0F30010B0B1CC
:1034E0006FF0100021680861082020772068C0690B
:1034F00000F4407018B12046FFF782FF05E0204637
:1035000000F04AF8204600F048F8002020772068B4
:10351000006900F0010058B12068C06800F00100A7
:1035200030B16FF0010021680861204600F036F8E4
:1035300020680069C0F3C01058B12068C068C0F3AB
:10354000C01030B16FF08000216808612046FFF79D
:10355000D9FE20680069C0F3801058B12068C068A7
:10356000C0F3801030B16FF0400021680861204640
:1035700000F020F820680069C0F3401058B12068BE
:10358000C068C0F3401030B16FF0200021680861BE
:103590002046FFF7B8FE10BD7047704710B50446CF
:1035A00003492068884201D1FFF7D6F810BD00001A
:1035B000002C0140704770477047014600220023ED
:1035C00091F8412091F8423042EA03007047000030
:1035D0002DE9F84F0446206805682068C668206811
:1035E00047694FF00009CA4605F00F09B9F1000F0D
:1035F0000AD105F0200038B106F0200020B12046A5
:1036000001F018FABDE8F88FB9F1000F7BD007F090
:10361000010018B906F49070002874D005F001007C
:1036200030B106F4807018B1606C40F00100606445
:1036300005F0040030B107F0010018B1606C40F0F3
:103640000200606405F0020030B107F0010018B11B
:10365000606C40F00400606405F0080048B106F0BA
:10366000200010B907F0010018B1606C40F00800AC
:103670006064606C002845D005F0200028B106F099
:10368000200010B1204601F0D5F920684069C0F350
:10369000801A606C00F0080010B9BAF1000F2CD04D
:1036A000204601F081F92068406900F0400000B335
:1036B00000BF00BF2168143151E8001F21F0400015
:1036C0002168143141E80002002AF3D100BFE06B09
:1036D00050B17748E16B4863E06BFEF757FD88B166
:1036E000E06B416B88470DE02046FFF765FF09E07E
:1036F00009E02046FFF760FF04E02046FFF75CFF8B
:10370000002060647EE7206B012877D105F010006F
:10371000002873D006F010000028FAD000BF002067
:10372000009020680068009020684068009000BF0A
:1037300000BF2068406900F0400000285FD0E06BC7
:10374000006840681FFA80F8B8F1000F55D0A08DCE
:10375000404552DDA4F82E80E06B8069202843D0DC
:1037600000BF00BF21680C3151E8001F21F48070B8
:1037700021680C3141E80002002AF3D100BF00BFEC
:1037800000BF2168143151E8001F21F001002168B9
:10379000143141E80002002AF3D100BF00BF00BF8E
:1037A0002168143151E8001F21F0400021681431D4
:1037B00041E80002002AF3D100BF202084F8420033
:1037C0000020206300BF00BF21680C3151E8001FBA
:1037D00021F0100021680C3141E80002002AF3D1E9
:1037E00000BFE06BFEF7A7FC02206063A08DE28DB6
:1037F000801A81B22046FFF7DEFE03E742E0A08D8B
:10380000E18D401A1FFA80F8E08DD0B3B8F1000FB7
:1038100037D000BF00BF21680C3151E8001F21F4F0
:10382000907021680C3141E80002002AF3D100BFFA
:1038300000BF00BF2168143151E8001F21F00100D2
:103840002168143141E80002002AF3D100BF202092
:1038500084F842000020206300BF00BF21680C31C3
:1038600051E8001F21F0100021680C3141E80002EE
:10387000002AF3D100BF0220606341462046FFF7D3
:103880009AFEBFE605F0800030B106F0800018B166
:10389000204601F0EBF9B5E605F0400030B106F046
:1038A000400018B1204601F0B5F8ABE600BFA9E62C
:1038B0009549000810B504460CB9012010BDA06957
:1038C00000B100E000BF94F8410028B9002084F85E
:1038D0004000204600F02AF8242084F841002068A7
:1038E000C06820F400502168C860204601F020F92B
:1038F0002068006920F490402168086120684069D0
:1039000020F02A00216848612068C06840F4005017
:103910002168C86000206064202084F8410084F899
:1039200042000020606300BFC8E7000010B586B009
:103930000446002002900390049005903C492068C2
:10394000884237D100BF3B48806940F48040394904
:1039500088610846806900F48040019000BF00BF84
:1039600000BF0846806940F004008861084680690D
:1039700000F00400019000BF00BF48150290022033
:1039800003900320059002A92B48FEF731FD4FF468
:103990008060029000200390049002A92648FEF760
:1039A00027FD002206212520FEF786FF2520FEF7B1
:1039B00073FF3AE021492068884236D100BF1D4894
:1039C000C06940F480201B49C8610846C06900F402
:1039D0008020019000BF00BF00BF0846806940F012
:1039E000080088610846806900F00800019000BF67
:1039F00000BF08150290022003900320059002A941
:103A00000F48FEF7F5FC4FF4006002900020039091
:103A1000049002A90A48FEF7EBFC002206212720A9
:103A2000FEF74AFF2720FEF737FF06B010BD000063
:103A300000380140001002400008014000480040EA
:103A4000000C014070B504460D46164694F842003D
:103A500020280BD105B10EB9012070BD00202063D4
:103A600032462946204601F0E1F8F6E70220F4E765
:103A700010B504466D48844244D16D480078FF2853
:103A80000FDB00206A4908704FF480716948FCF729
:103A9000E0FB4FF6FF730A2267A1644800F0E6F8E6
:103AA0002BE068480178624802780078401C604B3F
:103AB00018706048815418460078401E5D49085CC3
:103AC0000A281AD118460078801E085C0D2814D1E7
:103AD0004FF6FF7356480278544800F0C7F800BF0D
:103AE0005248FFF76AFD2128FAD00020504908709B
:103AF0004FF480714F48FCF7ACFB012251494B4811
:103B0000FFF7A0FF504884427ED15048007838B972
:103B10004F480078AA2837D101204C49087033E07B
:103B20004A48007801280AD149480078AE282BD1AC
:103B300002204649087000204649087024E04348A6
:103B40000078022812D1424801784348414A12784D
:103B5000815440480078401C3E490870084600786F
:103B60000D2811DB0320394908700DE03748007833
:103B7000032809D136480078AC2805D10020334904
:103B800008700120354908703348C0780006324972
:103B9000897840EA01403049497840EA01202E49BD
:103BA000097808432E4908602B48007BBF2810D1B4
:103BB0002948C07900062849897940EA0140264908
:103BC000497940EA012024490979084325490860D8
:103BD00014E02148007BCF2810D11F48C07900068F
:103BE0001D49897940EA01401B49497940EA012091
:103BF00019490979084340421A4908601648C07AB1
:103C000000061549897A00E00FE040EA01401249B8
:103C1000497A40EA01201049097A084312490860AC
:103C200001220B490848FFF70DFF10BD501300207B
:103C3000C108002040110020CAFDBEDDD2E7B3F666
:103C400000000000C008002098130020D8080020C1
:103C5000C3080020D908002040130020C408002019
:103C6000C8080020CC080020D00800202DE9F84F1B
:103C700004460E46174699464FF0000A94F8410054
:103C800020284AD106B117B90120BDE8F88F0020DD
:103C90006064212084F84100FEF758FD8246A78425
:103CA000E784A068B0F5805F04D1206910B90025D1
:103CB000B04602E035464FF000081BE053460022B4
:103CC00080212046CDF8009001F000F808B10320D3
:103CD000DBE745B9B8F80000C0F308002168486088
:103CE00008F1020803E02878216848606D1CE08C28
:103CF000401EE084E08C0028E0D1534600224021A1
:103D00002046CDF8009000F0E1FF08B10320BCE7A9
:103D1000202084F841000020B7E70220B5E7704773
:103D200000BFFEE700BF10214448FEF701FD4449F3
:103D3000088008214148FEF7FBFC4149C880042166
:103D40004048FEF7F5FC3E49888101213E48FEF7D8
:103D5000EFFC3B49488200206AE000EB4001384A12
:103D600002EB4101498821B1012910D002295DD11E
:103D700023E000EB4001324A32F8111031B9012141
:103D800000EB40022E4B03EB420251804EE000EB71
:103D900040012B4A32F8111039B9022100EB4002E0
:103DA000274B03EB4202518006E0002100EB40026A
:103DB000234B03EB4202518038E000EB4001204AE4
:103DC00032F81110012923D1032813D11F49098882
:103DD000C8290FDD022100EB4002194B03EB420220
:103DE0009180002100EB400203EB42025180174A10
:103DF00011801AE0012100EB4002114B03EB42025B
:103E00009180002100EB400203EB420251800CE064
:103E100000EB40010A4A32F8111031B9032804D1ED
:103E20000A4909880A31094A118000BF00BF401CB5
:103E3000042892DB0A2004F0DFFF74E70018014039
:103E40008C090020000C0140000801408808002077
:103E50000EB500200090019002902448244908608B
:103E60008115234881600021017301210175816161
:103E70004FF46021C16100201D49486004211C48A5
:103E80000161FDF7CFF908B1FCF77BFF002000903E
:103E9000012001900520029069461548FDF784F83D
:103EA00008B1FCF76EFF01200090022001906946E6
:103EB0000F48FDF779F808B1FCF763FF0220009086
:103EC0000320019069460A48FDF76EF808B1FCF737
:103ED00058FF032000900420019069460448FDF734
:103EE00063F808B1FCF74DFF0EBD0000002401404F
:103EF000701000200EB5002000900190029019482B
:103F00001949086081151848816000210173012159
:103F1000017581614FF46021C16100201249486040
:103F2000022111480161FDF77DF908B1FCF729FF75
:103F300004200090012001900520029069460A4863
:103F4000FDF732F808B1FCF71CFF052000900220B5
:103F5000019069460448FDF727F808B1FCF711FF06
:103F60000EBD0000003C0140A010002010B50E481E
:103F70000E4908600220486000210C488160C16041
:103F80004FF4002101614FF4E0014161002101760D
:103F900041768176C17601774177FDF726FF08B13A
:103FA000FCF7EFFE10BD000000640040D0100020C0
:103FB00000B5B9B01C22304932A8FCF731F9002114
:103FC00032A804F02AFF2D4908601C222A491C311E
:103FD0002BA8FCF725F900212BA804F01EFF284987
:103FE00008601C222449383124A8FCF719F9002163
:103FF00024A804F012FF234908601C221E495431F2
:104000001DA8FCF70DF900211DA804F006FF1E49AC
:1040100008601C221849703116A8FCF701F900212C
:1040200016A804F0FAFE194908601C2212498C31C6
:104030000FA8FCF7F5F800210FA804F0EEFE1449D4
:1040400008601C220C49A83108A8FCF7E9F80021F7
:1040500008A804F0E2FE0F4908601C220649C4319A
:1040600001A8FCF7DDF8002101A804F0D6FE0A49FA
:10407000086039B000BD000040BD0008980800206D
:104080009C080020A0080020A4080020A808002008
:10409000AC080020B0080020B408002000B58FB0A4
:1040A0001C2108A8FCF7D5F81C2101A8FCF7D1F8C1
:1040B0004FF020402349086023484860062088606C
:1040C00000212048C160016110214161002181610E
:1040D000C161016241624FF4805181620021C1627D
:1040E0004FF4804101630021416381630220089005
:1040F0000F20099010200A9000200B9010200C90A7
:1041000011200D9000200E90042001900F200290AD
:1041100009200390002004901020059011200690A3
:104120000020079001AA08A90648FFF7B3F808B1D4
:10413000FCF727FE0548C06940F480600349C86168
:104140000FB000BDF8100020040100A000000140E5
:1041500000B585B00020019002900390049000BF4C
:104160004548806940F040004349886108468069BD
:1041700000F04000009000BF00BF00BF084680690B
:1041800040F0800088610846806900F0800000905F
:1041900000BF00BF00BF0846806940F01000886182
:1041A0000846806900F01000009000BF00BF00BF0B
:1041B0000846806940F0040088610846806900F084
:1041C0000400009000BF00BF00BF0846806940F4B3
:1041D000807088610846806900F48070009000BF9C
:1041E00000BF00BF0846806940F0080088610846AB
:1041F000806900F00800009000BF00BF00BF0846C3
:10420000806940F0200088610846806900F0200045
:10421000009000BF00BF002230211848FEF790FA3E
:1042200018200190002002900120039001A9144859
:10423000FEF7DEF84FF480600190002002900390BA
:1042400001A91048FEF7D4F80F2001900020029039
:10425000039001A90948FEF7CBF830200190012016
:104260000290002003900220049001A90348FEF769
:10427000BFF805B000BD0000001002400010014072
:1042800000180140001C014010B50B480B490860A4
:104290004FF4E1304860002108488160C16001614D
:1042A0000C21416100218161C161FFF703FB08B16D
:1042B000FCF767FD10BD00000038014050130020DE
:1042C00010B50B480B4908604FF4165048600021A8
:1042D00008488160C16001610C2141610021816158
:1042E000C161FFF7E7FA08B1FCF74BFD10BD000014
:1042F000004800409813002000BFFEE70EB50024E0
:104300001DE0002051494FF07F52CDE9002102907D
:1043100004EBC40101EB41014D4A02EB810044F67C
:1043200020631A46032100F0C3F84A4804EBC40195
:1043300001EB4101464A02EB81014865641C042CF3
:10434000DFDB00BF00241BE0434951F82400FCF7E9
:10435000D1F8054604EB440101EBC4013F4A32F9B0
:104360002100FCF7C7F8064604EBC40101EB41014C
:10437000374A02EB81002A46314604F07DFD641C79
:10438000042CE1DB3249D1F88001FCF7CEF804B20D
:104390002F49D1F81401FCF7C8F805B22C49D1F81F
:1043A000A800FCF7C2F806B22949C86BFCF7BDF8B3
:1043B00007B22B46324639462948009406F0D4FA13
:1043C0002848007858B127480078012807D02548A8
:1043D0000078022803D023480078032831D12148EF
:1043E000007800EB400101EBC0001C4901EB8000AC
:1043F00080791C49097801EB410202EBC101174A9F
:1044000002EB8101B1F90410CDE9001015480078E4
:1044100000EB400101EBC000114631F9203011489A
:10442000007800EB400101EBC000114601EB800079
:1044300042690C4801780CA000F0ACFC042009494A
:104440000870012004F0D8FC7CE70000CDCCCC3D06
:104450002854002000004842A409002040520020B7
:10446000D01000200C080020B5E7BBFA20256420FE
:104470003A20616E676C653D2564203B2073706552
:1044800065643A2025643B2063757272656E743AE8
:104490002025643B2074656D703A25640D0A000088
:1044A00000BFFEE700BF0A2004F0A6FCFBE7000007
:1044B0002DE9FE4F04460D4616461F46DDE90D9ACE
:1044C000DDF83080074860660748A0668DE8000781
:1044D0003B46324629462046D4F864C0E047BDE852
:1044E000FE8F00000B9000081F90000800BF0948D5
:1044F000016809A000F04EFC0948016809A000F01D
:1045000049FC0D4801680DA000F044FC642004F053
:1045100073FCECE7C808002069643A25640D0A00C2
:10452000CC080020785F7472616E736C6174696F7F
:104530006E3A25640D0A0000D00800206469737487
:10454000616E63653A25640D0A00000008B50849EC
:104550000968C9084FF47A72B1FBF2F14143009146
:1045600000BF00BF00994A1E00920029F9D108BD82
:10457000E80800200EB500BF254880880128FBD13F
:104580002448006806F0F0FB00BF05F0BDFF22489C
:10459000007820B121A1244800F00CFC0BE0234856
:1045A000007820B122A1204800F004FC03E023A100
:1045B0001D4800F0FFFB23A11B48FBF755FE2348D5
:1045C000007838B12248007820B122A11648FBF7C4
:1045D0004BFE0BE01D48007820B120A11248FBF7EC
:1045E00043FE03E01FA11048FBF73EFE4FF4784066
:1045F0000D4910222023CDE90021029096228C2122
:104600000A2004F031FB0A2004F0F6FBBDE70000AD
:104610008C090020980800208C0800207475726EA8
:104620006C65667400000000B40900208D0800204D
:104630007475726E72696768740000006E6F5F74E3
:1046400075726E002D2D2D2D2D0000008A08002082
:104650008B080020676F21212100000066696E64CD
:10466000000000006E6F00000EB501222F49304897
:10467000FFF7E8F901222F492F48FFF7E3F903F08C
:1046800069FEFCF765FB2D48FDF71FFD02212B4855
:10469000FDF766F82AA000F07DFB00202A494FF0C4
:1046A0007F524FF4FA73CDE9002102901A4603219C
:1046B0002648FFF7FDFE2648244948650020224988
:1046C0004FF07F524FF4FA73CDE9002102901A4661
:1046D00003212048FFF7ECFE1D481E4948650020D5
:1046E00001F03CF900BF1C484089012807D11B4854
:1046F0000088643019490880002117484181174813
:10470000028817A1184800F055FB4FF4784016496D
:1047100010222023CDE9002102903C228C210A2086
:1047200004F0A2FA0A2004F067FBDCE7C0080020CE
:1047300050130020C308002098130020D010002040
:104740004F4B0D0A00000000CDCCCC3DD8550020C9
:1047500000007A44445600208C0900208E08002076
:1047600076656C3D25750000B409002010B500BFCA
:10477000502080F31188BFF34F8FBFF36F8F00BFBE
:1047800007F08AF818B14FF080500449086000BF64
:10479000002080F3118800BF10BD000004ED00E090
:1047A00000B595B028210BA8FBF753FD142106A8EE
:1047B000FBF74FFD18216846FBF74BFD01200B90DE
:1047C00000040C9000200D9001200F900220129008
:1047D000C10313914FF4E01114910BA8FEF728FBCD
:1047E00008B1FCF7CEFA0F200690022007900020B7
:1047F00008904FF48060099000200A90022106A8DA
:10480000FEF7D0F908B1FCF7BCFA02200090800353
:1048100002906846FEF72EF908B1FCF7B2FA15B01F
:1048200000BD704710B50248FEF7EBFD10BD00005B
:10483000E013002010B50268204B98420ED0204BA8
:1048400098420BD0B0F1804F08D01E4B984205D053
:104850001D4B984202D01D4B984203D122F07002AA
:104860004B681A43154B98420ED0154B98420BD00B
:10487000B0F1804F08D0134B984205D0124B9842AC
:1048800002D0124B984203D122F44072CB681A43F3
:1048900022F080034C6943EA040202608B68C36221
:1048A0000B688362054B984202D0054B984201D1B8
:1048B0000B6903630123436110BD0000002C01401C
:1048C000003401400004004000080040000C00409B
:1048D00000BF0C480068C82803DDC82000F0C8FFEE
:1048E0000BE008480068C82804DA4FF6387000F07A
:1048F000BFFF02E0002000F0BBFF0A2004F07CFABA
:10490000E7E70000CC0800200EB500BF144800689F
:104910000A301349086008460068124988421BD3D0
:104920001148006806F020FA1048006806F01CFAEA
:10493000002001F013F80EA1154800F03BFA4FF4E7
:104940007840134910222023CDE900210290F02263
:10495000A0210A2004F088F90A2004F04DFAD5E7D6
:1049600080080020A0860100A40800209C080020E8
:104970002D2D2D2D2D2D2D2D2D2D2D74696D656F2A
:1049800075742D2D2D2D2D2D2D2D2D2D2D0000004F
:10499000B409002070B505466C6A0020E085E0840B
:1049A0002046FEF709FE70BD00BF00BF02680C3252
:1049B00052E8002F22F4907102680C3242E8001392
:1049C000002BF3D100BF00BF00BF0268143252E8D1
:1049D000002F22F001010268143242E80013002B7C
:1049E000F3D100BF016B01290ED100BF00BF0268E7
:1049F0000C3252E8002F22F0100102680C3242E81B
:104A00000013002BF3D100BF202180F842100021B9
:104A10000163704710B504462068C06820F040006C
:104A20002168C860202084F841002046FFF777F90C
:104A3000002010BDF8B5044694F84200222875D134
:104A4000A068B0F5805F0CD1206950B90025A66A36
:104A500020684068C0F308003080A06A801CA06213
:104A600015E0A56A0026A068B0F5805F03D0A068B5
:104A700028B9206918B920684068287004E02068C7
:104A8000406800F07F002870A06A401CA062E08DA2
:104A9000401E80B2E085002846D12068C06820F022
:104AA00020002168C8602068C06820F480702168F8
:104AB000C8602068406920F001002168486120201A
:104AC00084F8420000206063206B012826D100207A
:104AD000206300BF00BF21680C3151E8001F21F0A6
:104AE000100021680C3141E80002002AF3D100BF18
:104AF0002068006800F0100010280AD100BF0020D4
:104B0000009020680068009020684068009000BF16
:104B100000BFA18D2046FEF74EFD02E02046FEF7C5
:104B2000A7FF0020F8BD01E00020FBE70220F9E725
:104B300070B504462168096921F44051E2681143C7
:104B4000226811612269A1681143626941EA020584
:104B50002168C96841F20C62914329432268D160FF
:104B60002168496921F44071A269114322685161A9
:104B70002D4A2168914202D1FEF712F901E0FEF7B9
:104B8000FFF800EBC00101EB001162689200B1FB7D
:104B9000F2F100EBC00202EB001263689B00B2FB73
:104BA000F3F26423B2FBF3F202EBC20303EB021253
:104BB000A1EB8201322202EB01116422B1FBF2F17E
:104BC00001F0F00100EBC00202EB001263689B00F1
:104BD000B2FBF3F26423B2FBF3F201EB021200EB3F
:104BE000C00101EB001163689B00B1FBF3F100EB26
:104BF000C00303EB00136668B600B3FBF6F364264C
:104C0000B3FBF6F303EBC30606EB0313A1EB83013F
:104C1000322303EB01116423B1FBF3F101F00F0127
:104C200011442268916070BD0038014010B5034600
:104C300099629A85DA8500205864222083F8420020
:104C4000186928B11868C06840F480701C68E0607A
:104C50001868406940F001001C6860611868C0680D
:104C600040F020001C68E060002010BD014691F873
:104C70004100212828D18868B0F5805F0BD10869F0
:104C800048B90A6A1088C0F308000B685860086ABF
:104C9000801C086205E00B6A581C086218780B68D3
:104CA0005860C88C401E80B2C88458B90868C06873
:104CB00020F080000B68D8600868C06840F04000B1
:104CC0000B68D860002070470220FCE72DE9F04116
:104CD00004460D4617469846069E34E0701C88B37D
:104CE0002EB1FDF733FDA0EB0800B0422BD900BF79
:104CF00000BF21680C3151E8001F21F4D0702168F9
:104D00000C3141E80002002AF3D100BF00BF00BF10
:104D10002168143151E8001F21F00100216814318D
:104D200041E80002002AF3D100BF202084F84100AE
:104D300084F8420000BF002084F8400000BF032038
:104D4000BDE8F081FFE7206800682840A84201D153
:104D5000012000E00020B842C0D00020F0E70000B1
:104D600010B50248FEF734FC10BD000050130020BF
:104D700010B50248FEF72CFC10BD0000981300206F
:104D800010B50248FCF70AFF10BD0000D01000204B
:104D900000BFFEE70FB4054B10B503A9044A029803
:104DA00000F09AF910BC5DF814FB00008958000867
:104DB000840900200FB4084B10B504A902AA039877
:104DC00000F08AF9044602A9002000F01CFD2046EC
:104DD00010BC5DF814FB000007580008490050EAB9
:104DE000C12018BF04204A0D18BF40F0010040F256
:104DF000FF72B2EB515F08BF40F00200012808BF0C
:104E00000520704702480068C0F302207047000088
:104E10000CED00E010B5002804DB0A07130E054A6C
:104E2000135406E00A07140E034A00F00F031B1F79
:104E3000D45410BD00E400E018ED00E02DE9F0418D
:104E40004F1E00EBC7010446D1E9000115461E467E
:104E500037F006020DD02A463346FBF7D9FA7F1EFB
:104E600004EBC703D3E90023FBF7DFFC37F00602AE
:104E7000F1D1022F25D0042F13D0062F18BFBDE883
:104E8000F0812A463346FBF7C3FAD4E90A23FBF73D
:104E9000CCFC2A463346FBF7BBFAD4E90823FBF7E0
:104EA000C4FC2A463346FBF7B3FAD4E90623FBF7E2
:104EB000BCFC2A463346FBF7ABFAD4E90423FBF7E4
:104EC000B4FC2A463346FBF7A3FAD4E90223FBF7E6
:104ED000ACFC2A463346FBF79BFAD4E90023BDE835
:104EE000F041FBF7A2BC0000002213461046014926
:104EF000FBF742BD0000F03FFBF797BC00221346D2
:104F000010461146FBF738BD40F2013200204FF049
:104F1000E041FBF7A0BD0000024A00201107FBF7AB
:104F20009ABD000001FDFFFF02E008C8121F08C182
:104F3000002AFAD170477047002001E001C1121F1A
:104F4000002AFBD17047000001490860704700004B
:104F5000880900202DE9FF5F82B00021DDE90430DF
:104F6000020DDDF840B0034318D044F61050A2F211
:104F7000FF3242431514119801281FD0A5EB0B00F6
:104F8000401C5FEA000A4FF000064E4FDFF83891F0
:104F9000B046504615D5CAF1000413E0119801241B
:104FA0004AA3012801D16FEA0B010298119AC0E9C6
:104FB0000031C0E9024206B0BDE8F09FCBF100002D
:104FC000DFE704460021404A491842EB0450CDE98E
:104FD000001012E0E00707D032463B464046494603
:104FE000FBF716FA8046894632463B46104619467C
:104FF000FBF70EFA06460F466410002CEAD1DDE9F5
:105000000401DDE90023BAF1000F06DAFBF700FA2C
:1050100042464B46FBF7FCF905E0FBF7ADFC424688
:105020004B46FBF7A9FC04460E460022284BFBF733
:10503000D9FA03D84FF0FF30014607E00022254B94
:1050400020463146FBF7F1FBFBF72DFD102409E06C
:10505000002C0ADB0A220023FBF722FB039B3032E1
:105060001A55641E50EA0102F2D1641C039AC4F17D
:1050700011031444119A012A03D0012208430DD1CF
:105080000AE0084304D000204FF0110B119072E7A2
:10509000A3EB0B056D1E0DE05B4504DD4FF0000238
:1050A00005F1010504E003DA4FF00002A5F1010566
:1050B000002AECD002981199C0E90231C0E90045FC
:1050C00079E70000000014400000F03F30000000CD
:1050D0000000F0430000E03F2DE9FF4F95B09B46F4
:1050E0008946064600250FE2252877D10024274669
:1050F000F84A0121059400E0044316F8013F203BE3
:1051000001FA03F01042F7D130782A2811D06FF05D
:105110002F033078A0F13002092A16D8059A44F0FE
:10512000020402EB820203EB42021044761C05905B
:10513000EFE759F8042B0592002A03DA504244F4B1
:105140000054059044F00204761C30782E2816D1C5
:1051500016F8010F44F004042A280DD06FF02F0236
:105160003078A0F13003092B09D807EB870302EB55
:105170004303C718761CF3E759F8047B761C307894
:105180006C280FD006DC4C2817D068280DD06A2870
:1051900014D104E0742810D07A280FD10DE044F423
:1051A00000140AE044F4801401E044F440147278DE
:1051B000824202D104F58014761C761C3078662871
:1051C0000BD013DC582877D009DC002875D045288F
:1051D000F6D04628F4D047281AD19DE118E063287C
:1051E00035D0642879D0652812D195E1702873D024
:1051F00008DC6728F1D069286FD06E280DD06F28A1
:1052000006D1B5E073282CD0752875D0782874D0D5
:105210005A46179990476D1C75E1C4F30250022855
:1052200009D003280DD0D9F8001004280DD00D6046
:1052300009F1040967E1D9F80010EA17C1E9005241
:10524000F6E7D9F800100D80F2E70D70F0E719F8D5
:10525000041B8DF8001000208DF80100EA460120A3
:1052600003E059F804AB4FF0FF3061074FF0000145
:1052700002D40DE008F101018846B9420FDA8045F9
:10528000F8DB1AF808100029F4D108E008F1010150
:1052900088468142FADB1AF808100029F6D10598F1
:1052A0005B46A0EB080721463846179A00F094FAAF
:1052B000284400EB080507E04DE029E10DE01AF86D
:1052C000010B5A4617999047B8F10108F7D25B468F
:1052D00021463846179A13E142E00A220092C4F3AD
:1052E00002524FF0000A022A08D059F804CB032AD0
:1052F0004FEAEC710AD00DE029E02AE009F107013C
:1053000021F00702F2E802C1914609E00FFA8CFC95
:105310004FEAEC71042A03D14FFA8CFC4FEAEC718E
:10532000002907DA0A460021DCF1000C61EB0201DA
:105330002D2202E0220504D52B228DF80420012223
:1053400003E0E20701D02022F7E7904659E00A2166
:1053500002E010220DE010214FF0000A00910BE056
:1053600010224FF0000A44F004040827009203E0E2
:1053700008224FF0000A0092C4F30252022A05D01C
:1053800059F804CB0021032A08D009E009F10701EC
:1053900021F00702F2E802C1914605E01FFA8CFCF9
:1053A000042A01D10CF0FF0C4FF00008220728D589
:1053B000702806D0009B83F0100353EA0A0305D03F
:1053C0000EE040228DF80420012208E05CEA010290
:1053D00006D030228DF804208DF805000222904678
:1053E000009B83F0080353EA0A030AD15CEA010236
:1053F00001D1620705D530228DF804204FF0010855
:105400007F1E582804D034A003900EA802900DE00F
:1054100036A0F9E753466046009AFBF741F9844607
:105420000398825C0298401E029002705CEA0100C0
:10543000F0D1029806A9081A00F1200A600702D5E7
:1054400024F4803400E00127574502DDA7EB0A0071
:1054500000E0002000EB0A01009005984144401A4A
:105460000590E00306D45B462146179A059800F0A4
:10547000B3F90544002706E001A85A46C05D179914
:1054800090476D1C7F1C4745F6DBE0030CD55B465F
:105490002146179A059800F09FF9054404E0302052
:1054A0005A46179990476D1C0099481E0090002994
:1054B000F5DC08E0029802995A460078491C0291EE
:1054C000179990476D1CBAF10001AAF1010AF1DCAD
:1054D00065E10000092801003031323334353637B8
:1054E0003839616263646566000000003031323330
:1054F00034353637383941424344454600000000D0
:1055000000F058F90544761C307800287FF4ECADA3
:1055100019B02846BDE8F08F620700D4062709F1CC
:10552000070222F0070CFCE80223E14603F00048E2
:105530005FEA080C02D00FF2702C0DE05FEA045C09
:1055400002D50FF2682C07E05FEAC47C02D00FF2AC
:10555000602C01E0AFF2700C4FF0FF3823F00043F5
:10556000CDF850C065280CD006DC452809D0462867
:105570001DD047283DD13DE0662818D067287ED150
:1055800038E00021112F01DB112000E0781CCDE96B
:10559000000106A90EA8FFF7DDFCDDE90F010E9A58
:1055A00003910021009207F1010A04914DE04FF0B0
:1055B00000400097CDE9011006A90EA8FFF7CAFC2C
:1055C000DDE90F0203920E9B11990022DDF80CA079
:1055D0000093049211B9791C00EB010AB7EB0A00A1
:1055E00004D4C0F1FF3007F1010A0490AAEB0700D0
:1055F000019044E0012F00DA01270021112F01DD85
:10560000112000E03846CDE9000106A90EA8FFF7F9
:10561000A1FCDDE90F010E9A039100210491009293
:10562000BA4621070CD40399514500DA8A46BAF1EB
:10563000010F05DD009AAAF10101515C302908D063
:10564000B84202DA10F1040F06DA0121CDE90110A7
:1056500015E0AAF10101E9E7002805DC04990144FD
:105660000491AAEB000102E0411C514500DD8A468D
:105670000499401A401C01904FF00040029020070E
:1056800004D40198504501DBCDF8048000208DF84A
:105690004F0002980DF14F07B0F1004F25D02B209D
:1056A0000E9002984FF0020800280CDA4042029057
:1056B0002D200E9007E00A210298FAF7DBFF303127
:1056C000029007F8011DB8F10001A8F10108F2DC11
:1056D00002980028EFD1791E0E980870307800F0FB
:1056E000200040F0450007F8020D12A8C01B00F191
:1056F00007081498007800B1012000EB0A01019816
:1057000001EBE07105984144401A401E0590E0030A
:1057100006D45B462146179A059800F05DF80544CB
:105720001498007818B15A46179990476D1CE003F9
:1057300024D55B462146179A059800F04DF805449C
:105740001CE00498002807DBDDE90301884203DD43
:105750000098405C179901E0179930205A4690470D
:10576000049805F10105401C04900198401E019029
:1057700004D12E205A46179990476D1CBAF10001AA
:10578000AAF1010ADDDC05E017F8010B5A4617996A
:1057900090476D1CB8F10001A8F10108F4DC5B46EC
:1057A0002146179A0598ABE62D0000002B0000005B
:1057B000200000002DE9F041044600251E46174652
:1057C000880404D405E039462020B0476D1C641ECF
:1057D000F9D52846BDE8F0812DE9F04104460025C1
:1057E0001E469046C80301D5302700E020278804D4
:1057F00004D505E041463846B0476D1C641EF9D516
:105800002846BDE8F0810A68531C0B601070704791
:1058100070B504460D4629462068FAF721FF00D2EC
:10582000256085F0004630462168FAF719FF02D25C
:1058300085F00040206070BD10B504460021094885
:10584000FCF7CEF808B9002010BD2346064A002117
:105850000448FCF7D9F80448008804490880024845
:10586000007CF1E7D0100020345300206E090020A6
:10587000044948604142034AD16041429160114667
:1058800008607047A409002013B50C464FF6FF735B
:10589000012269460248FEF7E9F900981CBD0000A4
:1058A0005013002070B504462046FBF7A1FE3221BC
:1058B0002046FBF7DDFD2046FBF727FC85B2284696
:1058C00070BD0000028942811D4A52781C4B1B7832
:1058D00042EA032202811A4AD278194B9B7842EAA3
:1058E000032212B2428042880280154A5279144B38
:1058F0001B7942EA032212B26FF0040392FBF3F227
:1059000012B282800E4A9279827102894389D21A38
:10591000B2F5805F03DD0269521E026108E0028970
:105920004389D21A12F5805F02DA0269521C0261C1
:105930000389026903EB42328389D21A42617047BC
:1059400070090020044A5278034B1B7842EA032274
:1059500002810289828170477009002070B5044677
:10596000002609480588408845430021084603F081
:105970004BF803F0F1F900BF02E004480480761C04
:10598000AE42FAD370BD0000F85600200008006C4B
:1059900010B5044658488471002C58D1F02056495F
:1059A00008804FF4A07048800846808845F2105166
:1059B000884210D14FF430504F4908814FF428509D
:1059C00048814FF42C5088814FF4F07008804FF4D8
:1059D000487048801AE04848808841F66311884240
:1059E0000DD12C20444908812B2048812A20888110
:1059F0004FF4F07008804FF44870488006E02C2087
:105A00003D4908812A2048812B2088813A48808896
:105A100045F21031884205D03748808847F29671A8
:105A2000884206D14FF4A070334908804FF4F070DB
:105A300048803148808849F60601884258D14FF4A1
:105A4000F0702D4908804FF44870488050E04FF4C2
:105A5000A07029490880F02048800846808845F2D7
:105A60001051884210D14FF43050234908814FF42F
:105A7000285048814FF42C5088814FF4487008809A
:105A80004FF4F070488020E01B48808841F6631195
:105A9000884205D01848808849F6060188420DD111
:105AA0002C20154908812A2048812B2088814FF419
:105AB000487008804FF4F070488006E02C200E49B2
:105AC00008812A2048812B2088810B48808845F254
:105AD0001031884205D00848808847F29671884284
