:020000040800F2
:1000000018530020DD010008DD240008C521000888
:1000100089230008AD0400088D2D000800000000B1
:100020000000000000000000000000004501000882
:10003000DD0400080000000089010008BD29000857
:10004000F7010008F7010008F7010008F7010008B0
:10005000F7010008F7010008F7010008F7010008A0
:10006000F7010008F7010008F7010008F701000890
:10007000F7010008F7010008F7010008F701000880
:10008000F7010008F7010008F7010008F701000870
:10009000812D0008F7010008F7010008F7010008AA
:1000A000F7010008492A0008F7010008F7010008D5
:1000B000F7010008F7010008F7010008F701000840
:1000C000F7010008F7010008F701000831280008CF
:1000D000F7010008692D0008F7010008752D0008D8
:1000E000F7010008F7010008F7010008F701000810
:1000F000F7010008F7010008F7010008F701000800
:10010000F7010008F7010008F7010008F7010008EF
:10011000F7010008F7010008F7010008F7010008DF
:10012000F7010008F7010008F7010008F7010008CF
:10013000DFF80CD000F0A8F900480047193000089B
:1001400018530020224B19680868B0E8F00F80F3BC
:100150000988BFF36F8F4FF0000080F311884EF0D5
:100160000D0E70470000000006480068006880F32C
:10017000088862B661B6BFF34F8FBFF36F8F00DFA1
:1001800000BF00BF08ED00E0EFF30980BFF36F8F01
:100190000F4B1A6820E9F00F106008B54FF05000BF
:1001A00080F31188BFF34F8FBFF36F8F03F0B0FE62
:1001B0004FF0000080F31188BDE808401968086816
:1001C000B0E8F00F80F30988BFF36F8F704700BF6E
:1001D00024000020EFF305807047000006488047A8
:1001E00006480047FEE7FEE7FEE7FEE7FEE7FEE71C
:1001F000FEE7FEE7FEE7FEE7472A000831010008B8
:1002000040EA01039B0703D009E008C9121F08C098
:10021000042AFAD203E011F8013B00F8013B521E18
:10022000F9D27047D2B201E000F8012B491EFBD28F
:1002300070470022F6E710B513460A4604461946F1
:10024000FFF7F0FF204610BDF0B480EA0102D40FA2
:100250004200B2EB410F02D20246084611464A0064
:1002600042D0C30DDDB2C1F3C752AD1A202D35DA2D
:10027000C1F3160141F4000204B15242C5F1200657
:1002800002FA06F12A411044B3EBD05F23D0C4B187
:10029000012DA0EBC35009DCF0BC4FF0004202EA94
:1002A000C352DBB200F5000000F0BFB8400000F11F
:1002B000807000EBC350A0F1807040EAD17049001B
:1002C00009E0490841EAC071A0EBC35000F5000005
:1002D000400800EBC350F0BC00F09EB86142012220
:1002E00002EB4101001BF6E7F0BC704781F00041D2
:1002F000AAE780F00040A7E780EA010210B502F00B
:100300000043400022D04A001FD0010E01EB1261D1
:10031000C0F35600C2F3560240F4000042F400025B
:10032000A0FB022000047F39140400D0401C50EAD6
:10033000124001D44000491EC2B20C0604EBD0109A
:10034000401C4008802A02D003E0002010BD20F0AD
:100350000100002900DA0020184310BD420005D03A
:10036000C0F3C7525242914201DC0020704700EBBB
:10037000C1507047C10F80EAE0700844CA07962355
:10038000002100F052B896230022114600F04DB82B
:1003900000F0004220F00040C10DC0F3160040F410
:1003A00000007F2901DA00207047962903DCC1F1A3
:1003B0009601C84001E096398840002AF4D04042B6
:1003C00070470000002801DBC0F10040002901DB7C
:1003D000C1F1004181427047002801DBC0F10040BB
:1003E000002901DBC1F100418842704730B50B465E
:1003F000014600202022012409E021FA02F59D4255
:1004000005D303FA02F5491B04FA02F52844151E28
:10041000A2F10102F1DC30BD0029A8BF7047401CE9
:10042000490008BF20F00100704710B4B0FA80FC0A
:1004300000FA0CF050EA010404BF10BC704749B147
:10044000CCF1200421FA04F411FA0CF118BF0121B7
:1004500021430843A3EB0C01CB1D4FEA00614FEA97
:10046000102042BF002010BC704700EBC350104466
:100470000029A4BF10BC7047401C490008BF20F0F1
:10048000010010BC70470000064C074D06E0E06814
:1004900040F0010394E8070098471034AC42F6D3CB
:1004A000FFF74AFE5861000878610008FEE7000087
:1004B00000B58BB000200121CDE906010390059025
:1004C000009001900290089104906946024800F063
:1004D00079F80BB000BD000068070020704772B6C5
:1004E000FEE790F82020012A07D0022A05D0416AB1
:1004F00041F48021416201207047006842690A434B
:10050000426100207047F0B590F820500468A4685C
:10051000012D05D0022D03D0416A41F480214DE028
:1005200014F0406F01D1E50045D5C4F30164012505
:10053000A5401D608D684FF4C0739DB1CE683543F2
:100540004E6845EAC605066803EB0417F5514FF4FB
:10055000C275076805EB04150E697E51097D0129F6
:1005600005D009E00E88CD6845EA4655EBE70168FD
:100570004E5946F480764E511179D2F805504FF419
:10058000C67641EA0521056806EB0416A9511178E3
:10059000D2F801204FF4C47541EA0221026805EB4C
:1005A00004155151006803EB0411425842F0010256
:1005B00042500020F0BD416A41F400114162012027
:1005C000F0BD000010B590F820300268012B07D074
:1005D000022B05D0416A41F480214162012010BD07
:1005E000D2F8000240F00100C2F80002087D00F0DD
:1005F0001F0301209840D2F81C328343C2F81C32FA
:10060000CB69B3B9D2F80C328343C2F80C328C896F
:100610004B6864F31F434C6902EBC404C4F84032D6
:100620000C890B6864F31F434C6902EBC404C4F8E3
:100630004432CB69012B16D1D2F80C320343C2F8F5
:100640000C320C884B6864F31F434C6902EBC40402
:10065000C4F840320C89CB6864F31F434C6902EB49
:10066000C404C4F844328B69002BD2F804320FD092
:1006700053EA0003C2F804320B69002BD2F814329B
:1006800008D00343C2F81432096A012904D008E0F3
:100690008343EFE78343F5E7D2F81C120143C2F826
:1006A0001C12D2F8000220F00100C2F80002002063
:1006B00010BD70470246002092F82030012B01D077
:1006C000022B05D1106821B1D0F8100000F0030012
:1006D0007047C068FAE770B590F82040012C05D04B
:1006E000022C03D0416A41F4802128E0046809B358
:1006F0002469A40720D04FF4D874056804EB0114D2
:100700002D5915F00405956005682D591AD0ED088E
:10071000556005682C5904F00204D4604FF4DA7473
:10072000056804EB01142E5906F00F06082E0CD3B1
:1007300008250DE0E468DCE7416A41F400114162FC
:10074000012070BD6D0D1560E3E72D5905F00F0513
:10075000156105682D59C5F30725956105682C5964
:10076000240C54614FF4DC72046802EB0112A458AB
:100770001C700468A458240A5C700468A458240CF3
:100780009C700468A258120EDA704FF4DE7204688E
:1007900002EB0112A4581C710468A458240A5C716D
:1007A0000468A458240C9C710468A258120EDA71D3
:1007B000006829B1016941F020010161002070BD8C
:1007C000C16841F02001C160F8E72DE9F05F0546FE
:1007D000006800244669D0F804908768D0F80CB00F
:1007E000D0F810A0D0F81880F10748D0F90714D03D
:1007F00001218160B80703D5284600F016FA0CE005
:10080000780702D54FF4006407E0380702D54FF4AB
:10081000805402E0284600F007FAF80516D529684A
:100820004FF480708860B80503D5284600F0FFF9C2
:100830000CE0780502D544F4005407E0380502D5F1
:1008400044F4804402E0284600F0F0F9F80316D59D
:1008500029684FF480308860B80303D5284600F03B
:10086000E8F90CE0780302D544F4004407E03803CB
:1008700002D544F4803402E0284600F0D9F930076C
:1008800007D55FEACB6004D52968102044F40074D2
:10089000C86070074FF0080707D55FEA0B7004D5F2
:1008A0002868C760284600F059F9B00706D52868BF
:1008B000C068800702D0284600F052F9700607D5BC
:1008C0005FEACA6004D52968102044F48064086196
:1008D000B00607D55FEA0A7004D528680761284684
:1008E00000F072F9F00606D528680069800702D08A
:1008F000284600F06AF9B00308D55FEAC96005D55B
:10090000296810204860284600F060F9F00307D5F8
:100910005FEA097004D528684760284600F08AF924
:10092000300446D55FEA497040D5F00504D55FEA4A
:10093000C87001D044F00104B00504D55FEA8870A6
:1009400001D544F00204700504D55FEA487001D572
:1009500044F00404300529D518F0700F26D008F0B3
:100960007000402815D006DC102809D020280AD0B5
:10097000302816D10AE050280ED0602811D10EE0A0
:1009800044F008040DE044F010040AE044F02004B0
:1009900007E044F0400404E044F0800401E044F443
:1009A00080742868816921F07001816129680420C0
:1009B0004860002C05D0686A204368622846FFF72B
:1009C00078FEBDE8F09F70B5040003D094F82000D5
:1009D00010B104E0012070BD204600F081F82068CD
:1009E000016841F00101016000F0F4FA05460526B6
:1009F00004E000F0EFFA401B0A2811D82068406894
:100A0000C007F6D02068016821F00201016000F003
:100A1000E1FA05460BE000F0DDFA401B0A2806D992
:100A2000606A40F40030606284F82060D2E7206899
:100A300040688007EFD4207E0128206801683DD0FF
:100A400021F080010160607E01282068016838D0B3
:100A500021F040010160A07E01282068016833D0A8
:100A600021F020010160E07E0128206801682ED07D
:100A700041F010010160207F01282068016829D021
:100A800021F008010160607F01282068016824D0FE
:100A900021F004010160D4E902010843D4E9041201
:100AA000114308436168491E08432168C86100205A
:100AB0006062012084F82000002070BD41F08001B8
:100AC000C0E741F04001C5E741F02001CAE721F04D
:100AD0001001CFE741F00801D4E741F00401D9E764
:100AE00010B586B000210091019102910391006838
:100AF000174988422AD11748C16941F00071C16184
:100B0000C16901F000710491816941F004018161C2
:100B10008069114C00F0040004904FF400600090D4
:100B20006946204600F054F9A0140090022001907C
:100B3000032003906946204600F04AF9002205216F
:100B4000142000F0DFFA142000F0CEFA06B010BD39
:100B5000006400400010024000080140704700009F
:100B600070B50546144802F0FFF9134C0C3C207098
:100B7000A078401EC0B200EB4001607001EBC001E4
:100B80000E4800EB8100816A4A1C322982622946A4
:100B900002D802F039FA01E002F00CFA07482946BF
:100BA000B03002F007FA064960780870BDE870407E
:100BB00002210448FFF795BCA4000020D84700207C
:100BC0000000002068070020704770477047000051
:100BD00070B5044690F82000012804D0606A40F403
:100BE0000020606218E0022084F82000206801687C
:100BF00021F00101016000F0EDF905460EE000BFB3
:100C000000F0E8F9401B0A2808D9606A40F4003077
:100C10006062052084F82000012070BD20684068D3
:100C2000C007EDD1606270BD704770477047704774
:100C300070477047704710B590F8211000220229C4
:100C400005D00421816380F82020012010BD0168B7
:100C50000B6823F00E030B6001680B6823F001039F
:100C60000B6090F84030C46B012101FA03F363601C
:100C700080F8211080F82020104610BD2DE9F05F8B
:100C800090F821100024022903D00421816301245B
:100C900085E001680A6822F00E020A6001680A68AD
:100CA00022F001020A603F4E3E4FB215DFF8F4C059
:100CB000DFF8F090DFF8ECA0DFF8E8B0DFF8E4E070
:100CC0000168783F13011502ACF1640CA9F15009D9
:100CD000AAF13C0AABF1280BAEF1140E4FF48018C8
:100CE000B14227D9B9420ED0614512D049451DD035
:100CF000514518D0594518D0714501D1424615E0EB
:100D0000294EB14201D1012210E0274E1436B142E2
:100D100001D110220AE0244E2836B14206D0224AE0
:100D20003C32914201D11A4600E02A461E49091F71
:100D30000A602BE0B94213D0614517D0494522D053
:100D400051451DD059451DD0714501D142461AE08B
:100D5000B14202D14FF0807215E0134EB14201D181
:100D6000012210E0104E1436B14201D110220AE0E7
:100D70000D4E2836B14206D00B4A3C32914201D189
:100D80001A4600E02A46074980394A60012180F866
:100D90002110002180F82010416B01B188472046C6
:100DA000BDE8F09F800002400804024070B5044690
:100DB00000F010F90546601C02D004480078044495
:100DC00000F008F9401BA042FAD370BD14000020C7
:100DD0002DE9F84FDFF8C8910024A9F1040B234650
:100DE0000F2709F1040AABF1040ED1E00125A5405B
:100DF00006EA0502AA4276D1DFF8A8C14E68A6EB42
:100E00000C0866452BD00DDC032E34D005DC36B340
:100E1000012E19D0022E2FD11BE0112E16D0122E2A
:100E20002AD119E0B8F5881F19D006DCB8F5803F43
:100E300015D0B8F5801F1FD111E0B8F5001F0ED0F6
:100E4000B8F5041F18D10AE0CB6815E0CB681B1D6C
:100E500012E0CB6808330FE0CB680C330CE08B68F2
:100E60002BB1012B4FF0080303D0456104E00423AC
:100E700002E0056100E00023FF2A01D8064601E0F8
:100E800000F104064FEA840501D9A5F12005D6F842
:100E9000008007FA05FC28EA0C0803FA05F548EA81
:100EA0000508C6F800804D68ED0070D53E4DAE696E
:100EB00046F00106AE61AD6924F0030605F00105B8
:100EC00000953A4D06EB050CDCF80850A607360FE6
:100ED00007FA06F825EA0805DFF8D480404503D173
:100EE0004FF0000825E052E0DFF8C880404502D10D
:100EF0004FF001081DE0DFF8C080404502D14FF0FF
:100F0000020816E0DFF8B480404502D14FF0030834
:100F10000FE0DFF8AC80404502D14FF0040808E054
:100F2000DFF8A080404502D14FF0050801E04FF006
:100F3000060808FA06F848EA0508CCF808804D6863
:100F4000D9F80060ED024D4601D5164300E0964306
:100F50002E604D68DAF80060AD02554601D51643A3
:100F600000E096432E604D68DBF80060AD035D46FF
:100F700001D5164300E096432E604D68DEF8006010
:100F8000ED03754601D5164300E096432E60641CC0
:100F90000A681646E2407FF429AFBDE8F88F0000EA
:100FA0000804014000001110001002400000014040
:100FB00000080140000C01400010014000140140F5
:100FC00000180140001C01400AB10161704709048A
:100FD000FBE7000001488068704700001400002013
:100FE0000248816802781144816070471400002033
:100FF000074810B5016841F010010160032000F0BE
:10100000A1F80F2000F006F800F04AF8002010BD0B
:101010000020024030B505461C4887B0816941F484
:1010200000618161806906A900F40060009001A858
:1010300000F030F900F05EF91549164AB0FBF1F105
:101040001548491E0260416040F2E7320021C0E9C4
:1010500003218160816100F0CEFC040012D10E48B2
:1010600000F0F8FC04000DD1192000F03DF8102D1F
:1010700007D200222946192000F044F807480560ED
:1010800000E0012407B0204630BD000000100240FF
:1010900040420F00002C0140780900201800002079
:1010A0000F4808B5816941F001018161816901F052
:1010B00001010091C16941F08051C161C069002204
:1010C00000F0805000900F21901E00F01BF80548A2
:1010D000416821F0E06141F00071416008BD00000D
:1010E0000010024000000140002809DB00F01F0250
:1010F000012191404009800000F1E020C0F800117A
:1011000070470000F0B40E4B1B680C46C3F302237B
:10111000C3F10705042D00D90425191D072901D2A3
:10112000002300E0DB1E012606FA05F1491E2140DE
:1011300099409E40761E16403143F0BC01F038BE07
:101140000CED00E0064900F0070208684FF6FF03C7
:10115000184040EA0220034A10430860704700002C
:101160000CED00E00000FA052DE9F0470F46050000
:1011700061D0434E306800F00700B84209D23068B1
:1011800020F0070038433060306800F00700B842B4
:1011900051D128683B4C810712D5400703D56068C0
:1011A00040F4E06060602878000703D5606840F490
:1011B000605060606068A96820F0F00008436060DB
:1011C0002878C00728D06868012810D02168022834
:1011D00010D0890700292EDA616821F0030101434C
:1011E0006160FFF7F7FE804641F288390DE0216823
:1011F0008903EFE78901EDE7FFF7ECFEA0EB0801BB
:10120000494502D90320BDE8F0876068696800F0AD
:101210000C00B0EB810FEFD1306800F00700B8424E
:101220000BD9306820F0070038433060306800F098
:101230000700B84201D00120E5E72878400705D52E
:101240006068E96820F4E06008436060287800077F
:1012500006D56068296920F4605040EAC1006060EA
:1012600000F058F86168084AC1F30311515CC840A6
:101270000649086006480068FFF7CCFE0020C2E778
:1012800000200240001002406249000820000020B7
:10129000180000200F2202600C4A536803F0030379
:1012A0004360536803F0F0038360536803F4E06322
:1012B000C36052684FF4E06303EAD202026104485B
:1012C000006800F00700086070470000001002404E
:1012D000002002400448054900684968044AC1F3F7
:1012E0000221515CC84070472000002000100240DD
:1012F000724900080448054900684968044AC1F376
:10130000C221515CC84070472000002000100240FC
:10131000724900080E4A51680E4801F00C03042B74
:1013200011D0082B0FD10C48C1F38343C903C05C13
:101330000AD55168084AC1F34041921E515C054AE2
:101340005043B0FBF1F07047044948437047000038
:101350000010024000127A005249000800093D00C6
:101360002DE9F84F040070D02078C04DC00749D057
:101370006868C0F38100012807D06868C0F3810065
:10138000022809D16868C00306D52868800339D5CA
:1013900060680028E7D035E06068B0F5803F0BD08A
:1013A00010B1B0F5A02F11D0286820F4803028604B
:1013B000286820F4802002E0286840F4803028600B
:1013C000606890B1FFF706FE06460AE0286840F420
:1013D00080202860F0E700BFFFF7FCFD801B642839
:1013E00073D828688003F7D50CE0FFF7F3FD0646B5
:1013F00005E000BFFFF7EEFD801B6428F0D82868E9
:101400008003F7D420789A4E80074FF001094FF0FF
:10141000000839D5686810F00C0F07D06868C0F371
:101420008100022809D16868C00306D428688007B3
:1014300014D52069012808D110E02069B0B1C6F8A0
:101440000090FFF7C7FD074605E00AE1FFF7C2FD80
:10145000C01B0228C4D828688007F7D528686169AE
:1014600020F0F80040EAC10028600DE0C6F80080D6
:10147000FFF7B0FD074604E0FFF7ACFDC01B0228F4
:1014800023D828688007F7D4207800072CD579481E
:10149000A169D9B1C0F80090FFF79CFD074604E0B0
:1014A000FFF798FDC01B02280FD8686A8007F7D5A0
:1014B00071484FF4FA510068B0FBF1F0009000BFA2
:1014C0000098411E0091FAD20EE080E0C0F8008042
:1014D000FFF780FD074604E0FFF77CFDC01B0228F4
:1014E00075D8686A8007F7D42078400760D5E86926
:1014F0000027C00008D4E86940F08050E861E8693E
:10150000012700F0805000905C480168C90513D4A1
:101510000168834641F480710160FFF75BFD8246FC
:1015200006E000BFFFF756FDA0EB0A0064284ED886
:10153000DBF80000C005F5D5E06801280AD008B145
:10154000052813D0286A20F001002862286A20F0BC
:10155000040002E0286A40F001002862E06841F2DD
:10156000883B98B1FFF736FD82460BE0286A40F0D1
:1015700004002862EEE700BFFFF72CFDA0EB0A0194
:1015800059455AD8286A8007F6D50CE0FFF722FDA6
:10159000824605E0FFF71EFDA0EB0A0159454CD835
:1015A000286A8007F6D41FB1E86920F08050E8610E
:1015B000E06988B36968C1F38101022944D0022837
:1015C000C6F8608004D0FFF705FD044638E034E03B
:1015D000FFF700FD074604E0FFF7FCFCC01B0228F4
:1015E0002BD828688001F7D4206AB0F5803F05D158
:1015F0006868A16820F4003008436860D4E90801F5
:101600000843696821F4741108436860C6F8609063
:10161000FFF7E0FC044606E025E000BFFFF7DAFC38
:10162000001B022809D828688001F7D51BE000BFFD
:10163000FFF7D0FC001B022802D90320BDE8F88F79
:1016400028688001F4D40EE00128F7D06868226A87
:1016500000F48031914204D1616A00F47010884234
:1016600001D00120EAE70020E8E700000010024076
:1016700000004242800442422000002000700040EE
:101680007047000038B50446006842688168C94365
:101690004B0606D5CB0704D1D3435B0601D4216C9E
:1016A00005E08B0708D4D3431B0605D4616C01B059
:1016B0002046BDE8304008478B0601D54B0646D48E
:1016C000D3439B0643D44B060AD494F85130032BE2
:1016D0003ED0636D43F004036365C3688368009381
:1016E000890609D4616D41F001016165816800914D
:1016F000016821F040010160606D002827D020685A
:10170000416821F0E0014160012084F85100900718
:1017100022D02068416821F003014160104DE06C47
:1017200040B14563E06CFFF7A9FA18B1606D40F075
:1017300040006065A06C002809D04563A06CFFF7ED
:101740009DFA002803D0606D40F04000606538BD10
:10175000C1688068009038BD2046FFF791FF38BD12
:101760003D28000870B5040009D0606A002540B12A
:1017700025616561A56294F8510040B10CE001203B
:1017800070BD6068B0F5827FF4D0E561F2E784F85F
:101790005050204600F040F8022084F851002068A4
:1017A000016821F040010160A088218900F4827065
:1017B00001F404410843A18901F400610843217C3C
:1017C00001F002010843217D01F001010843218B52
:1017D00001F400710843217F01F03801084394F8B7
:1017E000201001F080010843218D01F400510843CD
:1017F00021680860A069042101EA1040216848605E
:101800002068C16921F40061C1616565012084F827
:101810005100002070BD000000B585B0002100918E
:1018200001910291039100681349884222D1134823
:10183000816941F480518161816901F48051049191
:10184000816941F0040181618069694600F004000A
:101850000490A020009002200190032003900848EB
:10186000FFF7B6FA002205212320FFF74BFC2320C7
:10187000FFF73AFC05B000BD003001400010024007
:10188000000801402DE9F84F044690F8500000266A
:10189000984615468A4601280CD0012784F85070D6
:1018A000FFF798FB814694F85100B346012804D015
:1018B00002269AE00220BDE8F88FBAF1000F6FD03F
:1018C000002D6DD0032084F85100C4F854B0C4F842
:1018D00030A0A586E586C4F838B0A4F83CB0A4F8DA
:1018E0003EB0C4F844B0C4F840B0A068B0F5004FB2
:1018F00009D12068016821F0400101602068016879
:1019000041F48041016020680168490603D4016800
:1019100041F040010160E068B0F5006F606803D0FD
:1019200058B3012D29D049E008B1012D1FD1206BFA
:1019300021680088C86006E020688168890709D5A9
:10194000216B0988C160206B801C2063E08E401EE3
:10195000E0860CE0FFF73EFBA0EB0901414503D315
:10196000B8F1FF3F03D006E0B8F1000F03D0E08EDE
:101970000028E1D125E0032635E0206B21680078BE
:10198000087306E02068816889070AD5216B097809
:101990000173206B401C2063E08E401EE0860DE04A
:1019A0001FE0FFF717FBA0EB0901414503D3B8F196
:1019B000FF3F03D0DFE7B8F1000FDCD0E08E002856
:1019C000E0D14A464146204600F040FF08B12020C1
:1019D0006065A06818B92068C16880680090606D73
:1019E00008B1012601E084F8517084F850B0304607
:1019F00061E77047704710B5040003D094F83D00CC
:101A000010B107E0012010BD002084F83C00204602
:101A100000F01EF8022084F83D00211D206801F02E
:101A200019F8012084F8460084F83E0084F83F004D
:101A300084F8400084F8410084F8420084F84300B0
:101A400084F8440084F8450084F83D00002010BD6F
:101A50007047000090F83D10012901D00120704727
:101A6000022180F83D100168CA6842F00102CA6094
:101A700000680E4988420ED00D4988420BD0B0F163
:101A8000804F08D00B49884205D00B49884202D0CC
:101A90000A49884204D1816801F00701062903D070
:101AA000016841F00101016000207047002C0140F5
:101AB000003401400004004000080040000C0040D9
:101AC000704770B50446006801694FF00005C943CE
:101AD000890715D4C168C943890711D4E91E01617A
:101AE00001202077206880698007204602D0FFF718
:101AF000E7FF04E000F098F8204600F096F825771C
:101B000020680169C943490717D4C168C943490717
:101B100013D46FF0040101610220207720688069EE
:101B200010F4407F204602D0FFF7CAFF04E000F027
:101B30007BF8204600F079F8257720680169C943D1
:101B4000090716D4C168C943090712D46FF0080108
:101B50000161042020772068C0698007204602D0F8
:101B6000FFF7AEFF04E000F05FF8204600F05DF8FC
:101B7000257720680169C943C90617D4C168C943DC
:101B8000C90613D46FF01001016108202077206886
:101B9000C06910F4407F204602D0FFF791FF04E0B7
:101BA00000F042F8204600F040F8257720680169EF
:101BB000C943C90708D1C168C943C90704D1891EEF
:101BC0000161204600F032F820680169C943090626
:101BD00009D4C168C943090605D46FF080010161C9
:101BE0002046FFF706FF20680169C943490609D46A
:101BF000C168C943490605D46FF040010161204620
:101C000000F01EF820680169C94389060BD4C16839
:101C1000C943890607D46FF0200101612046BDE861
:101C20007040FFF7E7BE70BD70477047006803491A
:101C3000884201D1FFF7D4B970470000002C014061
:101C400070477047704710F8411F4078084370474D
:101C5000F8B5016804460868CA684B6910F00F0FB0
:101C60004FF0000559D003F0010602F49077374396
:101C700065D0C10705D0D10503D5616C41F00101E4
:101C80006164410705D5D90703D0616C41F00201B9
:101C90006164810705D5D90703D0616C41F0040167
:101CA0006164010707D502F02001314303D0616C64
:101CB00041F008016164616C00293AD0800604D5C6
:101CC000900602D5204600F03AFF20684069616C1A
:101CD000C0F38010090700D460B3204600F008FF6D
:101CE00020684069400621D52068143050E8001F64
:101CF00021F0400140E80012002AF5D1E06BA8B1C4
:101D00006D494163E06BFEF7B9FF002811D0E06B2D
:101D1000416B01B0BDE8F040084783060FD593063C
:101D20000DD52046BDE8F84000F009BF2046FFF77A
:101D300089FFF8BD2046FFF785FF6564F8BD266B77
:101D40002023012E7CD1C6067AD5D60678D5086820
:101D50004868009048694FF00206400640D5E16BA4
:101D6000086840680004000CE8D0A28D8242E5D9E2
:101D7000E085886920282DD020680C3050E8001FAD
:101D800021F4807140E80012002AF5D12068143057
:101D900050E8001F21F0010140E80012002AF5D1AF
:101DA0002068143050E8001F21F0400140E8001284
:101DB000002AF5D184F84230256320680C3050E8C1
:101DC000001F21F0100140E80012002AF5D1E06B5D
:101DD000FEF731FF6663A08DE18D401A81B22AE0E3
:101DE000A08DE18D401A81B2E08D0028A6D0002997
:101DF000A4D022680C3252E8000F20F4907042E820
:101E00000007002FF5D12068143050E8002F22F091
:101E1000010240E80027002FF5D184F84230256305
:101E200020680C3050E8002F22F0100240E8002318
:101E3000002BF5D166632046FFF703FFF8BDFFE7EF
:101E400005062BD5150629D594F841002128F5D192
:101E5000A068B0F5805F01D12069B0B1206A411C53
:101E60002162216800784860E08C401E0004000C6C
:101E7000E084E3D12068C16821F08001C16020685E
:101E8000C16841F04001C160D8E7206A0088C0F312
:101E900008004860206A801C2062E5E74006CDD536
:101EA0005006CBD5CA68204622F04002CA6084F8AA
:101EB000413000F086F9C1E7E12A000870B504005E
:101EC00004D094F84100002510B106E0012070BD57
:101ED00084F84050204600F023F8242084F8410084
:101EE0002068C16821F40051C160204600F088FEDE
:101EF0002068016921F4904101612068416921F065
:101F00002A0141612068C16841F40051C1606564E3
:101F1000202084F8410084F842006563002070BDF1
:101F200070B586B000240094019402940394036871
:101F30002E482D4E022103220515B34226D1836976
:101F400043F480438361836903F48043049383698A
:101F500043F0040383618069254E00F0040004907F
:101F60000802CDE90001039269463046FEF730FFD2
:101F7000CDE90054694630460294FEF729FF00225D
:101F800005212520FFF7BEF8252028E0194EB34291
:101F900027D1C36943F48023C361C36903F4802359
:101FA0000493836943F0080383618069CDE900519C
:101FB00000F00800CDE903200F4D69462846FEF7E2
:101FC00007FFE814CDE90004694628460294FEF7AD
:101FD000FFFE002205212720FFF794F82720FFF7B6
:101FE00083F806B070BD00000038014000100240C8
:101FF0000008014000480040000C014090F84230C9
:10200000202B01D00220704721B11AB100230363B5
:1020100000F052BE012070472DE9F04707463C48CA
:1020200000263C4C4FF6FF784FF48079A0F5807580
:10203000874231D12078FF280BD3267049462846A5
:10204000FEF7F7F843460A2233A1314800F06CF856
:102050001CE0A1782954401CC2B2A818227010F8C4
:10206000011C0A2912D110F8020C0D280ED143468A
:102070002C49274800F058F82548FFF7E4FD2128AF
:10208000FAD0267049462748FEF7D3F821490122A5
:10209000891C1F48FFF7B2FF1D484830874235D1E1
:1020A0006078FF280BD3667049461E48FEF7C1F8DA
:1020B00043460A2218A1164800F036F81DE0A17820
:1020C0002954401CC0B26070284410F8011C0A2931
:1020D00013D110F8020C0D280FD143462278114974
:1020E0000B4800F021F80A48FFF7ADFD2128FAD08F
:1020F000267049460B48FEF79CF8BDE8F0470549B5
:1021000003480122891C4830FFF778BFBDE8F087FB
:10211000E808002010000020CAFDBEDDD2E7B3F6BB
:1021200000000000E80700202DE9F843044690F87D
:1021300041001F4616460D46202802D00220BDE869
:10214000F8837DB176B100206064212084F84100DD
:10215000FEF740FFA6848046E684A068B0F5805F65
:1021600002D003E00120EAE7206910B12E460025E5
:102170000EE000260CE08021204600F0B8FDA0B95A
:10218000AEB116F8010B21684860E08C401EE08477
:10219000E08C43464FF0000200970028EBD14FF04F
:1021A0004001204600F0A3FD30B10320C7E735F819
:1021B000020BC0F30800E6E7202084F8410000206D
:1021C000BDE77047FEE700000F4810B50D490160FC
:1021D0000221416000214FF400228160C0E9031216
:1021E0004FF4E0024261017641768176C176017753
:1021F0004177FEF7E8FB002803D0BDE81040FEF76A
:102200006EB910BD006400406807002010B596B09C
:102210001C2211496846FDF7F3FF0021684600F0D3
:1022200020FF0E4C0C491C2260601C3107A8FDF7F2
:10223000E7FF002107A800F014FF0749A0601C2257
:1022400038310EA8FDF7DCFF00210EA800F009FFD1
:10225000E06016B010BD0000FC480008000000203F
:1022600030B585B00024184800940194029403947A
:10227000816941F004018161816901F004010491E7
:10228000816941F010018161816901F010010491BF
:10229000816941F00801816180690C4D00F00800FE
:1022A0000490002230212846FEF78EFE3020009058
:1022B0000120CDE901040220039069462846FEF77B
:1022C00087FD05B030BD0000001002400010014045
:1022D000104810B50E4901604FF482714160002131
:1022E0008160C1604FF400720161C0E905120822EB
:1022F000C0E90721416281620A21C162FFF732FA17
:10230000002803D0BDE81040FEF7E9B810BD00007A
:1023100000300140900700200C4810B50A490160C8
:102320004FF4E1314160002181600C22C160C0E9BD
:1023300004128161C161FFF7C1FD002803D0BDE82F
:102340001040FEF7CCB810BD00380140E80800206E
:102350000C4810B50A4901604FF4E1314160002199
:1023600081600C22C160C0E904128161C161FFF784
:10237000A5FD002803D0BDE81040FEF7B0B810BDA1
:102380000048004030090020FEE700000EB53F4C39
:102390004FF4C8700025E060A06060603C4F3D4E87
:1023A000AA464FF07F5844F62069206005EBC5002F
:1023B000CDE9008700EB400006EB80004A464B4623
:1023C0000321CDF808A000F01DFA6D1C042DEDDBF3
:1023D000314DDFF8C8B0A246B146002457464E46FC
:1023E00057F82400FDF7C6FF804604EB440000EBDD
:1023F000C40035F92000FDF7BDFF014604EBC40021
:1024000000EB400006EB8000424600F054FE641CE6
:10241000042CE5DBD6F88001FDF7BAFF0FFA80F84F
:10242000D6F81401FDF7B4FF07B2D6F8A800FDF7FF
:10243000AFFF04B2F06BFDF7ABFF01B23B462246A3
:102440001748CDF8008001F005FB9BF800105C46B2
:1024500029B1012903D0022901D0032912D101EBAE
:10246000410000EBC10205EB82008679B0F904302F
:10247000CDE9003635F9223042690AA000F088FC27
:1024800004202070012000F0E0FDA6E7B00000204D
:10249000CDCCCC3DE8480020D847002000000020EB
:1024A00068070020B5E7BBFA202564203A20616E5A
:1024B000676C653D2564203B2073706565643A2038
:1024C00025643B2063757272656E743A2025643B07
:1024D0002074656D703A25640D0A0000FEE7000067
:1024E00030B40021084B0A465FF0000003EBC00443
:1024F000401CC0B262548028F8D3491CC9B20829D4
:10250000F2D330BC00F0C8B8984A0020CA0801F0E5
:10251000070301219940044B03EBC003985C61EA77
:102520000000C04398547047984A002030B10128F9
:1025300007D100215FF0A70000F048B90021A620D4
:10254000FAE7704710B558B1012810D10021C0201A
:1025500000F03CF90021A020BDE8104000F036B9A1
:102560000021C82000F032F90021A120F4E710BDBD
:10257000CA0801F0070301219940034B03EBC00097
:10258000835C0B4383547047984A002010B5414C3C
:10259000002210212046FEF717FDC820FEF706FC9A
:1025A000012210212046FEF70FFD0021AE2000F091
:1025B0000DF90021084600F009F90021102000F073
:1025C00005F90021402000F001F90021812000F0F0
:1025D000FDF80021CF2000F0F9F80021A12000F043
:1025E000F5F80021C82000F0F1F80021A62000F045
:1025F000EDF80021A82000F0E9F800213F2000F0CC
:10260000E5F80021D32000F0E1F80021084600F0B1
:10261000DDF80021D52000F0D9F80021802000F05D
:10262000D5F80021D92000F0D1F80021F12000F0E8
:10263000CDF80021DA2000F0C9F80021122000F0C6
:10264000C5F80021DB2000F0C1F80021402000F097
:10265000BDF80021202000F0B9F80021022000F090
:10266000B5F800218D2000F0B1F80021142000F011
:10267000ADF80021A42000F0A9F80021A62000F068
:10268000A5F80021AF2000F0A1F8BDE81040FFF749
:1026900027BF00000010014070B5114E002400BF9C
:1026A00004F1B000C0B2002100F090F8002108460B
:1026B00000F08CF80021102000F088F85FF0000591
:1026C00006EBC5000121005D00F080F86D1CEDB245
:1026D000802DF5D3641CE4B2082CE1D370BD00005A
:1026E000984A00202DE9FF4F1D460C4689465807A1
:1026F00000D0012000EBD50069084843203A00F0E3
:10270000FF0A02F0FF0B002635E00C2D12D0102D31
:1027100014D0182D31D11A490BEBCB0001EB8000FE
:102720004FF00008875D2146380600980AD5FFF76C
:102730001FFF09E00BEB4B001249EFE7124901EBD9
:102740000B10EDE7FFF7E2FE7806641C070EE4B21B
:10275000A4EB0900A84205D100984C46401CC0B229
:10276000009006E008F1010000F0FF08B8F1080F42
:10277000D9D3761CF6B25645C7D3BDE8FF8F00000B
:10278000DE5300087A490008EE4D00082DE9F041BB
:102790001E46154688460446C3F180070FE03346BF
:1027A00041462046FFF79EFF04EB5600C4B2A74205
:1027B00004DA08EB0600022400F0FF086D1C2A78FA
:1027C000A2F120005E28EAD9BDE8F08173B50B4D77
:1027D0006C4609B1012200E0002220212846FEF7C4
:1027E000F3FBC823012221460548FFF74BF80122DD
:1027F00020212846FEF7E8FB7CBD000000100140C8
:1028000090070020FEB508AF97E87000044F4766B8
:10281000044F87668DE8700000F0F8FCFEBD0000F4
:102820000D32000825320008012000F00EFCFBE705
:102830000148FEF727BF00009007002010B5406A4E
:102840000021C187C186FEF71BFF10BD38B50B46BE
:10285000009204460022802100F008F8002804D0ED
:10286000606D40F020006065032038BD2DE9F8431D
:102870001E46914688460446089DFEF7ABFB401B6A
:10288000351AFEF7A7FB074625480068C0F3CB3092
:10289000684338E0701C37D0FEF79CFBC01BA84291
:1028A00003D215B1009860B32CE02068416821F094
:1028B000E00141606068B0F5827F0BD1A068B0F59F
:1028C000004F02D0B0F5806F04D12068016821F07C
:1028D00040010160A06AB0F5005F09D1206801687D
:1028E00021F4005101602068016841F40051016049
:1028F000012084F85100002084F850000320BDE836
:10290000F8830025401E00902068816838EA0100A5
:1029100004D000214945BDD10020F0E70121F9E7AD
:102920002000002001221A491A48FFF767FB012204
:1029300017491948FFF762FBFFF728FE0020FFF751
:10294000F5FD0020FFF7FEFDFFF7A6FE00210C239A
:1029500012A20846FFF71AFF0C2313A21946002003
:10296000FFF714FFFFF798FEFDF7A2FD1048FEF7F2
:102970002FF902210E48FDF7B4FD0EA000F008FA71
:10298000002001F0E1F90A2000F05FFBFBE7000006
:1029900012000020E80800203009002068656C6CF7
:1029A0006F20776F726C64007465737400000000B0
:1029B000680700204F4B0D0A0000000010B55020A2
:1029C00080F31188BFF34F8FBFF36F8F01F0EAFDE3
:1029D00018B104494FF080500860002080F311883E
:1029E00010BD000004ED00E030B58FB0282168462E
:1029F000FDF71FFC14210AA8FDF71BFC01210804A8
:102A0000CDE900100024029402250491CDE907507D
:102A10004FF4E01009906846FEF7A2FC08B172B6C8
:102A2000FEE70F20CDE90A054FF48060CDE90C40A8
:102A300002210AA80E94FEF797FB002801D072B677
:102A4000FEE70FB030BD70470148FFF73AB800000D
:102A500078090020F0B502681C4B1D4D1D4E1E4F1D
:102A60001E4C4FF0804C984209D0A04207D06045E0
:102A700005D0A84203D0B04201D0B84204D122F020
:102A8000700E4A6842EA0E02984209D0A04207D06E
:102A9000604505D0A84203D0B04201D0B84203D16E
:102AA00022F44075CA682A434D6922F080022A4305
:102AB00002608A68C2620A688262984201D0A042BB
:102AC00001D10969016301214161F0BD002C014080
:102AD0000004004000080040000C004000340140A9
:102AE00010B5406A0021C185C184FFF7ABF810BD65
:102AF00001680C3151E8002F22F4907241E8002364
:102B0000002BF5D10168143151E8002F22F00102A9
:102B100041E80023002BF5D1016B012909D101689F
:102B20000C3151E8002F22F0100241E80023002B65
:102B3000F5D1202180F8421000210163704708B5CB
:102B400090F84210222901D0022008BD82684FF47B
:102B500080539A4201D1016921B1816A9A421BD006
:102B60004AB10AE00268816A5268C2F308020A8028
:102B7000816A891C08E0026972B10268526802F039
:102B80007F020A70816A491C8162C18D491E090455
:102B9000090CC18503D01BE002685268F1E70168A7
:102BA000CA6822F02002CA600168CA6822F48072F2
:102BB000CA6001684A6922F001024A61202180F856
:102BC000421000214163026B012A03D0FFF724FA6F
:102BD000002008BD016301680C3151E8002F22F08C
:102BE000100241E80023002BF5D101680A68D206E3
:102BF00002D50A6849680091818DFFF722F8E7E75E
:102C000070B5044600680169E26821F4405111433F
:102C100001612169A0680843616908432168CA68A5
:102C200041F20C639A430243CA6020684169A26979
:102C300021F44071114341611E492068884202D14C
:102C4000FEF758FB01E0FEF745FB00EBC00101EB8E
:102C50000012606864218000B2FBF0F3B3FBF1F373
:102C60006FF018067343B2FBF0F5B2FBF0F605EB1C
:102C70008305322303EB0515B5FBF1F5B6FBF1F641
:102C800005F0F00505EB0615B2FBF0F6B2FBF0F02F
:102C9000B0FBF1F06FF01802504306EB800003EB3D
:102CA0000010B0FBF1F0216800F00F0028448860AC
:102CB00070BD00000038014081628285C28500211C
:102CC0004164222180F84210016921B10168CA687B
:102CD00042F48072CA6001684A6942F001024A61A6
:102CE0000068C16841F02001C160002070472DE9F3
:102CF000F041984617460E460446069D27E0681C9C
:102D000025D02DB1FEF766F9A0EB0800A8421ED928
:102D100020680C3050E8001F21F4D07140E8001208
:102D2000002AF5D12068143050E8001F21F001017D
:102D300040E80012002AF5D1202084F8410084F8F0
:102D40004200002084F840000320BDE8F0812068A4
:102D5000006836EA000004D00020B842CFD000203E
:102D6000F3E70120F9E700000148FEF771BF00001A
:102D7000E80800200148FEF76BBF00003009002082
:102D80000148FDF722BD000068070020FEE70000B3
:102D90000FB4054B10B503A9044A029800F028F8B7
:102DA00010BC5DF814FB00009D2F0008AC00002053
:102DB0000907090E002804DB00F1E02080F8001468
:102DC000704700F00F0000F1E02080F8141D7047FC
:102DD00002E008C8121F08C1002AFAD170477047E4
:102DE000002001E001C1121F002AFBD17047000042
:102DF0002DE9FF4F89B09B460446002506E02528B3
:102E00000BD05A460B999047641C6D1C2078002803
:102E1000F5D10DB02846BDE8F08F0027B846012255
:102E2000474900E0074314F8013F203B02FA03F052
:102E30000842F7D120782E2819D114F8010F47F055
:102E400004072A280ED06FF02F022078A0F130015D
:102E500009290CD808EB880102EB410100EB0108BD
:102E6000641CF2E70A98641C50F8048B0A902078DE
:102E70000028CED0642808D0692806D075281ED036
:102E80005A460B9990476D1C58E00A994FF00A0971
:102E900001C90A91002802DA40422D2102E03905D9
:102EA00004D52B218DF82010012103E0F90704D06F
:102EB0002021F7E78A4608AE0DE00021FAE70A99DB
:102EC0004FF00A0901C90A91F7E74946FDF78EFA62
:102ED000303106F8011D0028F7D1ADEB060000F1F6
:102EE0002009780701D44FF00108C84502DDA8EB9E
:102EF000090000E000208046002706E008A85A46A6
:102F0000C05D0B9990476D1C7F1C5745F6DB04E0B4
:102F100030205A460B9990476D1CB8F10001A8F17A
:102F20000108F5DC05E016F8010B5A460B999047AD
:102F30006D1CB9F10001A9F10109F4DC641C65E71D
:102F40000928010070B504460E4681F0004500686E
:102F5000FDF742FA00D2266028462168FDF73CFAC8
:102F600000D2256070BD000010B50446002108485D
:102F7000FDF7A0FB00280AD02346064A002104489A
:102F8000FDF7A9FB0348044A01885180007C10BD6D
:102F900068070020CC4800209800002013B54FF6A9
:102FA000FF73012269460248FFF7BEF800981CBD76
:102FB000E808002030B5134A0489448111886FF075
:102FC000040549BA018153885BBA43800380938822
:102FD0005BBA1BB293FBF5F38380927982710B1B72
:102FE0000269B3F5805F01DD521E03E013F5805FD7
:102FF00001DA521C026101EB42318289891A416176
:1030000030BD0000A40000200249098849BA0181AE
:1030100081817047A4000020FDF7EAFFFFF7E4FC80
:10302000FFF71EF9FFF7D0F8FFF776F9FFF790F9F1
:10303000FFF74EF9FFF7EAF800F00EF8FEE7014659
:103040000020842900D0C81C704710B500B90120A9
:1030500000F054FE002010BD10B500F00DFF002060
:1030600010BD7FB50D4604464169B0F9080081B135
:10307000A16971B1FFF7E3FFD4E905128DE80700FC
:10308000D4E900102B46226901F04DFA039004B0F8
:1030900070BDFFF7D4FF03A9CDE90001208A2B46BC
:1030A00082B2D4E9001001F011FA012801D0002009
:1030B000EDE70398EBE72DE9F04142610446016238
:1030C0001046FDF713F9E062216D4FF4000511F091
:1030D000FF4F06D0A84201DA80F00040FDF77CF9EE
:1030E0000BD3616D11F0FF4F0AD0E06AA84201DAFC
:1030F00080F00040FDF766F902D20020BDE8F081C3
:10310000A06D04F13405032802D0042830D06AE011
:10311000E66A20683146FDF7EFF8206331466068C3
:10312000FDF7EAF8616BFDF78FF860633046A16A3E
:10313000FDF7DCF8A168FDF7DFF8A063206EFDF76E
:1031400022F901462846FFF7FDFED4E90C01FDF700
:103150007BF8A16BFDF778F8E063E06DFDF713F9FC
:10316000014604F13C00FFF7EDFEE06B20643AE01D
:10317000D4E90A7639463046FDF7B8F82168FDF7FC
:10318000BBF8206331466068FDF7B6F86063012143
:103190003846FDF7E3F83146FDF7ABF8616AFDF715
:1031A00053F8A168FDF7A8F8A063206EFDF7EBF8CF
:1031B00001462846FFF7C6FED4E90C01FDF744F8A6
:1031C000A16BFDF741F801466064E06CFDF73CF847
:1031D000A064E06DFDF7D7F8014604F14800FFF761
:1031E000B1FEA06CE064A06A6062E06AA062E0697F
:1031F000A061206AE0612069E06060692061A06DE3
:10320000032801D0A06C79E7E06B77E770B50DF18A
:10321000100C9CE8700000F1580C8CE80E0080E85F
:10322000700070BD80E80E00704700002DE9F0418D
:10323000184C0F46054666692068001D00F02EFCFC
:1032400038B9206890F82C1001208840A16981438A
:10325000A161681C07D137B12168BDE8F0410E4873
:10326000091D00F06BBC20683544B54245602168FB
:1032700005D2A068BDE8F041091D00F047BC6068B8
:10328000091D00F043FC206B854200D22563BDE898
:10329000F081000024000020DC0A00202DE9F0412C
:1032A000054600F057FC2E4C2069401C2061206828
:1032B0002C4F10B1E06940B32DE025602069012852
:1032C00029D1002606EB860007EB800000F010FCF9
:1032D000761C072EF6D323488C3000F009FC2148D9
:1032E000A03000F005FC1F48B43000F001FC1D4880
:1032F000C83000F0FDFB1B48DC3000F0F9FB19483A
:103300008C3060601430A06005E02068E96AC06A13
:10331000884200D82560E06A401CE062E96A01202A
:10332000A26988401043A06101EB810007EB800097
:10333000291D00F003FC00F02DFCE06900280CD0F2
:103340002068E96AC06A884207D207494FF0805076
:103350000860BFF34F8FBFF36F8FBDE8F0810000AF
:1033600024000020000A002004ED00E038B500F041
:10337000F1FB104CA068C8B90F4800F0B9FB0E482B
:10338000143000F0B5FB0C482060143060600A4B2C
:1033900000202833009003F148020C210A2000F09D
:1033A00039FEA06010B105A100F072FCBDE8384004
:1033B00000F0F0BB60000020F00A0020546D725154
:1033C0000000000030B4026C0B46002A0BD0C1682C
:1033D0001144C1604468A14201D30168C16030BC9E
:1033E0001846FCF70DBF30BC70472DE9F041856BE6
:1033F000174604460026026C82B1C7B1E068FCF7AC
:10340000FFFEE168206C091AE1602268914202D255
:103410006168081AE060022F16D017E02068A8B98A
:10342000606801F023F90646002060600EE0A068A5
:10343000FCF7E6FE216CA0680844A0606168884241
:1034400004D32068A06001E005B16D1E6D1CA5636A
:103450003046BDE8F08110B5044690F8510058B1EF
:1034600001280CD002280FD0502080F31188BFF320
:103470004F8FBFF36F8FFEE7206B00F09FFB20465E
:10348000BDE8104000F09ABB10BD000010484FF49A
:103490007051420706D0C01D0D4920F00700411AA7
:1034A000C1F570510B4A00230144C2E900030839F9
:1034B000103A21F0070111604B600B600B1AC0E954
:1034C000001393604FF000405360D06070470000DD
:1034D000D80B002084000020144E154CA6F1C8071C
:1034E0004FF08058DFF84C9012E000BF00F032FB44
:1034F000F068C568281D00F0D1FA2069401E2061DF
:10350000E068401EE06000F045FB2846FFF7A3FF9F
:10351000E0680028EAD138680128F9D9C9F80080A4
:10352000BFF34F8FBFF36F8FF2E70000C80A002090
:103530002400002004ED00E00346009829B1026059
:10354000C0E90F31012100F099BD0060F8E72DE9D5
:10355000F0479A46DDE9098481466FF00303206B4A
:1035600003EB82021044089D20F00706700707D085
:10357000502080F31188BFF34F8FBFF36F8FFEE7AA
:1035800023180A5C83F834200A5C12B1401C10280E
:10359000F6D3002784F84370072D00D30625E56293
:1035A000C4E91157201D00F0AEFA04F1180000F034
:1035B000AAFA2461C5F107006462A061E76484F897
:1035C000507052464946304600F032FA2060B8F159
:1035D000000F01D0C8F80040BDE8F08730B51149B0
:1035E00000E011460A688242FBD34B685C188442B3
:1035F00003D1406818444860084643681C18944248
:1036000009D1084C103C2468A24209D052681A44DF
:1036100042600A6812680260814200D0086030BDD2
:103620000460F9E78400002070B5002441600B4D70
:103630000061914206D8D11A8269914206D2011DD9
:10364000686807E09A4203D2994201D3012403E05B
:10365000011D286800F05AFA204670BD6000002065
:1036600010B5044600F076FAA06B28B15FF00004B4
:1036700000F090FA204610BD0124F9E730B587B07C
:103680002C4D4EE0049800284BDB069C606910B17D
:10369000201D00F003FA02A800F0B8F802460498D2
:1036A0000A283ED2DFE800F00505053D263705056E
:1036B0003D260598A169034601442046FFF7B4FF63
:1036C00000B3616A20468847E069012829D10020BB
:1036D00000900598A169002342181946204601F080
:1036E000DDF878B9502080F31188BFF34F8FBFF316
:1036F0006F8FFEE70598A06128B181181346204618
:10370000FFF792FF0DE0502080F31188BFF34F8F39
:10371000BFF36F8FFEE794F8280010B9204600F041
:103720004DFA002204A9A86800F0FAFD0028A9D1EA
:1037300007B030BD600000202DE9FC410F46054672
:1037400000F0DEFB01A800F061F80446019818B112
:1037500001F012F8BDE8FC81224EAFB1706800683C
:10376000A8B30027291B3A46B06800F0A5FA01F07B
:1037700003F80028EED11C494FF080500860BFF3D9
:103780004F8FBFF36F8FE5E7A542EBD800F0F4FF52
:1037900030682746C068C468201D00F07FF9E069E2
:1037A000012810D1A0692B4641193A462046FFF75F
:1037B0003BFF40B100200346014600902A462046C8
:1037C00001F06CF820B1616A20468847C2E707E043
:1037D000502080F31188BFF34F8FBFF36F8FFEE748
:1037E0000127BFE76000002004ED00E006484168C3
:1037F000096829B14168C968C968496801637047A7
:103800004FF0FF31FAE700002400002070B50546B4
:1038100000F0C2FE064E04463069844203D200F036
:1038200009F8012000E0002028602046346170BDC6
:1038300060000020F8B5194D1FE0C068C468066834
:10384000201D00F02BF9616A20468847E0690128B5
:1038500013D1A0693044B04206D924616060211DB3
:10386000286800F053F908E0002003460146009064
:103870003246204601F012F838B128680168002964
:10388000DBD16968C5E90010F8BD502080F31188CC
:10389000BFF34F8FBFF36F8FFEE700006000002083
:1038A00008484068401C4FF0500080F3118804D055
:1038B000BFF34F8FBFF36F8FFEE7BFF34F8FBFF3A1
:1038C0006F8FFEE78C000020074C2068016841B133
:1038D000C0680021D0F80000FFF72EFFFFF7CEFEF2
:1038E000F3E701210020F7E7600000202DE9F04117
:1038F000044600F02FF994F9455004F1240609E03C
:10390000606A48B1304600F0FDFE08B100F07AFA76
:103910006D1E6DB2002DF3DC4FF0FF3684F845606C
:1039200000F038F900F016F994F9445004F110074A
:1039300009E0206948B1384600F0E4FE08B100F023
:1039400061FA6D1E6DB2002DF3DC84F84460BDE8B1
:10395000F04100F01FB900002DE9F04105460027B5
:1039600000F0CEFA314E306808B9FFF78FFDF068ED
:1039700005424BD1C5B3083568070ED005F00700E6
:10398000C0F108000544680707D0502080F3118873
:10399000BFF34F8FBFF36F8FFEE72DB37068854283
:1039A00034D82248103001460C6801E020460C460D
:1039B0006168A94202D221680029F7D131688C429E
:1039C00024D007682168016060680837411B10290E
:1039D0000FD96019420708D0502080F31188BFF337
:1039E0004F8FBFF36F8FFEE710E041606560FFF718
:1039F000F5FD61687068401A7060B268904200D24C
:103A0000B060F06801430020C4E9000100F0B4FE9A
:103A1000780707D0502080F31188BFF34F8FBFF392
:103A20006F8FFEE73846BDE8F0810000740000208B
:103A300010B5031F4FF080741C601B1F21F00101A3
:103A40001960191F024B0B60143940380A6010BD11
:103A5000A1380008F8B5012400940E4C069D0826F4
:103A600026610026A660E6604FF4007626600A4CC8
:103A70000E0A26706170110AA170E270190A217194
:103A80006371290AA171E5716B4622460149FCF771
:103A90003AFDF8BDB44800209C000020D0E9013276
:103AA00001699A60D0E901235A604A68824201D1D3
:103AB00082684A60002202610868401E0860086847
:103AC00070470000034B036003F15400086080203E
:103AD00010607047C0000020044B036003F15400E5
:103AE00008604FF4807010607047000014030020DD
:103AF00000F108014FF0FF32C0E90112C16001611D
:103B000000210160704700210161704730B50B68EA
:103B10005A1C02D000F1080202E0026904E02246C9
:103B2000546825689D42FAD953684B6099608A6051
:103B3000516008610168491C016030BD42684A60FB
:103B400093688B6093685960916008610168491CB3
:103B500001607047502080F31188BFF34F8FBFF38F
:103B60006F8F0A494868401C486001280CD10848FA
:103B7000006810F0FF0F07D0502080F31188BFF3CA
:103B80004F8FBFF36F8FFEE7704700008C0000205F
:103B900004ED00E00849486828B1401E486001D1A2
:103BA00080F311887047502080F31188BFF34F8F46
:103BB000BFF36F8FFEE700008C00002070B5002877
:103BC00027D0144DA0F108046168E868014207D1CC
:103BD000502080F31188BFF34F8FBFF36F8FFEE744
:103BE00022683AB1502080F31188BFF34F8FBFF3A2
:103BF0006F8FFEE78143616000F082F96068696859
:103C0000084468602046FFF7E9FCBDE8704000F01A
:103C1000B3BD70BD740000204FF0E02000210161B1
:103C2000816105494FF47A720968B1FBF2F1491ECE
:103C300041610721016170472000002010B5FCF7A9
:103C4000C9FA114910280ED300F1E02090F8F003D2
:103C50000A78904207D2502080F31188BFF34F8F2B
:103C6000BFF36F8FFEE709480068896800F4E060E1
:103C7000884207D9502080F31188BFF34F8FBFF3DC
:103C80006F8FFEE710BD00008C0000200CED00E0FF
:103C900010B5084B002200BF53F832401CB1521C33
:103CA000082AF9D310BD43F8321003EBC201486073
:103CB00010BD0000C009002070B515460E46044630
:103CC000FFF748FF94F944100020491C01D184F803
:103CD000440094F94510491C01D184F84500FFF7D0
:103CE00059FFA06B28B92A46314604F1240000F0A0
:103CF000A7F82046BDE87040FFF7F8BD10B50200F8
:103D000014D00F48806B38B1502080F31188BFF376
:103D10004F8FBFF36F8FFEE700F0F2F800211046DF
:103D2000FFF784FA00F028FD002807D105494FF07D
:103D300080500860BFF34F8FBFF36F8F10BD00003E
:103D40002400002004ED00E070B50546FFF702FFF7
:103D5000254C05B92568281DFFF7A0FE58B9E86A6B
:103D6000224A00EB800152F8211021B90121814043
:103D7000A0698843A061A86A18B105F11800FFF78F
:103D80008DFEE06A401CE0622068854208D1174839
:103D9000291DC830FFF7D2FEE068401CE06007E054
:103DA0002069401E20612846FFF755FBFFF71EFDE6
:103DB000FFF7F0FEE069002814D02068854211D199
:103DC000A06B38B1502080F31188BFF34F8FBFF341
:103DD0006F8FFEE706494FF080500860BFF34F8FAA
:103DE000BFF36F8F70BD000024000020000A002088
:103DF00004ED00E002498A6A026049694160704747
:103E0000240000200149012048627047240000205E
:103E100010B50C4650B1094909681831FFF776FE14
:103E20002046BDE810400121FFF700BA502080F382
:103E30001188BFF34F8FBFF36F8FFEE72400002080
:103E400070B514460D4668B10A4909681831FFF784
:103E500075FE0CB14FF0FF3521462846BDE8704095
:103E6000FFF7E4B9502080F31188BFF34F8FBFF301
:103E70006F8FFEE72400002030B587B00024039444
:103E800005AA04A903A80494FFF71CFEDDE90301B9
:103E90000094CDE90110002315A11748059A00F000
:103EA00042FB164D002868631FD000F0C7FC0128B4
:103EB00009D0401C19D1502080F31188BFF34F8FD7
:103EC000BFF36F8FFEE7502080F31188BFF34F8F51
:103ED000BFF36F8F4FF0FF3028630120E8616C6102
:103EE00007B0BDE8304000F041B807B030BD000079
:103EF00049444C4500000000D9340008240000204B
:103F00000248816B491C8163704700002400002037
:103F10001448816B11B10121416270470021416257
:103F20008169B1FA81F1C1F11F0101EB81020E49F2
:103F300051F822306BB101EB820101F108034A68AC
:103F400052684A609A4201D152684A60D168016061
:103F50007047502080F31188BFF34F8FBFF36F8FEE
:103F6000FEE7000024000020000A00201CB52649BE
:103F700008780190FF20087008788DF800009DF8FF
:103F800000009DF8002000F0F000904207D0502083
:103F900080F31188BFF34F8FBFF36F8FFEE79DF85B
:103FA00000001A4B00F0500018700720986005E0E0
:103FB0009DF8002052008DF80020401E9DF8002042
:103FC0001206F5D49860032807D0502080F311889A
:103FD000BFF34F8FBFF36F8FFEE74FF440709860D1
:103FE000019808700A48016841F470010160016895
:103FF00041F070410160FFF70FFE00205860FCF7B0
:10400000B3F800201CBD000000E400E08C0000209C
:1040100020ED00E038B5049D18B153B1CAB181B1AB
:1040200020E0502080F31188BFF34F8FBFF36F8FD4
:10403000FEE7502080F31188BFF34F8FBFF36F8FDF
:10404000FEE7502080F31188BFF34F8FBFF36F8FCF
:10405000FEE739B1502080F31188BFF34F8FBFF3D3
:104060006F8FFEE748241C46012384F846302B4618
:104070000094FFF761FA204638BD000070B50D4688
:10408000040025D0FFF766FDD4E90F20216802FB6C
:10409000001161600021A1632168A1600A46D4E992
:1040A0000F01401E00FB0121E16021464FF0FF306F
:1040B00001F8440F487004F110008DB1FFF718FDAE
:1040C00004F12400FFF714FDFFF764FD012070BD2B
:1040D000502080F31188BFF34F8FBFF36F8FFEE73F
:1040E00021690029F0D000F00DFB0028ECD0044934
:1040F0004FF080500860BFF34F8FBFF36F8FE3E73F
:1041000004ED00E02DE9FF4782B01D468A464FF0DE
:104110000008040003D0BAF1000F08D011E05020CD
:1041200080F31188BFF34F8FBFF36F8FFEE7206CD2
:1041300038B1502080F31188BFF34F8FBFF36F8FDA
:10414000FEE7022D0AD1E06B012807D0502080F352
:104150001188BFF34F8FBFF36F8FFEE700F00EFAA9
:104160003F4F4FF000094FF0805648B9049838B1DE
:10417000502080F31188BFF34F8FBFF36F8FFEE79E
:10418000FFF7E8FCA06BE16B884207D3022D05D056
:104190000498D0B1B8F1000F1AD01EE02A4651465B
:1041A0002046FFF722F9616A19B104F1240000F0FA
:1041B000A9FA20B13E60BFF34F8FBFF36F8FFFF7B7
:1041C000E9FC012006B0BDE8F087FFF7E3FC22E040
:1041D0006846FFF70FFE4FF00108FFF7DBFCFFF723
:1041E0008FFEFFF7B7FC94F94400401C01D184F81E
:1041F000449094F94500401C01D184F84590FFF7A4
:10420000C9FC04A9684600F027F930B12046FFF741
:104210006DFB00F0B1FA0020D4E7FFF79BFCA06B28
:10422000E16B884213D1FFF7B5FC04F1100004994B
:10423000FFF7EEFD2046FFF759FB00F09DFA00283E
:104240009ED13E60BFF34F8FBFF36F8F98E7FFF7AC
:10425000A1FC2046FFF74AFB00F08EFA90E7000031
:1042600004ED00E02DE9F0471F4690468946040022
:1042700003D0B9F1000F08D011E0502080F311886D
:10428000BFF34F8FBFF36F8FFEE7206C38B1502024
:1042900080F31188BFF34F8FBFF36F8FFEE7022FBC
:1042A0000AD1E06B012807D0502080F31188BFF3BA
:1042B0004F8FBFF36F8FFEE7FFF7C0FC5020EFF387
:1042C000118680F31188BFF34F8FBFF36F8FA06B00
:1042D000E16B884206D3022F04D0002086F31188B8
:1042E000BDE8F08794F945503A4649462046FFF725
:1042F0007CF8681C04D06D1C84F845500120EDE763
:10430000606A0028FAD004F1240000F0FBF90028CC
:10431000F4D0B8F1000FF1D00121C8F80010EDE79A
:104320002DE9F747002683B08A46040003D0BAF18E
:10433000000F08D011E0502080F31188BFF34F8F99
:10434000BFF36F8FFEE7206C38B1502080F31188E7
:10435000BFF34F8FBFF36F8FFEE700F00FF9DFF869
:10436000F4804FF000094FF0805748B9059838B1F4
:10437000502080F31188BFF34F8FBFF36F8FFEE79C
:10438000FFF7E8FBA56BC5B151462046FFF71AF8C9
:104390006D1EA563206950B104F1100000F0B2F960
:1043A00028B1C8F80070BFF34F8FBFF36F8FFFF7CE
:1043B000F1FB012006B0BDE8F087059808B11EB1F9
:1043C00006E0FFF7E7FB27E06846FFF713FD01264D
:1043D000FFF7E0FBFFF794FDFFF7BCFB94F9440007
:1043E000401C01D184F8449094F94500401C01D14F
:1043F00084F84590FFF7CEFB05A9684600F02CF83D
:10440000002820460AD0FFF771FA00F0B5F92046DF
:10441000FFF726F90028B3D00020CBE7FFF720F9FB
:1044200090B104F124000599FFF7F2FC2046FFF754
:104430005DFA00F0A1F90028A2D1C8F80070BFF31E
:104440004F8FBFF36F8F9BE72046FFF74FFA00F0C7
:1044500093F995E704ED00E02DE9F0410C460500E5
:1044600011D0C4B1FFF776FB174B5A696E6820680C
:10447000911B471C17D02F689B6A9F4219D0964208
:1044800017D8012410E0502080F31188BFF34F8F1C
:10449000BFF36F8FFEE7502080F31188BFF34F8F7B
:1044A000BFF36F8FFEE70024FFF774FB2046BDE8E3
:1044B000F081884205D9401A20602846FFF79AFC0F
:1044C000F1E700202060DCE7240000202DE9FF5FF9
:1044D0008346DDE90E87994616468A469000FFF727
:1044E0003BFA05001CD05420FFF736FA040014D024
:1044F0000020256384F85100CDE90240CDE9008712
:104500004B46324651465846FFF721F82046FEF703
:10451000C5FE012004B0BDE8F09F2846FFF74EFB22
:104520004FF0FF30F6E7F0B585B0DDE90B640A9D8A
:10453000A6B1DCB1542700972663022684F85160A7
:10454000002604AFCDE90246CDE90057FEF7FFFF94
:104550002046FEF7A3FE049805B0F0BD502080F37E
:104560001188BFF34F8FBFF36F8FFEE7502080F3AA
:104570001188BFF34F8FBFF36F8FFEE70548C16906
:1045800019B1806B18B100207047012070470220DC
:104590007047000024000020014840697047000077
:1045A000240000202DE9F0412E4C0027A06B40B1E3
:1045B000206A401C2062606A00B101273846BDE8CD
:1045C000F0816669761C666113D16068006838B155
:1045D000502080F31188BFF34F8FBFF36F8FFEE73A
:1045E0006068A1686160A060A06A401CA062FFF7DB
:1045F000FDF8206BDFF87080864209D360680068A0
:1046000080B16068C068C568686886420DD2206362
:104610002068C06A00EB800158F821000128CAD93F
:104620000127C8E74FF0FF30F1E7281DFFF736FA02
:10463000A86A18B105F11800FFF730FAE86A0121FD
:10464000A26981401143A16100EB800108EB810068
:10465000291DFFF773FAE86A2168C96A8842CDD339
:104660000127CBE724000020000A002070B50400D9
:104670004FF0000140D0214D2868844207D05020DF
:1046800080F31188BFF34F8FBFF36F8FFEE7A06CED
:1046900038B1401EA064636CE26A9A422CD040B1EB
:1046A0002AE0502080F31188BFF34F8FBFF36F8F44
:1046B000FEE7201DFFF7F2F9114A012150B9E06A27
:1046C00000EB800352F8233023B9AB6901FA00F004
:1046D0008343AB61606CE062C0F10700A061E06AF7
:1046E000AB6981401943A96100EB800002EB8000B7
:1046F000211DFFF723FA0121084670BD2400002088
:10470000000A00202DE9F041C068C468ACB104F192
:1047100018000746FFF7C2F9154DA86B0126A0B196
:1047200039461448FFF70AFAE06A2968C96A8842DC
:104730001CD901206E62BDE8F081502080F3118801
:10474000BFF34F8FBFF36F8FFEE7201DFFF7A6F972
:10475000E16AAA6906FA01F01043A86101EB810041
:104760000449B43901EB8000211DDBE70020E2E7BA
:1047700024000020B40A00202DE9F0472C4D00242D
:104780002746A86B38B1FFF7E5F9A86B401EA86370
:10479000A86B40B146E0502080F31188BFF34F8FE3
:1047A000BFF36F8FFEE72969224E0120D1B3A6F136
:1047B000B40980463068E8B1F068C46804F11800B4
:1047C000FFF76CF9201DFFF769F9E06AAA6908FA9A
:1047D00000F11143A96100EB800109EB8100211D6B
:1047E000FFF7ACF9E06A2968C96A8842E2D3C5F8E4
:1047F0002480DFE70CB1FEF7F9FF2C6A44B146468E
:10480000FFF7D0FE00B16E62641EF9D1002028626D
:10481000686A38B10849012738070860BFF34F8F2D
:10482000BFF36F8FFFF7B6F93846BDE8F087000099
:1048300024000020B40A002004ED00E010B586B08A
:10484000FEF794FD114CA068B8B1002003900490CD
:1048500005AA04A903A8FFF73FF9DDE90321022017
:104860008DE8070000230AA10B48059AFFF75BFEBD
:10487000E06010B106B0012010BD502080F3118817
:10488000BFF34F8FBFF36F8FFEE700006000002083
:10489000546D722053766300C9380008FEB51E4679
:1048A00013460200089D4FF0000014D0124CA76878
:1048B000002F0FD0CDE900130292062915DAFFF779
:1048C0005DFE02284FF000030DD000226946A0686B
:1048D000FFF718FCFEBD502080F31188BFF34F8F07
:1048E000BFF36F8FFEE72A46F0E7002332466946A2
:1048F0003846FFF7B7FCFEBD6000002044610008A9
:1049000025290008020000000000000080000000CF
:1049100000000000000000003C6100088D2300083A
:104920000000000000000000800000000000000007
:104930000000000050610008292800080100000064
:1049400000000000800000000000000000000000E7
:10495000010202030405060708090A0B0C0D0E0FDD
:104960001010000000000000000001020304060710
:10497000080900000000010203040000000000001C
:10498000000000000000000000003F4000000000A8
:10499000000000003000400030004000000009002E
:1049A0000BC03D000BC03D00090018C024407FE053
:1049B000224031800000180024C01B000D803240CE
:1049C000018003801C4027401C80074000401000ED
:1049D0006000000000000000000000000000000077
:1049E0001F80204040200000402020401F80000009
:1049F0000000090006001F800600090000000400F6
:104A000004003F800400040000000010006000006B
:104A10000000000000000400040004000400040082
:104A20000000000000400000000000000000002026
:104A300001C006003800400000001F8020402040D8
:104A400020401F800000000010403FC000400000D8
:104A5000000018C02140224024401840000010806F
:104A60002040244024401B80000002000D00110063
:104A70003FC0014000003C8024402440244023806B
:104A800000001F8024402440344003800000300098
:104A9000200027C03800200000001B802440244054
:104AA00024401B8000001C0022C0224022401F80A6
:104AB00000000000000008400000000000000000AE
:104AC00000000460000000000000000004000A0074
:104AD0001100208040400900090009000900090078
:104AE000000000004040208011000A00040018006F
:104AF000200023402400180000001F802040274091
:104B000029401F400000004007C039000F0001C0CD
:104B1000004020403FC0244024401B8000001F80F4
:104B20002040204020403080000020403FC02040F6
:104B300020401F80000020403FC024402E4030C055
:104B4000000020403FC024402E00300000000F0035
:104B50001080204022403380020020403FC00400EB
:104B600004003FC02040204020403FC02040204063
:104B700000000060202020203FC0200020002040B6
:104B80003FC024400B0030C0204020403FC02040A8
:104B90000040004000C03FC03C0003C03C003FC09C
:104BA000000020403FC00C4023003FC020001F8079
:104BB0002040204020401F80000020403FC0244073
:104BC0002400180000001F802140214020E01FA089
:104BD000000020403FC02440260019C0004018C0FB
:104BE00024402440224031800000300020403FC05B
:104BF00020403000000020003F80004000403F8007
:104C0000200020003E0001C00700380020003800CE
:104C100007C03C0007C038000000204039C0060033
:104C200039C0204000002000384007C03840200034
:104C30000000304021C02640384020C00000000065
:104C400000007FE0402040200000000070000C00C9
:104C50000380004000000000402040207FE0000072
:104C600000000000200040002000000000000010B4
:104C700000100010001000100010000000004000A4
:104C8000000000000000000002800540054003C055
:104C9000004020003FC004400440038000000000AA
:104CA00003800440044006400000000003800440EC
:104CB00024403FC000400000038005400540034001
:104CC0000000000004401FC02440244020000000D9
:104CD00002E0055005500650042020403FC004402B
:104CE000040003C000400000044027C00040000052
:104CF000000000100010041027E000000000204019
:104D00003FC00140070004C00440204020403FC095
:104D100000400040000007C0040007C0040003C0BA
:104D20000000044007C00440040003C0004000002D
:104D300003800440044003800000041007F0045086
:104D4000044003800000000003800440045007F08A
:104D50000010044007C002400400040000000000EE
:104D600006400540054004C00000000004001F800C
:104D7000044000400000040007800040044007C0D9
:104D800000400400070004C0018006000400060083
:104D900001C0070001C006000000044006C0010079
:104DA00006C0044000000410071004E00180060063
:104DB00004000000044005C006400440000000005C
:104DC000000004007BE04020000000000000000024
:104DD000FFF000000000000040207BE00400000025
:104DE0000000400080004000200020004000000043
:104DF00000000000000000000000000000000000B3
:104E0000000000001FCC000C0000000000000000AB
:104E10000800300060000800300060000000022040
:104E200003FC1E20022003FC1E20022000000000C4
:104E30000E1811043FFF10840C78000000000F00D2
:104E400010840F3800C007781884007800000078BC
:104E50000F8410C411240E9800E400840008080098
:104E6000680070000000000000000000000000006A
:104E70000000000007E018182004400200000000B5
:104E800040022004181807E0000000000000024063
:104E9000024001800FF001800240024000000080CB
:104EA000008000800FF8008000800080000000017A
:104EB000000D000E000000000000000000000000D7
:104EC0000080008000800080008000800080000062
:104ED000000C000C000000000000000000000000BA
:104EE0000006001800600180060018002000000085
:104EF00007F0080810041004080807F0000000007C
:104F0000080408041FFC0004000400000000000066
:104F10000E0C10141024104411840E0C000000001C
:104F20000C1810041104110412880C700000000009
:104F300000E00320042408241FFC002400000000DB
:104F40001F981084110411041088107000000000D4
:104F500007F0088811041104188800700000000090
:104F60001C00100010FC13001C00100000000000CA
:104F70000E3811441084108411440E3800000000D3
:104F80000700088C10441044088807F00000000057
:104F900000000000030C030C0000000000000000F3
:104FA00000000001010600000000000000000000F9
:104FB00000800140022004100808100400000220B4
:104FC0000220022002200220022002200000000015
:104FD00010040808041002200140008000000000B6
:104FE0000E001200100C106C10800F00000003E087
:104FF0000C1813E4142417C4082807D00000000478
:10500000003C03C41C40074000E4001C00041004E2
:105010001FFC1104110411040E880070000003E04D
:105020000C1810041004100410081C1000001004C8
:105030001FFC100410041004080807F000001004FE
:105040001FFC1104110417C41004081800001004F8
:105050001FFC1104110017C010000800000003E03D
:105060000C181004100410441C78004000001004B8
:105070001FFC10840080008010841FFC10040000BE
:10508000100410041FFC10041004000000000003B2
:105090000001100110011FFE10001000000010049C
:1050A0001FFC110403801464181C10040000100479
:1050B0001FFC1004000400040004000C0000100495
:1050C0001FFC1F0000FC1F001FFC10040000100448
:1050D0001FFC0C04030000E010181FFC100007F078
:1050E0000808100410041004080807F00000100459
:1050F0001FFC10841080108010800F00000007F04B
:10510000081810241024101C080A07F200001004CC
:105110001FFC1104110011C011300E0C000400001E
:105120000E1C11041084108410441C380000180058
:10513000100010041FFC10041000180000001000E4
:105140001FF810040004000410041FF810001000E1
:105150001E0011E0001C007013801C0010001FC016
:10516000103C00E01F0000E0103C1FC000001004D5
:10517000180C163401C001C01634180C10041000AD
:105180001C00130400FC13041C00100000000804A1
:10519000101C1064108413041C041018000000007C
:1051A000000000007FFE40024002400200000000BC
:1051B00030000C0003800060001C000300000000B1
:1051C0004002400240027FFE00000000000000009C
:1051D00000002000400040004000200000000001CE
:1051E00000010001000100010001000100010000B8
:1051F000400040002000000000000000000000000F
:105200000098012401440144014400FC0004100002
:105210001FFC0088010401040088007000000000E9
:1052200000700088010401040104008800000000EF
:10523000007000880104010411081FFC0004000034
:1052400000F8014401440144014400C8000000008A
:10525000010401040FFC11041104110018000000E6
:1052600000D601290129012901C901060000100405
:105270001FFC008401000100010400FC0004000088
:105280000104190419FC00040004000000000000DF
:10529000000300010101190119FE000000001004C3
:1052A0001FFC0024004001B4010C010400000000B8
:1052B000100410041FFC000400040000000001049E
:1052C00001FC0104010001FC0104010000FC0104D7
:1052D00001FC008401000100010400FC0004000046
:1052E00000F8010401040104010400F800000101B8
:1052F00001FF008501040104008800700000000027
:105300000070008801040104010501FF000101048F
:10531000010401FC00840104010001800000000080
:1053200000CC012401240124012401980000000084
:105330000100010007F80104010400000000010061
:1053400001F8000400040004010801FC000401004D
:1053500001800170000C001001600180010001F06B
:10536000010C003001C00030010C01F00100000010
:105370000104018C00740170018C01040000010122
:1053800001810171000E0018016001800100000020
:105390000184010C013401440184010C000000006F
:1053A00000000000000001003EFC4002400200003E
:1053B000000000000000FFFF0000000000000000EF
:1053C000400240023EFC010000000000000000001E
:1053D00060008000800040004000200020000000AD
:1053E00000000000000000000000000000000000BD
:1053F00000000000000000000000000000000000AD
:10540000000000000000000000000000000000009C
:10541000000F80380FFE380F8038000000000000B9
:105420000000000000000000000000000100000675
:1054300000000C00003800003100000600000C00E5
:105440000038000030000000000000000000618013
:105450000067F807F98000618000618000618000CA
:1054600061800067F807F98000618000000000009B
:105470000000000001C0E003E0F006300804180856
:105480001FFFFE040E080787F00381E00000000004
:10549000000001F000060C00040408060C7001F97D
:1054A000C0000E00003BE000EC18070808040C18D0
:1054B0000003E00000000001E00007F003F818041A
:1054C0001C0804170807E1D003C0E00023B0003C2B
:1054D000080020080000100000000000000100008B
:1054E0003100003200001C0000000000000000003D
:1054F00000000000000000000000000000000000AC
:1055000000000000000000000000000000007F001C
:1055100001FFC00780F00C001810000420000200FA
:1055200000000000002000021000040C001807809A
:10553000F001FFC0007F000000000000000000003C
:1055400000000000000000000000420000660000B3
:105550006600003C0000180003FFC0001800003C7B
:105560000000660000660000420000000000080025
:1055700000080000080000080000080001FFC0004B
:1055800008000008000008000008000008000000F3
:105590000000000100003100003200001C0000008B
:1055A00000000000000000000000000000000000FB
:1055B00000000000000008000008000008000008CB
:1055C00000000800000800000800000800000800B3
:1055D000000800000000000000000000000038008B
:1055E000003800003800000000000000000000004B
:1055F00000000000000000000000000000000006A5
:1056000000001C000070000180000E000038000047
:10561000C0000700001C0000300000000000000077
:1056200000007F8001FFE00380700600180400087E
:1056300004000806001803807001FFE0007F80006E
:105640000000000000000000010008010008010047
:105650000803FFF807FFF800000800000800000832
:1056600000000000000000000001C03802C0580423
:105670000098040118040218040418061C1803F802
:105680001801E0F800000000000000000001C0E088
:1056900003C0F004000804080804080806180803FA
:1056A000F41801E7F00001E0000000000000000035
:1056B00000000300000D00001100006100008108DF
:1056C00003010807FFF80FFFF800010800010800B8
:1056D00000000000000000E007FCD00608080610EB
:1056E00008061008061008061838060FF00607C04E
:1056F000000000000000000000003F8001FFE00308
:105700008430020818041008041008041008071850
:1057100010030FF00007C0000000000000000000B0
:1057200003C0000700000600000600F80607F806A0
:10573000180006E00007000006000000000000005E
:105740000001E1E003F7F00634100418080418081B
:10575000040C08040C0806161803F3F001C1E0005D
:10576000000000000000F80003FC300306380402CB
:10577000080402080402080404100308F001FFC032
:10578000007F00000000000000000000000000009A
:105790000000000000007038007038007038000011
:1057A00000000000000000000000000000000000F9
:1057B00000000000000000000000301A00301C0053
:1057C00000000000000000000000000000000000D9
:1057D000000000000008000014000022000041004A
:1057E0000080800100400200200400100800080032
:1057F0000000000000002100002100002100002125
:1058000000002100002100002100002100002100F3
:105810000021000000000000000000000800080453
:1058200000100200200100400080800041000022A2
:105830000000140000080000000000000003C00089
:1058400004C000040000080038080F3808083808B1
:1058500010000C300007E00003C000000000000052
:1058600000003F8000FFE0038070020F1006708888
:1058700004C088048308047F8802C09003012000CC
:10588000FE400000080000180001F8003E0801C2B8
:105890000007020007E20000FE00001FC80001F838
:1058A00000003800000804000807FFF807FFF804AC
:1058B000080804080804080804080806180803F47F
:1058C0001801E7F00001E0000000000000003F8048
:1058D00001FFE003807002001804000804000804BF
:1058E00000080400100600200780C000000004002B
:1058F0000807FFF807FFF804000804000804000880
:1059000004001802001003807001FFE0007F800097
:10591000000004000807FFF807FFF804080804085F
:1059200008040808040808043E08040008060018D3
:1059300001006000000004000807FFF807FFF804FA
:105940000808040800040800040800043E000600DB
:1059500000060000018000000000000000003F8001
:1059600001FFE00380700600180400080402080428
:1059700002080203F00783F00002000002000400A6
:105980000807FFF807FFF8040808000800000800EF
:1059900000080000080004080807FFF807FFF804E3
:1059A00000080000000000000400080400080400D3
:1059B0000807FFF807FFF8040008040008040008BF
:1059C00000000000000000000000000600000700CA
:1059D000000104000104000104000307FFFE07FFAB
:1059E000FC04000004000004000004000807FFF8A5
:1059F00007FFF8040C08001800003E0004C78005EB
:105A000003C80600F8040038040018000008040069
:105A10000807FFF807FFF804000800000800000866
:105A200000000800000800000800001800006000E6
:105A3000000004000807FFF807800807FC00007F4B
:105A4000C00003F80007C000780007800807FFF8CF
:105A500007FFF804000804000807FFF80700080320
:105A6000C00000E000003800001E00000700000138
:105A7000C00400F007FFF8040000000000007F8071
:105A800001FFE00380700600180400080400080607
:105A9000001803003001FFE0007F800000000400D8
:105AA0000807FFF807FFF8040408040400040400D2
:105AB000040400040400060C0003F80001F00000D8
:105AC0000000000000007F8001FFE00380700600FE
:105AD000880400880400C806003C03003E01FFE67D
