:020000040800F2
:1000000060540020DD010008692A0008112700085B
:1000100001290008C9090008053700080000000090
:100020000000000000000000000000004501000882
:10003000F9090008000000008901000835330008B4
:10004000F7010008F7010008F7010008F7010008B0
:10005000F7010008F7010008F7010008F7010008A0
:10006000F7010008F7010008F7010008F701000890
:10007000F7010008F7010008F7010008F701000880
:10008000F7010008F7010008F7010008F701000870
:10009000F9360008F7010008F7010008F701000829
:1000A000F7010008C1330008F7010008F701000854
:1000B000F7010008F7010008F7010008F701000840
:1000C000F7010008F7010008F7010008152E0008E5
:1000D000F7010008E1360008F7010008ED360008D6
:1000E000F7010008F7010008F7010008F701000810
:1000F000F7010008F7010008F7010008F701000800
:10010000F7010008F7010008F7010008F7010008EF
:10011000F7010008F7010008F7010008F7010008DF
:10012000F7010008F7010008F7010008F7010008CF
:10013000DFF80CD000F036FC0048004721410008F1
:1001400060540020224B19680868B0E8F00F80F373
:100150000988BFF36F8F4FF0000080F311884EF0D5
:100160000D0E70470000000006480068006880F32C
:10017000088862B661B6BFF34F8FBFF36F8F00DFA1
:1001800000BF00BF08ED00E0EFF30980BFF36F8F01
:100190000F4B1A6820E9F00F106008B54FF05000BF
:1001A00080F31188BFF34F8FBFF36F8F04F0DEFE33
:1001B0004FF0000080F31188BDE808401968086816
:1001C000B0E8F00F80F30988BFF36F8F704700BF6E
:1001D0006C000020EFF30580704700000648804760
:1001E00006480047FEE7FEE7FEE7FEE7FEE7FEE71C
:1001F000FEE7FEE7FEE7FEE7BF3300083101000837
:10020000202A04DB203A21FA02F00021704721FA6B
:1002100002F3D040C2F120029140084319467047D2
:1002200040EA01039B0703D009E008C9121F08C078
:10023000042AFAD203E011F8013B00F8013B521EF8
:10024000F9D27047D2B201E000F8012B491EFBD26F
:1002500070470022F6E710B513460A4604461946D1
:10026000FFF7F0FF204610BDF0B480EA0102D40F82
:100270004200B2EB410F02D20246084611464A0044
:1002800042D0C30DDDB2C1F3C752AD1A202D35DA0D
:10029000C1F3160141F4000204B15242C5F1200637
:1002A00002FA06F12A411044B3EBD05F23D0C4B167
:1002B000012DA0EBC35009DCF0BC4FF0004202EA74
:1002C000C352DBB200F5000000F0E7B9400000F1D6
:1002D000807000EBC350A0F1807040EAD1704900FB
:1002E00009E0490841EAC071A0EBC35000F50000E5
:1002F000400800EBC350F0BC00F0C6B961420122D7
:1003000002EB4101001BF6E7F0BC704781F00041B1
:10031000AAE780F00040A7E780EA010210B502F0EA
:100320000043400022D04A001FD0010E01EB1261B1
:10033000C0F35600C2F3560240F4000042F400023B
:10034000A0FB022000047F39140400D0401C50EAB6
:10035000124001D44000491EC2B20C0604EBD0107A
:10036000401C4008802A02D003E0002010BD20F08D
:100370000100002900DA0020184310BD420005D01A
:10038000C0F3C7525242914201DC0020704700EB9B
:10039000C15070472DE9FE4F804681EA0300C00F2F
:1003A0000C46009021F0004123F00045B8EB02001C
:1003B000A94105D24046214690461C460B460246BE
:1003C00023F00040104347D0270DC7F30A00C3F3C2
:1003D0000A510290401A019040286BDAC3F31300CF
:1003E00040F4801B0098924620B10023D2EB030A10
:1003F00063EB0B0B01985946C0F14002504600F0E8
:1004000022F906460D4650465946019A00F02AF94F
:1004100010EB08006141002487EA115284EAE77377
:100420001A4340D0009A62B3019A012A4FEA075258
:1004300015DC001B61EB02014FF0004202EA07529B
:10044000CDE90042001C41F5801132462B4600F0F8
:1004500061F903B0BDE8F08F40462146F9E7001B83
:1004600061EB0201001C41F5801300185B4120186C
:10047000A2F5001747EB030140EAD570B6196D41AC
:1004800011E06D084FEA360645EAC0754FEA07529B
:10049000001B61EB0201001C41F5801149084FEA85
:1004A00030000019514132462B4603B0BDE8F04FF1
:1004B00000F021B90098012240000023D0EB020295
:1004C00063EBE073009821464FEAE074B8EB00005C
:1004D00061EB0401E9E783F000435BE781F0004151
:1004E00058E7C10F80EAE0700844CA07962300214C
:1004F00000F0D3B896230022114600F0CEB800F0E9
:10050000004220F00040C10DC0F3160040F400008E
:100510007F2901DA00207047962903DCC1F196019A
:10052000C84001E096398840002AF4D04042704724
:1005300030B5041E71F1000404DB4FF0004440426A
:1005400064EB0101141E73F1000405DB1C464FF03F
:100550000043524263EB04038B4208BF824230BD2A
:1005600030B5041E71F1000404DB4FF0004440423A
:1005700064EB0101141E73F1000405DB1C464FF00F
:100580000043524263EB0403994208BF904230BDDE
:10059000002801DBC0F10040002901DBC1F100416E
:1005A00081427047002801DBC0F10040002901DBD7
:1005B000C1F100418842704730B50B46014600202A
:1005C0002022012409E021FA02F59D4205D303FA15
:1005D00002F5491B04FA02F52844151EA2F1010296
:1005E000F1DC30BD2DE9F05F0546002092469B46C8
:1005F00088460646814640241BE028464146474639
:100600002246FFF7FDFD53465A46C01A914110D3CA
:1006100011461846224600F016F82D1A67EB01081D
:100620004F4622460120002100F00DF817EB00098B
:100630004E41201EA4F10104DFDC484631462A4623
:100640004346BDE8F09F202A04DB203A00FA02F17D
:10065000002070479140C2F1200320FA03F31943B0
:1006600090407047202A06DBCB17203A41FA02F06F
:1006700043EAE07306E041FA02F3D040C2F12002FF
:1006800091400843194670470029A8BF7047401C95
:10069000490008BF20F00100704710B4B0FA80FC98
:1006A00000FA0CF050EA010404BF10BC704749B1D5
:1006B000CCF1200421FA04F411FA0CF118BF012145
:1006C00021430843A3EB0C01CB1D4FEA00614FEA25
:1006D000102042BF002010BC704700EBC3501044F4
:1006E0000029A4BF10BC7047401C490008BF20F07F
:1006F000010010BC704710B5141E73F1000408DA35
:10070000401C41F1000192185B411A4301D120F0D5
:10071000010010BD2DE9F04D92469B4611B1B1FA92
:1007200081F202E0B0FA80F220329046FFF78BFFB0
:1007300004460F4640EA0A0041EA0B0153465A4676
:10074000084313D0114653EA010019D0C8F1400202
:100750005046FFF755FD05460E465046594642465F
:10076000FFF771FF084305D0012004E02046394619
:10077000BDE8F08D0020054346EAE0762C43374380
:100780000A986305E40AA0EB08000022FD0A44EA87
:1007900047540A3002D500200146E9E70105101947
:1007A0006941DDE9084500196941BDE8F04DA2E75E
:1007B0002DE9FE4F81EA030404F0004421F00041DA
:1007C00000944FF0000B23F0004350EA01045ED088
:1007D00052EA03045BD0C3F30A54C1F30A552C4414
:1007E000A4F2F3340194A0FB0254C1F3130141F4C9
:1007F0008011C3F3130343F4801301FB024400FB95
:10080000034E840A970A44EA815447EA8357A4FBBB
:10081000076802958D0A05FB07854FEA932C04FBB8
:100820000C542705029D4FEA065847EA1637B5EBE8
:1008300008056EEB070C870E920E47EA811742EA15
:100840008312A7FB0201B6EB0B0164EB00042B0D36
:1008500043EA0C335E1844EB1C50DA465146E7FB82
:100860000201C5F313044FEA0B3343EA14534FEA72
:100870000432019C43EA0603A4F10C040294009C98
:10088000CDE900B4FFF746FF03B0BDE8F08F0020CC
:100890000146F9E72DE9F04D81EA030404F0004B2D
:1008A00021F0004514464FF0000A23F0004150EAC1
:1008B000050220D054EA01021DD0C5F30A570246B2
:1008C000C5F31303C1F31300C1F30A5640F48015B6
:1008D00043F48013A7EB0608101BD64608F2FD3838
:1008E00073EB050002D308F1010801E092185B41A7
:1008F000B8F1000F03DA00200146BDE8F08D0020BA
:100900004FF48011064684460EE0171B73EB050773
:1009100005D3121B63EB050306434CEA010C49089F
:100920004FEA300092185B4150EA0107EDD152EADC
:10093000030012D082EA040083EA0501084305D0CF
:10094000101BAB4106D20122002306E000224FF02B
:10095000004302E06FF0010253101AEB06004CEB6B
:10096000085110EB0A0041EB0B01BDE8F04DFFF719
:10097000C2BEC1F30A52C1F3130140F2FF3341F486
:1009800080119A4202DA00200146704740F2334358
:100990009A42A2F2334202DC5242FFF731BCFFF727
:1009A00052BE0000064C074D06E0E06840F001032F
:1009B00094E8070098471034AC42F6D3FFF7BCFB2D
:1009C0000872000828720008FEE7000000B58BB02E
:1009D00000200121CDE906010390059000900190CF
:1009E0000290089104906946024800F079F80BB033
:1009F00000BD0000C4070020704772B6FEE790F803
:100A00002020012A07D0022A05D0416A41F4802122
:100A1000416201207047006842690A434261002038
:100A20007047F0B590F820500468A468012D05D0F7
:100A3000022D03D0416A41F480214DE014F0406F53
:100A400001D1E50045D5C4F301640125A5401D6031
:100A50008D684FF4C0739DB1CE6835434E6845EA4A
:100A6000C605066803EB0417F5514FF4C275076815
:100A700005EB04150E697E51097D012905D009E0B9
:100A80000E88CD6845EA4655EBE701684E5946F4B5
:100A900080764E511179D2F805504FF4C67641EA6E
:100AA0000521056806EB0416A9511178D2F801203A
:100AB0004FF4C47541EA0221026805EB0415515157
:100AC000006803EB0411425842F00102425000203A
:100AD000F0BD416A41F4001141620120F0BD000007
:100AE00010B590F820300268012B07D0022B05D0FA
:100AF000416A41F480214162012010BDD2F8000218
:100B000040F00100C2F80002087D00F01F03012040
:100B10009840D2F81C328343C2F81C32CB69B3B977
:100B2000D2F80C328343C2F80C328C894B6864F3E0
:100B30001F434C6902EBC404C4F840320C890B68B3
:100B400064F31F434C6902EBC404C4F84432CB691C
:100B5000012B16D1D2F80C320343C2F80C320C88A8
:100B60004B6864F31F434C6902EBC404C4F8403281
:100B70000C89CB6864F31F434C6902EBC404C4F8CE
:100B800044328B69002BD2F804320FD053EA0003B1
:100B9000C2F804320B69002BD2F8143208D0034398
:100BA000C2F81432096A012904D008E08343EFE750
:100BB0008343F5E7D2F81C120143C2F81C12D2F8A5
:100BC000000220F00100C2F80002002010BD7047B2
:100BD0000246002092F82030012B01D0022B05D1D3
:100BE000106821B1D0F8100000F003007047C06811
:100BF000FAE770B590F82040012C05D0022C03D004
:100C0000416A41F4802128E0046809B32469A407FB
:100C100020D04FF4D874056804EB01142D5915F059
:100C20000405956005682D591AD0ED0855600568D2
:100C30002C5904F00204D4604FF4DA74056804EB14
:100C400001142E5906F00F06082E0CD308250DE0CE
:100C5000E468DCE7416A41F400114162012070BDA3
:100C60006D0D1560E3E72D5905F00F051561056859
:100C70002D59C5F30725956105682C59240C54613D
:100C80004FF4DC72046802EB0112A4581C70046873
:100C9000A458240A5C700468A458240C9C7004684E
:100CA000A258120EDA704FF4DE72046802EB0112E1
:100CB000A4581C710468A458240A5C710468A458E0
:100CC000240C9C710468A258120EDA71006829B1D4
:100CD000016941F020010161002070BDC16841F04F
:100CE0002001C160F8E72DE9F05F054600680024A7
:100CF0004669D0F804908768D0F80CB0D0F810A0FE
:100D0000D0F81880F10748D0F90714D0012181608C
:100D1000B80703D5284600F016FA0CE0780702D58C
:100D20004FF4006407E0380702D54FF4805402E026
:100D3000284600F007FAF80516D529684FF48070A8
:100D40008860B80503D5284600F0FFF90CE0780567
:100D500002D544F4005407E0380502D544F4804439
:100D600002E0284600F0F0F9F80316D529684FF4A0
:100D700080308860B80303D5284600F0E8F90CE01D
:100D8000780302D544F4004407E0380302D544F464
:100D9000803402E0284600F0D9F9300707D55FEA31
:100DA000CB6004D52968102044F40074C860700733
:100DB0004FF0080707D55FEA0B7004D52868C760B5
:100DC000284600F059F9B00706D52868C0688007A2
:100DD00002D0284600F052F9700607D55FEACA60D3
:100DE00004D52968102044F480640861B00607D552
:100DF0005FEA0A7004D528680761284600F072F996
:100E0000F00606D528680069800702D0284600F061
:100E10006AF9B00308D55FEAC96005D529681020D2
:100E20004860284600F060F9F00307D55FEA0970D2
:100E300004D528684760284600F08AF9300446D572
:100E40005FEA497040D5F00504D55FEAC87001D06B
:100E500044F00104B00504D55FEA887001D544F080
:100E60000204700504D55FEA487001D544F004041B
:100E7000300529D518F0700F26D008F070004028F2
:100E800015D006DC102809D020280AD0302816D129
:100E90000AE050280ED0602811D10EE044F008047A
:100EA0000DE044F010040AE044F0200407E044F0B0
:100EB000400404E044F0800401E044F480742868B5
:100EC000816921F070018161296804204860002C4B
:100ED00005D0686A204368622846FFF778FEBDE8BF
:100EE000F09F70B5040003D094F8200010B104E026
:100EF000012070BD204600F081F82068016841F0B3
:100F00000101016000F0F4FA0546052604E000F056
:100F1000EFFA401B0A2811D820684068C007F6D0B5
:100F20002068016821F00201016000F0E1FA054645
:100F30000BE000F0DDFA401B0A2806D9606A40F495
:100F40000030606284F82060D2E720684068800743
:100F5000EFD4207E0128206801683DD021F0800177
:100F60000160607E01282068016838D021F04001CE
:100F70000160A07E01282068016833D021F02001A3
:100F80000160E07E0128206801682ED041F0100148
:100F90000160207F01282068016829D021F0080124
:100FA0000160607F01282068016824D021F00401DD
:100FB0000160D4E902010843D4E904121143084353
:100FC0006168491E08432168C861002060620120F1
:100FD00084F82000002070BD41F08001C0E741F09E
:100FE0004001C5E741F02001CAE721F01001CFE739
:100FF00041F00801D4E741F00401D9E710B586B00B
:1010000000210091019102910391006817498842E3
:101010002AD11748C16941F00071C161C16901F06D
:1010200000710491816941F0040181618069114C72
:1010300000F0040004904FF40060009069462046E0
:1010400000F054F9A01400900220019003200390B6
:101050006946204600F04AF900220521142000F0DC
:10106000DFFA142000F0CEFA06B010BD0064004094
:1010700000100240000801407047000070B50546AE
:10108000144802F0F5FF134C0C3C2070A078401E71
:10109000C0B200EB4001607001EBC0010E4800EBF4
:1010A0008100816A4A1C32298262294602D803F0F3
:1010B0002FF801E003F002F807482946B03002F0AB
:1010C000FDFF064960780870BDE8704002210448C1
:1010D000FFF795BCEC0000204448002000000020F1
:1010E000C4070020704770477047000070B5044681
:1010F00090F82000012804D0606A40F4002060626B
:1011000018E0022084F820002068016821F0010125
:10111000016000F0EDF905460EE000BF00F0E8F9CF
:10112000401B0A2808D9606A40F40030606205203C
:1011300084F82000012070BD20684068C007EDD110
:10114000606270BD70477047704770477047704766
:10115000704710B590F821100022022905D0042113
:10116000816380F82020012010BD01680B6823F006
:101170000E030B6001680B6823F001030B6090F80D
:101180004030C46B012101FA03F3636080F8211041
:1011900080F82020104610BD2DE9F05F90F8211056
:1011A0000024022903D004218163012485E0016821
:1011B0000A6822F00E020A6001680A6822F0010241
:1011C0000A603F4E3E4FB215DFF8F4C0DFF8F090F2
:1011D000DFF8ECA0DFF8E8B0DFF8E4E00168783F82
:1011E00013011502ACF1640CA9F15009AAF13C0AF3
:1011F000ABF1280BAEF1140E4FF48018B14227D991
:10120000B9420ED0614512D049451DD0514518D084
:10121000594518D0714501D1424615E0294EB142D9
:1012200001D1012210E0274E1436B14201D1102223
:101230000AE0244E2836B14206D0224A3C3291427E
:1012400001D11A4600E02A461E49091F0A602BE018
:10125000B94213D0614517D0494522D051451DD020
:1012600059451DD0714501D142461AE0B14202D123
:101270004FF0807215E0134EB14201D1012210E00F
:10128000104E1436B14201D110220AE00D4E28361C
:10129000B14206D00B4A3C32914201D11A4600E0DD
:1012A0002A46074980394A60012180F8211000212F
:1012B00080F82010416B01B188472046BDE8F09FBF
:1012C000800002400804024070B5044600F010F9A6
:1012D0000546601C02D004480078044400F008F978
:1012E000401BA042FAD370BD5C0000202DE9F84FEE
:1012F000DFF8C8910024A9F1040B23460F2709F158
:10130000040AABF1040ED1E00125A54006EA05026E
:10131000AA4276D1DFF8A8C14E68A6EB0C08664554
:101320002BD00DDC032E34D005DC36B3012E19D0C2
:10133000022E2FD11BE0112E16D0122E2AD119E029
:10134000B8F5881F19D006DCB8F5803F15D0B8F580
:10135000801F1FD111E0B8F5001F0ED0B8F5041F93
:1013600018D10AE0CB6815E0CB681B1D12E0CB68F2
:1013700008330FE0CB680C330CE08B682BB1012BEA
:101380004FF0080303D0456104E0042302E0056147
:1013900000E00023FF2A01D8064601E000F1040620
:1013A0004FEA840501D9A5F12005D6F8008007FA97
:1013B00005FC28EA0C0803FA05F548EA0508C6F812
:1013C00000804D68ED0070D53E4DAE6946F00106D7
:1013D000AE61AD6924F0030605F0010500953A4DB4
:1013E00006EB050CDCF80850A607360F07FA06F8DE
:1013F00025EA0805DFF8D480404503D14FF0000806
:1014000025E052E0DFF8C880404502D14FF00108E6
:101410001DE0DFF8C080404502D14FF0020816E021
:10142000DFF8B480404502D14FF003080FE0DFF849
:10143000AC80404502D14FF0040808E0DFF8A080FE
:10144000404502D14FF0050801E04FF0060808FAC8
:1014500006F848EA0508CCF808804D68D9F800601D
:10146000ED024D4601D5164300E096432E604D68CF
:10147000DAF80060AD02554601D5164300E0964308
:101480002E604D68DBF80060AD035D4601D5164364
:1014900000E096432E604D68DEF80060ED0375466F
:1014A00001D5164300E096432E60641C0A68164678
:1014B000E2407FF429AFBDE8F88F00000804014046
:1014C000000011100010024000000140000801401F
:1014D000000C0140001001400014014000180140C0
:1014E000001C01400AB1016170470904FBE70000DC
:1014F00001488068704700005C0000200248816855
:1015000002781144816070475C000020074810B5E4
:10151000016841F010010160032000F0A1F80F20E4
:1015200000F006F800F04AF8002010BD002002404C
:1015300030B505461C4887B0816941F4006181617E
:10154000806906A900F40060009001A800F030F95D
:1015500000F05EF91549164AB0FBF1F11548491E35
:101560000260416040F2E7320021C0E9032181605E
:10157000816100F0CEFC040012D10E4800F0F8FCAE
:1015800004000DD1192000F03DF8102D07D20022E3
:101590002946192000F044F80748056000E00124BE
:1015A00007B0204630BD00000010024040420F004E
:1015B000002C0140E4090020600000200F4808B51D
:1015C000816941F001018161816901F001010091AE
:1015D000C16941F08051C161C069002200F08050B2
:1015E00000900F21901E00F01BF80548416821F083
:1015F000E06141F00071416008BD00000010024050
:1016000000000140002809DB00F01F020121914089
:101610004009800000F1E020C0F800117047000090
:10162000F0B40E4B1B680C46C3F30223C3F107054D
:10163000042D00D90425191D072901D2002300E03B
:10164000DB1E012606FA05F1491E214099409E4005
:10165000761E16403143F0BC02F07AB80CED00E083
:10166000064900F0070208684FF6FF03184040EAF9
:101670000220034A10430860704700000CED00E0B0
:101680000000FA052DE9F0470F46050061D0434EF2
:10169000306800F00700B84209D2306820F0070037
:1016A00038433060306800F00700B84251D12868F4
:1016B0003B4C810712D5400703D5606840F4E060D9
:1016C00060602878000703D5606840F4605060606F
:1016D0006068A96820F0F000084360602878C007BF
:1016E00028D06868012810D02168022810D0890706
:1016F00000292EDA616821F0030101436160FFF7E0
:10170000F7FE804641F288390DE021688903EFE752
:101710008901EDE7FFF7ECFEA0EB0801494502D98E
:101720000320BDE8F0876068696800F00C00B0EB4A
:10173000810FEFD1306800F00700B8420BD9306854
:1017400020F0070038433060306800F00700B842EE
:1017500001D00120E5E72878400705D56068E968F1
:1017600020F4E060084360602878000706D56068D0
:10177000296920F4605040EAC100606000F058F828
:101780006168084AC1F30311515CC840064908600A
:1017900006480068FFF7CCFE0020C2E700200240A8
:1017A00000100240F6590008680000206000002088
:1017B0000F2202600C4A536803F00303436053682E
:1017C00003F0F0038360536803F4E063C36052687E
:1017D0004FF4E06303EAD20202610448006800F0BB
:1017E000070008607047000000100240002002401F
:1017F0000448054900684968044AC1F30221515C64
:10180000C84070476800002000100240065A0008D7
:101810000448054900684968044AC1F3C221515C83
:10182000C84070476800002000100240065A0008B7
:101830000E4A51680E4801F00C03042B11D0082BFE
:101840000FD10C48C1F38343C903C05C0AD551686A
:10185000084AC1F34041921E515C054A5043B0FB17
:10186000F1F07047044948437047000000100240FF
:1018700000127A00E659000800093D002DE9F84FF2
:10188000040070D02078C04DC00749D06868C0F30C
:101890008100012807D06868C0F38100022809D1BF
:1018A0006868C00306D52868800339D560680028B9
:1018B000E7D035E06068B0F5803F0BD010B1B0F5EF
:1018C000A02F11D0286820F480302860286820F4E8
:1018D000802002E0286840F480302860606890B181
:1018E000FFF706FE06460AE0286840F480202860DC
:1018F000F0E700BFFFF7FCFD801B642873D8286861
:101900008003F7D50CE0FFF7F3FD064605E000BFC6
:10191000FFF7EEFD801B6428F0D828688003F7D419
:1019200020789A4E80074FF001094FF0000839D512
:10193000686810F00C0F07D06868C0F381000228B7
:1019400009D16868C00306D42868800714D52069C7
:10195000012808D110E02069B0B1C6F80090FFF767
:10196000C7FD074605E00AE1FFF7C2FDC01B0228DC
:10197000C4D828688007F7D52868616920F0F80086
:1019800040EAC10028600DE0C6F80080FFF7B0FD16
:10199000074604E0FFF7ACFDC01B022823D82868E7
:1019A0008007F7D4207800072CD57948A169D9B1F0
:1019B000C0F80090FFF79CFD074604E0FFF798FD94
:1019C000C01B02280FD8686A8007F7D571484FF40A
:1019D000FA510068B0FBF1F0009000BF0098411E82
:1019E0000091FAD20EE080E0C0F80080FFF780FDA1
:1019F000074604E0FFF77CFDC01B022875D8686A23
:101A00008007F7D42078400760D5E8690027C00038
:101A100008D4E86940F08050E861E869012700F0E7
:101A2000805000905C480168C90513D40168834662
:101A300041F480710160FFF75BFD824606E000BF64
:101A4000FFF756FDA0EB0A0064284ED8DBF8000033
:101A5000C005F5D5E06801280AD008B1052813D0E3
:101A6000286A20F001002862286A20F0040002E0C1
:101A7000286A40F001002862E06841F2883B98B192
:101A8000FFF736FD82460BE0286A40F0040028622A
:101A9000EEE700BFFFF72CFDA0EB0A0159455AD82D
:101AA000286A8007F6D50CE0FFF722FD824605E0A4
:101AB000FFF71EFDA0EB0A0159454CD8286A8007A4
:101AC000F6D41FB1E86920F08050E861E06988B37E
:101AD0006968C1F38101022944D00228C6F86080F8
:101AE00004D0FFF705FD044638E034E0FFF700FDC1
:101AF000074604E0FFF7FCFCC01B02282BD828682F
:101B00008001F7D4206AB0F5803F05D16868A168EC
:101B100020F4003008436860D4E90801084369688C
:101B200021F4741108436860C6F86090FFF7E0FC88
:101B3000044606E025E000BFFFF7DAFC001B0228A0
:101B400009D828688001F7D51BE000BFFFF7D0FC5B
:101B5000001B022802D90320BDE8F88F2868800105
:101B6000F4D40EE00128F7D06868226A00F48031CE
:101B7000914204D1616A00F47010884201D00120C2
:101B8000EAE70020E8E700000010024000004242BF
:101B9000800442426800002000700040704700004E
:101BA00038B50446006842688168C9434B0606D5CB
:101BB000CB0704D1D3435B0601D4216C05E08B072E
:101BC00008D4D3431B0605D4616C01B02046BDE8A0
:101BD000304008478B0601D54B0646D4D3439B06BD
:101BE00043D44B060AD494F85130032B3ED0636D96
:101BF00043F004036365C36883680093890609D4CE
:101C0000616D41F00101616581680091016821F019
:101C100040010160606D002827D02068416821F0F4
:101C2000E0014160012084F85100900722D0206833
:101C3000416821F003014160104DE06C40B1456303
:101C4000E06CFFF7A9FA18B1606D40F040006065E4
:101C5000A06C002809D04563A06CFFF79DFA00280E
:101C600003D0606D40F04000606538BDC168806899
:101C7000009038BD2046FFF791FF38BD212E0008A7
:101C800070B5040009D0606A002540B12561656126
:101C9000A56294F8510040B10CE0012070BD60686D
:101CA000B0F5827FF4D0E561F2E784F85050204629
:101CB00000F040F8022084F851002068016821F00B
:101CC00040010160A088218900F4827001F4044180
:101CD0000843A18901F400610843217C01F002015D
:101CE0000843217D01F001010843218B01F40071BB
:101CF0000843217F01F03801084394F8201001F0D7
:101D000080010843218D01F40051084321680860D7
:101D1000A069042101EA1040216848602068C16977
:101D200021F40061C1616565012084F85100002043
:101D300070BD000000B585B00021009101910291B5
:101D4000039100681349884222D11348816941F404
:101D500080518161816901F480510491816941F070
:101D6000040181618069694600F004000490A020AC
:101D7000009002200190032003900848FFF7B6FA74
:101D8000002205212320FFF74BFC2320FFF73AFC1C
:101D900005B000BD003001400010024000080140C5
:101DA0002DE9F84F044690F8500000269846154655
:101DB0008A4601280CD0012784F85070FFF798FB61
:101DC000814694F85100B346012804D002269AE0D7
:101DD0000220BDE8F88FBAF1000F6FD0002D6DD052
:101DE000032084F85100C4F854B0C4F830A0A5868C
:101DF000E586C4F838B0A4F83CB0A4F83EB0C4F806
:101E000044B0C4F840B0A068B0F5004F09D12068D4
:101E1000016821F0400101602068016841F48041BF
:101E2000016020680168490603D4016841F040015F
:101E30000160E068B0F5006F606803D058B3012D11
:101E400029D049E008B1012D1FD1206B21680088FD
:101E5000C86006E020688168890709D5216B098878
:101E6000C160206B801C2063E08E401EE0860CE089
:101E7000FFF73EFBA0EB0901414503D3B8F1FF3F5B
:101E800003D006E0B8F1000F03D0E08E0028E1D1C6
:101E900025E0032635E0206B21680078087306E012
:101EA0002068816889070AD5216B09780173206B46
:101EB000401C2063E08E401EE0860DE01FE0FFF72F
:101EC00017FBA0EB0901414503D3B8F1FF3F03D055
:101ED000DFE7B8F1000FDCD0E08E0028E0D14A4601
:101EE0004146204600F0A4FF08B120206065A068AC
:101EF00018B92068C16880680090606D08B101263B
:101F000001E084F8517084F850B0304661E77047C2
:101F1000704710B5040003D094F83D0010B107E0FD
:101F2000012010BD002084F83C00204600F01EF87F
:101F3000022084F83D00211D206801F047FA0120AD
:101F400084F8460084F83E0084F83F0084F840009E
:101F500084F8410084F8420084F8430084F8440087
:101F600084F8450084F83D00002010BD7047000053
:101F700090F83D10012901D001207047022180F81E
:101F80003D100168CA6842F00102CA6000680E494B
:101F900088420ED00D4988420BD0B0F1804F08D056
:101FA0000B49884205D00B49884202D00A49884231
:101FB00004D1816801F00701062903D0016841F0CE
:101FC0000101016000207047002C014000340140F5
:101FD0000004004000080040000C0040704770B54D
:101FE0000446006801694FF00005C943890715D40C
:101FF000C168C943890711D4E91E01610120207716
:10200000206880698007204602D0FFF7E7FF04E0E0
:1020100000F098F8204600F096F8257720680169CE
:10202000C943490717D4C168C943490713D46FF09E
:1020300004010161022020772068806910F4407F4C
:10204000204602D0FFF7CAFF04E000F07BF82046EC
:1020500000F079F8257720680169C943090716D48B
:10206000C168C943090712D46FF008010161042057
:1020700020772068C0698007204602D0FFF7AEFFB6
:1020800004E000F05FF8204600F05DF82577206856
:102090000169C943C90617D4C168C943C90613D425
:1020A0006FF010010161082020772068C06910F4EA
:1020B000407F204602D0FFF791FF04E000F042F895
:1020C000204600F040F8257720680169C943C90718
:1020D00008D1C168C943C90704D1891E01612046DE
:1020E00000F032F820680169C943090609D4C168C3
:1020F000C943090605D46FF0800101612046FFF74E
:1021000006FF20680169C943490609D4C168C9436B
:10211000490605D46FF040010161204600F01EF829
:1021200020680169C94389060BD4C168C94389067F
:1021300007D46FF0200101612046BDE87040FFF731
:10214000E7BE70BD7047704700680349884201D1FF
:10215000FFF7D4B970470000002C0140704770476A
:10216000704710F8411F407808437047F8B5016880
:1021700004460868CA684B6910F00F0F4FF000055D
:1021800059D003F0010602F49077374365D0C107B8
:1021900005D0D10503D5616C41F0010161644107AF
:1021A00005D5D90703D0616C41F002016164810754
:1021B00005D5D90703D0616C41F0040161640107C2
:1021C00007D502F02001314303D0616C41F00801D2
:1021D0006164616C00293AD0800604D5900602D56E
:1021E000204601F068F920684069616CC0F38010F6
:1021F000090700D460B3204601F036F92068406931
:10220000400621D52068143050E8001F21F040011D
:1022100040E80012002AF5D1E06BA8B16D49416396
:10222000E06BFEF7B9FF002811D0E06B416B01B005
:10223000BDE8F040084783060FD593060DD520462C
:10224000BDE8F84001F037B92046FFF789FFF8BD37
:102250002046FFF785FF6564F8BD266B2023012E1D
:102260007CD1C6067AD5D60678D50868486800902D
:1022700048694FF00206400640D5E16B08684068A7
:102280000004000CE8D0A28D8242E5D9E08588697F
:1022900020282DD020680C3050E8001F21F48071D8
:1022A00040E80012002AF5D12068143050E8001FE1
:1022B00021F0010140E80012002AF5D12068143015
:1022C00050E8001F21F0400140E80012002AF5D13B
:1022D00084F84230256320680C3050E8001F21F05C
:1022E000100140E80012002AF5D1E06BFEF731FF43
:1022F0006663A08DE18D401A81B22AE0A08DE18D48
:10230000401A81B2E08D0028A6D00029A4D022680E
:102310000C3252E8000F20F4907042E80007002FC2
:10232000F5D12068143050E8002F22F0010240E877
:102330000027002FF5D184F84230256320680C3047
:1023400050E8002F22F0100240E80023002BF5D1C6
:1023500066632046FFF703FFF8BDFFE705062BD5B0
:10236000150629D594F841002128F5D1A068B0F5CB
:10237000805F01D12069B0B1206A411C21622168CF
:1023800000784860E08C401E0004000CE084E3D13B
:102390002068C16821F08001C1602068C16841F0F7
:1023A0004001C160D8E7206A0088C0F30800486097
:1023B000206A801C2062E5E74006CDD55006CBD5CB
:1023C000CA68204622F04002CA6084F8413000F01A
:1023D0009EF9C1E75934000870B5040004D094F8A0
:1023E0004100002510B106E0012070BD84F8405086
:1023F000204600F023F8242084F841002068C168BA
:1024000021F40051C160204601F0B6F8206801694E
:1024100021F4904101612068416921F02A01416164
:102420002068C16841F40051C1606564202084F8CF
:10243000410084F842006563002070BD70B586B02D
:102440000024009401940294039403682E482D4EB6
:10245000022103220515B34226D1836943F4804348
:102460008361836903F480430493836943F0040325
:1024700083618069254E00F0040004900802CDE9D4
:102480000001039269463046FEF730FFCDE9005463
:10249000694630460294FEF729FF002205212520D7
:1024A000FFF7BEF8252028E0194EB34227D1C369B3
:1024B00043F48023C361C36903F4802304938369D5
:1024C00043F0080383618069CDE9005100F0080002
:1024D000CDE903200F4D69462846FEF707FFE814B3
:1024E000CDE90004694628460294FEF7FFFE00226B
:1024F00005212720FFF794F82720FFF783F806B07F
:1025000070BD00000038014000100240000801408A
:1025100000480040000C014090F84230202B01D0D0
:102520000220704721B11AB10023036301F080B883
:10253000012070472DE9F041064648480025484CE7
:10254000864236D120784FF480784FF6FF77FF2807
:102550000BD3257041464348FDF77BFE3B460A22DC
:1025600041A13E4800F086F81DE03E49E2780A5459
:10257000401CC2B28818227010F8011C0A2912D11E
:1025800010F8020C0D280ED13B463649334800F0B6
:1025900071F83248FFF7E5FD2128FAD02570414651
:1025A0003048FDF756FE2E490122C91C2B48FFF783
:1025B000B3FF2A48483086424ED16178012258380C
:1025C00031B1012909D002290ED0032917D01BE00F
:1025D0002179AA2918D1627016E02179AE2913D188
:1025E00002216170A5700FE0A17822794254491C44
:1025F000C9B2A1700D2907D30321617004E02179CC
:10260000AC2901D1657062710178D0F8012041EAEE
:102610000221A160017BBF2902D0CF2906D00CE0A6
:102620000179D0F8052041EA022105E00179D0F8CE
:10263000052041EA02214942E160017AD0F809000F
:10264000012241EA00202061BDE8F041044903482D
:10265000091D4830FFF760BFBDE8F0815409002034
:102660004800002044080020CAFDBEDDD2E7B3F6D2
:10267000000000002DE9F843044690F841001F4691
:1026800016460D46202802D00220BDE8F8837DB111
:1026900076B100206064212084F84100FEF728FF15
:1026A000A6848046E684A068B0F5805F02D003E08F
:1026B0000120EAE7206910B12E4600250EE0002631
:1026C0000CE08021204600F0CEFFA0B9AEB116F894
:1026D000010B21684860E08C401EE084E08C43469A
:1026E0004FF0000200970028EBD14FF04001204648
:1026F00000F0B9FF30B10320C7E735F8020BC0F393
:102700000800E6E7202084F841000020BDE770477C
:10271000FEE700000F4810B50D490160022141603D
:1027200000214FF400228160C0E903124FF4E0025F
:102730004261017641768176C17601774177FEF775
:10274000D0FB002803D0BDE81040FEF756B910BDFD
:1027500000640040C407002010B5A4B01C221C492E
:102760006846FDF75DFD0021684601F0FEFC194C4E
:1027700017491C22A0601C3107A8FDF751FD00215C
:1027800007A801F0F2FC1249E0601C2238310EA8C3
:10279000FDF746FD00210EA801F0E7FC0C49206181
:1027A0001C22543115A8FDF73BFD002115A801F0AE
:1027B000DCFC074960611C2270311CA8FDF730FD6C
:1027C00000211CA801F0D1FCA06124B010BD0000C4
:1027D000585900080000002030B585B00024184882
:1027E0000094019402940394816941F00401816191
:1027F000816901F004010491816941F01001816156
:10280000816901F010010491816941F00801816141
:1028100080690C4D00F00800049000223021284609
:10282000FEF760FE302000900120CDE90104022077
:10283000039069462846FEF759FD05B030BD0000FB
:102840000010024000100140104810B50E49016010
:102850004FF48271416000218160C1604FF40072C9
:102860000161C0E905120822C0E9072141628162C5
:102870000A21C162FFF704FA002803D0BDE8104026
:10288000FEF7BBB810BD000000300140EC0700208F
:102890000C4810B50A4901604FF4E1314160002154
:1028A00081600C22C160C0E904128161C161FFF73F
:1028B00093FD002803D0BDE81040FEF79EB810BD80
:1028C00000380140540900200C4810B50A49016045
:1028D0004FF416514160002181600C22C160C0E9B3
:1028E00004128161C161FFF777FD002803D0BDE8C4
:1028F0001040FEF782B810BD004800409C0900203F
:10290000FEE700000EB5434C4FF4C8700025E060B0
:10291000A0606060DFF800B1DFF800A1404FA94679
:1029200044F62068C4F800004FF07F5205EBC50064
:10293000CDE9002B00EB400007EB80000646CDF808
:10294000089042464346032100F026FA6D1CC6F863
:1029500054A0042DE8DB334DDFF8CCB0A246B946D5
:10296000002457464FEA090657F82400FDF7B9FD41
:10297000804604EB440000EBC40035F92000FDF76D
:10298000B0FD014604EBC40000EB400006EB800004
:10299000424601F014FC641C042CE5DBD6F88001EF
:1029A000FDF7ADFD0FFA80F8D6F81401FDF7A7FD8D
:1029B00007B2D6F8A800FDF7A2FD04B2F06BFDF750
:1029C0009EFD01B23B4622461848CDF8008002F039
:1029D000C5F89BF800105C4629B1012903D00229F3
:1029E00001D0032912D101EB410000EBC10205EB3C
:1029F00082008679B0F90430CDE9003635F922300D
:102A000042690BA000F080FE04202070012001F03C
:102A1000A0FBA5E7F8000020CDCCCC3D000048424B
:102A2000544900204448002000000020C407002032
:102A3000B5E7BBFA202564203A20616E676C653DDE
:102A40002564203B2073706565643A2025643B2033
:102A500063757272656E743A2025643B2074656DEF
:102A6000703A25640D0A0000FEE7000030B4002132
:102A7000084B0A465FF0000003EBC004401CC0B2E4
:102A800062548028F8D3491CC9B20829F2D330BC5B
:102A900000F0C8B8DC4B0020CA0801F00703012190
:102AA0009940044B03EBC003985C61EA0000C0430B
:102AB00098547047DC4B002030B1012807D1002129
:102AC0005FF0A70000F048B90021A620FAE77047A0
:102AD00010B558B1012810D10021C02000F03CF9F8
:102AE0000021A020BDE8104000F036B90021C82028
:102AF00000F032F90021A120F4E710BDCA0801F06E
:102B0000070301219940034B03EBC000835C0B4397
:102B100083547047DC4B002010B5414C002210213B
:102B20002046FEF7DFFCC820FEF7CEFB0122102175
:102B30002046FEF7D7FC0021AE2000F00DF9002161
:102B4000084600F009F90021102000F005F90021E5
:102B5000402000F001F90021812000F0FDF8002163
:102B6000CF2000F0F9F80021A12000F0F5F80021B5
:102B7000C82000F0F1F80021A62000F0EDF80021B7
:102B8000A82000F0E9F800213F2000F0E5F800213E
:102B9000D32000F0E1F80021084600F0DDF8002124
:102BA000D52000F0D9F80021802000F0D5F80021D0
:102BB000D92000F0D1F80021F12000F0CDF800215B
:102BC000DA2000F0C9F80021122000F0C5F8002139
:102BD000DB2000F0C1F80021402000F0BDF800210A
:102BE000202000F0B9F80021022000F0B5F8002103
:102BF0008D2000F0B1F80021142000F0ADF8002184
:102C0000A42000F0A9F80021A62000F0A5F80021DA
:102C1000AF2000F0A1F8BDE81040FFF727BF00008B
:102C20000010014070B5114E002400BF04F1B00047
:102C3000C0B2002100F090F80021084600F08CF8A6
:102C40000021102000F088F85FF0000506EBC500B9
:102C50000121005D00F080F86D1CEDB2802DF5D3F0
:102C6000641CE4B2082CE1D370BD0000DC4B0020F2
:102C70002DE9FF4F1D460C468946580700D001201C
:102C800000EBD50069084843203A00F0FF0A02F043
:102C9000FF0B002635E00C2D12D0102D14D0182D6E
:102CA00031D11A490BEBCB0001EB80004FF000084B
:102CB000875D2146380600980AD5FFF71FFF09E017
:102CC0000BEB4B001249EFE7124901EB0B10EDE75C
:102CD000FFF7E2FE7806641C070EE4B2A4EB0900DD
:102CE000A84205D100984C46401CC0B2009006E0B6
:102CF00008F1010000F0FF08B8F1080FD9D3761CE5
:102D0000F6B25645C7D3BDE8FF8F000072640008D5
:102D10000E5A0008825E00082DE9F0411E46154655
:102D200088460446C3F180070FE0334641462046FB
:102D3000FFF79EFF04EB5600C4B2A74204DA08EB8B
:102D40000600022400F0FF086D1C2A78A2F1200082
:102D50005E28EAD9BDE8F08173B50B4D6C4609B128
:102D6000012200E0002220212846FEF7BBFBC823F9
:102D7000012221460548FFF713F8012220212846A9
:102D8000FEF7B0FB7CBD000000100140EC07002006
:102D9000012001F0DEF9FBE7FEB508AF97E870000F
:102DA000044F4766044F87668DE8700001F0B2FA61
:102DB000FEBD0000154300082D43000808B50C4C6B
:102DC0000C4D0D4E00F076F968B1206800902B682C
:102DD0000AA10F48326800F0A7FC00210C230C4A1E
:102DE0000846FFF799FF012001F0B3F9EAE7000078
:102DF00058000020540000205000002049443A258B
:102E0000642020783A25642C206469733A25640094
:102E1000080100200148FEF7C3BE0000EC070020B7
:102E200010B5406A0021C187C186FEF7B7FE10BD0C
:102E300038B50B46009204460022802100F008F8C5
:102E4000002804D0606D40F020006065032038BD8C
:102E50002DE9F8431E46914688460446089DFEF734
:102E600047FB401B351AFEF743FB07462548006821
:102E7000C0F3CB30684338E0701C37D0FEF738FB26
:102E8000C01BA84203D215B1009860B32CE02068A3
:102E9000416821F0E00141606068B0F5827F0BD1AC
:102EA000A068B0F5004F02D0B0F5806F04D1206863
:102EB000016821F040010160A06AB0F5005F09D10E
:102EC0002068016821F4005101602068016841F424
:102ED00000510160012084F85100002084F8500066
:102EE0000320BDE8F8830025401E0090206881681B
:102EF00038EA010004D000214945BDD10020F0E7A7
:102F00000121F9E7680000201CB54F4C0125002283
:102F1000D4E90C011346FDF70BFB03D065700C23BD
:102F20004AA24BE0D4E90E0100221346FDF700FB54
:102F300003D0A5700C2348A240E0D4E90801002288
:102F40001346FDF7F5FA06D0D4E90A01002213462C
:102F5000FDF7EEFAE2D0D4E9080100221346FDF7AE
:102F6000E7FA06D1D4E90A0100221346FDF7E0FA98
:102F7000DFD104F120000FC8FDF7ADFAD4E910232A
:102F800021F00041FDF7ECFA04F120000FC809D24E
:102F9000FDF7E6FACDD304F120000FC8FDF7C8FA1B
:102FA00010D2BBE7FDF797FAD4E9102321F00041D6
:102FB000FDF7BEFA06D2E5700C232AA230210020CC
:102FC000FFF7AAFE207998B1012806D0022807D081
:102FD000032833D0042809D133E00C2322A201E0D6
:102FE0000C2323A218210020FFF796FE0020207159
:102FF000D4E90A01CDE90001D4E908231EA1234840
:1030000000F092FB00210C23204A0846FFF784FEC3
:10301000D4E90E01CDE90001D4E90C231CA11B4821
:1030200000F082FB0C23194A19460020FFF774FEBA
:10303000FFF7F8FD012001F08CF868E70C2318A2D7
:10304000D0E70C2318A2CDE7000000207475726E43
:10305000206C6566740000007475726E207269677A
:1030600068740000676F0000686561646F757400C4
:103070006261636B6F757400464C3A252E32662090
:103080002046523A252E326600000000080100203A
:103090006C3A252E32662020723A252E32660000C8
:1030A0006C6566746F75740072696768746F7574A7
:1030B0000000000004484179012901D00020704738
:1030C0000021417101207047480000200EB5012207
:1030D00069496A48FFF720FA012269496948FFF700
:1030E0001BFAFFF719FD0020FFF7E6FC0020FFF7B1
:1030F000EFFCFFF797FD00210C2363A20846FFF7C2
:103100000BFE0C2366A219460020FFF705FE0C23D8
:1031100065A218210020FFF7FFFD0C2360A22421E7
:103120000020FFF7F9FD0C235DA230210020FFF7FE
:10313000F3FDFFF777FD0C235EA230210020FFF79F
:10314000EBFDFFF76FFDFDF741FC5C48FDF7CEFF9F
:1031500002215A48FDF753FC59A000F0D5FA4FF070
:103160007F570024584D00974FF4FA76CDE901546B
:1031700033461A4603215548FFF70EFEDFF84C810F
:10318000DFF84C913346C8F854900097CDE90154CC
:103190001A4603214F48FFF7FFFD4E4DDFF838A1D7
:1031A0004F4EC5F85490DFF83491DFF838B14EA097
:1031B000DAF8001000F0A8FA4C464DA0D9F800103B
:1031C00000F0A2FA4FA0316800F09EFAFFF74EFC23
:1031D0002068FDF786F9696DFDF7E4F902D20C234A
:1031E0004CA20EE0686D80F000472068FDF779F989
:1031F0003946FDF7CDF94FF00C0301D248A200E0AB
:103200004AA200210846FFF787FDFFF70BFD206863
:10321000002800DA4042FDF764F9696DFDF7C2F954
:1032200018D22068FDF75DF901460022274800F01A
:10323000C6FFD8F83C703846FDF761F9CBF80400BA
:10324000CBF800005C4687F00040FDF758F9E060DD
:10325000A0600CE03068642809DA3548C188CBF8F2
:103260000C10CBF80810CBF80410CBF800100A2093
:1032700000F06FFF9BE700004B0000205409002086
:103280004C0000209C090020313131313131313185
:10329000313131313131313131313131313131004F
:1032A000746573740000000068656C6C6F20776F44
:1032B000726C64006E6968616F000000C4070020D2
:1032C0004F4B0D0A00000000CDCCCC3D044B00203C
:1032D00000007A44704B0020500000205400002071
:1032E00058000020F800002069643A25640D0A00A7
:1032F000785F7472616E736C6174696F6E3A256485
:103300000D0A000064697374616E63653A25640D8B
:103310000A0000007475726E20726967687400009C
:103320007475726E206C656674000000676F210012
:103330000000002010B5502080F31188BFF34F8F9C
:10334000BFF36F8F02F05CF918B104494FF0805061
:103350000860002080F3118810BD000004ED00E03B
:1033600030B58FB028216846FCF773FF14210AA8F6
:10337000FCF76FFF01210804CDE90010002402943E
:1033800002250491CDE907504FF4E01009906846FA
:10339000FEF774FA08B172B6FEE70F20CDE90A0510
:1033A0004FF48060CDE90C4002210AA80E94FEF78C
:1033B00069F9002801D072B6FEE70FB030BD704742
:1033C0000148FEF70CBE0000E4090020F0B50268D9
:1033D0001C4B1D4D1D4E1E4F1E4C4FF0804C9842F5
:1033E00009D0A04207D0604505D0A84203D0B04222
:1033F00001D0B84204D122F0700E4A6842EA0E02AF
:10340000984209D0A04207D0604505D0A84203D019
:10341000B04201D0B84203D122F44075CA682A43B1
:103420004D6922F080022A4302608A68C2620A68FB
:103430008262984201D0A04201D109690163012151
:103440004161F0BD002C0140000400400008004034
:10345000000C00400034014010B5406A0021C185D5
:10346000C184FEF77DFE10BD01680C3151E8002FCC
:1034700022F4907241E80023002BF5D10168143149
:1034800051E8002F22F0010241E80023002BF5D182
:10349000016B012909D101680C3151E8002F22F09C
:1034A000100241E80023002BF5D1202180F84210C2
:1034B00000210163704708B590F84210222901D01D
:1034C000022008BD82684FF480539A4201D10169FD
:1034D00021B1816A9A421BD04AB10AE00268816A2E
:1034E0005268C2F308020A80816A891C08E00269F6
:1034F00072B10268526802F07F020A70816A491C48
:103500008162C18D491E0904090CC18503D01BE0ED
:1035100002685268F1E70168CA6822F02002CA60B6
:103520000168CA6822F48072CA6001684A6922F0A0
:1035300001024A61202180F8421000214163026BA0
:10354000012A03D0FEF7F6FF002008BD01630168E1
:103550000C3151E8002F22F0100241E80023002B2B
:10356000F5D101680A68D20602D50A684968009157
:10357000818DFEF7F4FDE7E770B504460068016948
:10358000E26821F44051114301612169A0680843B8
:10359000616908432168CA6841F20C639A43024397
:1035A000CA6020684169A26921F4407111434161F8
:1035B0001E492068884202D1FEF72AF901E0FEF791
:1035C00017F900EBC00101EB001260686421800074
:1035D000B2FBF0F3B3FBF1F36FF018067343B2FBE9
:1035E000F0F5B2FBF0F605EB8305322303EB05158E
:1035F000B5FBF1F5B6FBF1F605F0F00505EB0615A8
:10360000B2FBF0F6B2FBF0F0B0FBF1F06FF0180295
:10361000504306EB800003EB0010B0FBF1F0216893
:1036200000F00F002844886070BD000000380140A1
:1036300081628285C28500214164222180F8421086
:10364000016921B10168CA6842F48072CA600168E8
:103650004A6942F001024A610068C16841F02001F4
:10366000C160002070472DE9F041984617460E468C
:103670000446069D27E0681C25D02DB1FDF738FFD4
:10368000A0EB0800A8421ED920680C3050E8001FAB
:1036900021F4D07140E80012002AF5D120681430DE
:1036A00050E8001F21F0010140E80012002AF5D186
:1036B000202084F8410084F84200002084F8400073
:1036C0000320BDE8F0812068006836EA000004D0DD
:1036D0000020B842CFD00020F3E70120F9E7000036
:1036E0000148FEF743BD0000540900200148FEF7E1
:1036F0003DBD00009C0900200148FDF7F4BA000020
:10370000C4070020FEE700000FB4054B10B503A965
:10371000044A029800F0FEF810BC5DF814FB0000AB
:10372000A5400008F40000200FB4084B10B504A910
:1037300002AA039800F0EEF8044602A9002000F067
:1037400080FC204610BC5DF814FB000043400008DC
:103750000907090E002804DB00F1E02080F80014BE
:10376000704700F00F0000F1E02080F8141D704752
:1037700002E008C8121F08C1002AFAD1704770473A
:10378000002001E001C1121F002AFBD17047000098
:103790002DE9FF5F82B00021DDE90430020DDDF884
:1037A00040B0034318D044F61050A2F2FF32424317
:1037B0001514119801281FD0A5EB0B00401C5FEADF
:1037C000000A4FF000064E4FDFF83891B0465046E1
:1037D00015D5CAF1000413E0119801244AA3012869
:1037E00001D16FEA0B010298119AC0E90031C0E9DA
:1037F000024206B0BDE8F09FCBF10000DFE70446CF
:103800000021404A491842EB0450CDE9001012E073
:10381000E00707D032463B4640464946FCF7C8FF22
:103820008046894632463B4610461946FCF7C0FFA3
:1038300006460F466410002CEAD1DDE90401DDE9FB
:103840000023BAF1000F06DAFCF7B2FF42464B46FE
:10385000FCF7AEFF05E0FDF71DF842464B46FDF7CD
:1038600019F804460E460022284BFCF779FE03D8CF
:103870004FF0FF30014607E00022254B204631463D
:10388000FCF788FDFDF775F8102409E0002C0ADB31
:103890000A220023FCF7A6FE039B30321A55641E51
:1038A00050EA0102F2D1641C039AC4F111031444DA
:1038B000119A012A03D0012208430DD10AE00843DE
:1038C00004D000204FF0110B119072E7A3EB0B0511
:1038D0006D1E0DE05B4504DD4FF0000205F10105B2
:1038E00004E003DA4FF00002A5F10105002AECD054
:1038F00002981199C0E90231C0E9004579E700005A
:10390000000014400000F03F300000000000F043D1
:103910000000E03F2DE9FF4F95B09B4689460646E3
:1039200000250FE2252877D100242746F84A0121F7
:10393000059400E0044316F8013F203B01FA03F030
:103940001042F7D130782A2811D06FF02F03307849
:10395000A0F13002092A16D8059A44F0020402EBBD
:10396000820203EB42021044761C0590EFE759F8FF
:10397000042B0592002A03DA504244F400540590C7
:1039800044F00204761C30782E2816D116F8010F68
:1039900044F004042A280DD06FF02F023078A0F1F3
:1039A0003003092B09D807EB870302EB4303C71841
:1039B000761CF3E759F8047B761C30786C280FD01E
:1039C00006DC4C2817D068280DD06A2814D104E0F2
:1039D000742810D07A280FD10DE044F400140AE0C6
:1039E00044F4801401E044F440147278824202D11D
:1039F00004F58014761C761C307866280BD013DC16
:103A0000582877D009DC002875D04528F6D04628FC
:103A1000F4D047281AD19DE118E0632835D06428F6
:103A200079D0652812D195E1702873D008DC672819
:103A3000F1D069286FD06E280DD06F2806D1B5E07F
:103A400073282CD0752875D0782874D05A461799C9
:103A500090476D1C75E1C4F30250022809D0032879
:103A60000DD0D9F8001004280DD00D6009F104091B
:103A700067E1D9F80010EA17C1E90052F6E7D9F872
:103A800000100D80F2E70D70F0E719F8041B8DF8B7
:103A9000001000208DF80100EA46012003E059F8EB
:103AA00004AB4FF0FF3061074FF0000102D40DE08E
:103AB00008F101018846B9420FDA8045F8DB1AF8AF
:103AC00008100029F4D108E008F10101884681427C
:103AD000FADB1AF808100029F6D105985B46A0EB2E
:103AE000080721463846179A00F094FA284400EB5C
:103AF000080507E04DE029E10DE01AF8010B5A46F0
:103B000017999047B8F10108F7D25B46214638462D
:103B1000179A13E142E00A220092C4F302524FF0D6
:103B2000000A022A08D059F804CB032A4FEAEC71A4
:103B30000AD00DE029E02AE009F1070121F007028F
:103B4000F2E802C1914609E00FFA8CFC4FEAEC71F1
:103B5000042A03D14FFA8CFC4FEAEC71002907DAF2
:103B60000A460021DCF1000C61EB02012D2202E08B
:103B7000220504D52B228DF80420012203E0E20760
:103B800001D02022F7E7904659E00A2102E01022F6
:103B90000DE010214FF0000A00910BE010224FF0D1
:103BA000000A44F004040827009203E008224FF0C2
:103BB000000A0092C4F30252022A05D059F804CB3D
:103BC0000021032A08D009E009F1070121F00702CA
:103BD000F2E802C1914605E01FFA8CFC042A01D1EB
:103BE0000CF0FF0C4FF00008220728D5702806D0F3
:103BF000009B83F0100353EA0A0305D00EE0402235
:103C00008DF80420012208E05CEA010206D030228F
:103C10008DF804208DF8050002229046009B83F069
:103C2000080353EA0A030AD15CEA010201D16207E0
:103C300005D530228DF804204FF001087F1E58284A
:103C400004D034A003900EA802900DE036A0F9E74E
:103C500053466046009AFCF7C5FC84460398825C94
:103C60000298401E029002705CEA0100F0D10298B6
:103C700006A9081A00F1200A600702D524F480344E
:103C800000E00127574502DDA7EB0A0000E0002015
:103C900000EB0A01009005984144401A0590E003AA
:103CA00006D45B462146179A059800F0B3F90544FF
:103CB000002706E001A85A46C05D179990476D1C81
:103CC0007F1C4745F6DBE0030CD55B462146179A7F
:103CD000059800F09FF9054404E030205A461799F2
:103CE00090476D1C0099481E00900029F5DC08E003
:103CF000029802995A460078491C029117999047F8
:103D00006D1CBAF10001AAF1010AF1DC65E10000C5
:103D100009280100303132333435363738396162A1
:103D20006364656600000000303132333435363765
:103D300038394142434445460000000000F058F93C
:103D40000544761C307800287FF4ECAD19B0284685
:103D5000BDE8F08F620700D4062709F1070222F0C0
:103D6000070CFCE80223E14603F000485FEA080C78
:103D700002D00FF2702C0DE05FEA045C02D50FF266
:103D8000682C07E05FEAC47C02D00FF2602C01E0EF
:103D9000AFF2700C4FF0FF3823F00043CDF850C065
:103DA00065280CD006DC452809D046281DD04728B8
:103DB0003DD13DE0662818D067287ED138E000214B
:103DC000112F01DB112000E0781CCDE9000106A9CC
:103DD0000EA8FFF7DDFCDDE90F010E9A039100212B
:103DE000009207F1010A04914DE04FF00040009766
:103DF000CDE9011006A90EA8FFF7CAFCDDE90F0204
:103E000003920E9B11990022DDF80CA000930492FE
:103E100011B9791C00EB010AB7EB0A0004D4C0F118
:103E2000FF3007F1010A0490AAEB0700019044E07B
:103E3000012F00DA01270021112F01DD112000E000
:103E40003846CDE9000106A90EA8FFF7A1FCDDE97F
:103E50000F010E9A0391002104910092BA462107A6
:103E60000CD40399514500DA8A46BAF1010F05DDF9
:103E7000009AAAF10101515C302908D0B84202DA57
:103E800010F1040F06DA0121CDE9011015E0AAF1C5
:103E90000101E9E7002805DC049901440491AAEB3B
:103EA000000102E0411C514500DD8A460499401A98
:103EB000401C01904FF000400290200704D401986C
:103EC000504501DBCDF8048000208DF84F000298AA
:103ED0000DF14F07B0F1004F25D02B200E90029826
:103EE0004FF0020800280CDA404202902D200E907C
:103EF00007E00A210298FCF75FFB3031029007F8D7
:103F0000011DB8F10001A8F10108F2DC02980028B7
:103F1000EFD1791E0E980870307800F0200040F044
:103F2000450007F8020D12A8C01B00F107081498FD
:103F3000007800B1012000EB0A01019801EBE0716B
:103F400005984144401A401E0590E00306D45B46A4
:103F50002146179A059800F05DF8054414980078FA
:103F600018B15A46179990476D1CE00324D55B465B
:103F70002146179A059800F04DF805441CE0049876
:103F8000002807DBDDE90301884203DD0098405C7F
:103F9000179901E0179930205A469047049805F187
:103FA0000105401C04900198401E019004D12E2070
:103FB0005A46179990476D1CBAF10001AAF1010AFF
:103FC000DDDC05E017F8010B5A46179990476D1C88
:103FD000B8F10001A8F10108F4DC5B462146179A0C
:103FE0000598ABE62D0000002B000000200000002B
:103FF0002DE9F041044600251E461746880404D4E6
:1040000005E039462020B0476D1C641EF9D52846CE
:10401000BDE8F0812DE9F041044600251E4690469A
:10402000C80301D5302700E02027880404D505E027
:1040300041463846B0476D1C641EF9D52846BDE898
:10404000F0810A68531C0B601070704770B504460D
:104050000E4681F000450068FCF7A4FA00D2266005
:1040600028462168FCF79EFA00D2256070BD00004A
:1040700010B5044600210848FCF7AAFD00280AD024
:104080002346064A00210448FCF7B3FD0348044ACE
:1040900001885180007C10BDC407002038490020F1
:1040A000E000002013B54FF6FF7301226946024875
:1040B000FEF7E0FA00981CBD5409002030B5134A01
:1040C0000489448111886FF0040549BA018153883D
:1040D0005BBA4380038093885BBA1BB293FBF5F312
:1040E0008380927982710B1B0269B3F5805F01DDD9
:1040F000521E03E013F5805F01DA521C026101EBEE
:1041000042318289891A416130BD0000EC000020F3
:104110000249098849BA018181817047EC00002079
:10412000FDF7F4F9FFF71CF9FEF756FBFEF7F2FA7C
:10413000FEF7AEFBFEF7C8FBFEF786FBFEF70CFBB7
:1041400000F00EF8FEE701460020842900D0C81CCC
:10415000704710B500B9012000F054FE002010BDDA
:1041600010B500F0B7FE002010BD7FB50D46044627
:104170004169B0F9080081B1A16971B1FFF7E3FFAE
:10418000D4E905128DE80700D4E900102B46226916
:1041900001F0F7F9039004B070BDFFF7D4FF03A955
:1041A000CDE90001208A2B4682B2D4E9001001F04B
:1041B000BBF9012801D00020EDE70398EBE72DE9DA
:1041C000F0414261044601621046FCF79FF8E0624C
:1041D000216D4FF4000511F0FF4F06D0A84201DA1F
:1041E00080F00040FCF7DEF90BD3616D11F0FF4F5A
:1041F0000AD0E06AA84201DA80F00040FCF7C8F972
:1042000002D20020BDE8F081A06D04F1340503283E
:1042100002D0042830D06AE0E66A20683146FCF714
:104220007BF8206331466068FCF776F8616BFCF739
:104230001BF860633046A16AFCF768F8A168FCF7D8
:104240006BF8A063206EFCF755F901462846FFF78E
:10425000FDFED4E90C01FCF707F8A16BFCF704F8AC
:10426000E063E06DFCF746F9014604F13C00FFF71E
:10427000EDFEE06B20643AE0D4E90A763946304638
:10428000FCF744F82168FCF747F820633146606882
:10429000FCF742F8606301213846FCF76FF83146BD
:1042A000FCF737F8616AFBF7DFFFA168FCF734F829
:1042B000A063206EFCF71EF901462846FFF7C6FEF4
:1042C000D4E90C01FBF7D0FFA16BFBF7CDFF014652
:1042D0006064E06CFBF7C8FFA064E06DFCF70AF9CE
:1042E000014604F14800FFF7B1FEA06CE064A06A4B
:1042F0006062E06AA062E069A061206AE061206912
:10430000E06060692061A06D032801D0A06C79E7AE
:10431000E06B77E770B50DF1100C9CE8700000F1D0
:10432000580C8CE80E0080E8700070BD80E80E002C
:10433000704700002DE9F041184C0F4605466669AC
:104340002068001D00F02EFC38B9206890F82C1071
:1043500001208840A1698143A161681C07D137B160
:104360002168BDE8F0410E48091D00F06BBC2068D3
:104370003544B5424560216805D2A068BDE8F041EA
:10438000091D00F047BC6068091D00F043FC206B6C
:10439000854200D22563BDE8F08100006C0000205A
:1043A000480B00202DE9F041054600F057FC2E4C4B
:1043B0002069401C206120682C4F10B1E06940B397
:1043C0002DE025602069012829D1002606EB860012
:1043D00007EB800000F010FC761C072EF6D3234874
:1043E0008C3000F009FC2148A03000F005FC1F488B
:1043F000B43000F001FC1D48C83000F0FDFB1B4844
:10440000DC3000F0F9FB19488C3060601430A0609B
:1044100005E02068E96AC06A884200D82560E06A41
:10442000401CE062E96A0120A26988401043A06153
:1044300001EB810007EB8000291D00F003FC00F078
:104440002DFCE06900280CD02068E96AC06A884227
:1044500007D207494FF080500860BFF34F8FBFF37A
:104460006F8FBDE8F08100006C0000206C0A002016
:1044700004ED00E038B500F0F1FB104CA068C8B9BD
:104480000F4800F0B9FB0E48143000F0B5FB0C48A3
:104490002060143060600A4B00202833009003F144
:1044A00048020C210A2000F0E3FDA06010B105A134
:1044B00000F072FCBDE8384000F0F0BBA80000201E
:1044C0005C0B0020546D72510000000030B4026C8F
:1044D0000B46002A0BD0C1681144C1604468A14258
:1044E00001D30168C16030BC1846FBF799BE30BCEF
:1044F00070472DE9F041856B174604460026026C93
:1045000082B1C7B1E068FBF78BFEE168206C091A45
:10451000E1602268914202D26168081AE060022FCD
:1045200016D017E02068A8B9606801F0CDF80646FB
:10453000002060600EE0A068FBF772FE216CA068AE
:104540000844A0606168884204D32068A06001E04C
:1045500005B16D1E6D1CA5633046BDE8F08110B538
:10456000044690F8510058B101280CD002280FD011
:10457000502080F31188BFF34F8FBFF36F8FFEE79A
:10458000206B00F09FFB2046BDE8104000F09ABB76
:1045900010BD000010484FF47051420706D0C01DF6
:1045A0000D4920F00700411AC1F570510B4A002354
:1045B0000144C2E900030839103A21F007011160F3
:1045C0004B600B600B1AC0E9001393604FF0004082
:1045D0005360D06070470000440C0020CC000020E5
:1045E000144E154CA6F1C8074FF08058DFF84C90D8
:1045F00012E000BF00F032FBF068C568281D00F033
:10460000D1FA2069401E2061E068401EE06000F0A1
:1046100045FB2846FFF7A3FFE0680028EAD1386889
:104620000128F9D9C9F80080BFF34F8FBFF36F8F0E
:10463000F2E70000340B00206C00002004ED00E0E5
:104640000346009829B10260C0E90F31012100F052
:1046500043BD0060F8E72DE9F0479A46DDE909849B
:1046600081466FF00303206B03EB82021044089D28
:1046700020F00706700707D0502080F31188BFF3A1
:104680004F8FBFF36F8FFEE723180A5C83F8342047
:104690000A5C12B1401C1028F6D3002784F843703E
:1046A000072D00D30625E562C4E91157201D00F04F
:1046B000AEFA04F1180000F0AAFA2461C5F107006F
:1046C0006462A061E76484F85070524649463046FF
:1046D00000F032FA2060B8F1000F01D0C8F80040B5
:1046E000BDE8F08730B5114900E011460A68824202
:1046F000FBD34B685C18844203D14068184448607F
:10470000084643681C18944209D1084C103C2468A0
:10471000A24209D052681A4442600A6812680260D4
:10472000814200D0086030BD0460F9E7CC00002071
:1047300070B5002441600B4D0061914206D8D11A3A
:104740008269914206D2011D686807E09A4203D24D
:10475000994201D3012403E0011D286800F05AFAB0
:10476000204670BDA800002010B5044600F076FA7F
:10477000A06B28B15FF0000400F090FA204610BD55
:104780000124F9E730B587B02C4D4EE0049800289D
:104790004BDB069C606910B1201D00F003FA02A8F3
:1047A00000F0B8F8024604980A283ED2DFE800F08C
:1047B0000505053D263705053D260598A1690346F3
:1047C00001442046FFF7B4FF00B3616A20468847E2
:1047D000E069012829D1002000900598A1690023F3
:1047E00042181946204601F087F878B9502080F326
:1047F0001188BFF34F8FBFF36F8FFEE70598A0615D
:1048000028B1811813462046FFF792FF0DE0502093
:1048100080F31188BFF34F8FBFF36F8FFEE794F8DB
:10482000280010B9204600F04DFA002204A9A8681B
:1048300000F0A4FD0028A9D107B030BDA8000020D9
:104840002DE9FC410F46054600F088FB01A800F069
:1048500061F80446019818B100F0BCFFBDE8FC8186
:10486000224EAFB170680068A8B30027291B3A46F2
:10487000B06800F0A5FA00F0ADFF0028EED11C49A9
:104880004FF080500860BFF34F8FBFF36F8FE5E7A5
:10489000A542EBD800F09EFF30682746C068C46888
:1048A000201D00F07FF9E069012810D1A0692B4696
:1048B00041193A462046FFF73BFF40B1002003462E
:1048C000014600902A46204601F016F820B1616AA0
:1048D00020468847C2E707E0502080F31188BFF3E5
:1048E0004F8FBFF36F8FFEE70127BFE7A8000020BF
:1048F00004ED00E006484168096829B14168C968CB
:10490000C9684968016370474FF0FF31FAE700005A
:104910006C00002070B5054600F06CFE064E0446A3
:104920003069844203D200F009F8012000E0002041
:1049300028602046346170BDA8000020F8B5194DEC
:104940001FE0C068C4680668201D00F02BF9616A8A
:1049500020468847E069012813D1A0693044B0425D
:1049600006D924616060211D286800F053F908E031
:1049700000200346014600903246204600F0BCFF6E
:1049800038B1286801680029DBD16968C5E90010E1
:10499000F8BD502080F31188BFF34F8FBFF36F8FA6
:1049A000FEE70000A800002008484068401C4FF0C7
:1049B000500080F3118804D0BFF34F8FBFF36F8F87
:1049C000FEE7BFF34F8FBFF36F8FFEE7D4000020E9
:1049D000074C2068016841B1C0680021D0F8000090
:1049E000FFF72EFFFFF7CEFEF3E701210020F7E7E8
:1049F000A80000202DE9F041044600F02FF994F9B9
:104A0000455004F1240609E0606A48B1304600F0E0
:104A1000A7FE08B100F024FA6D1E6DB2002DF3DC84
:104A20004FF0FF3684F8456000F038F900F016F9D1
:104A300094F9445004F1100709E0206948B1384660
:104A400000F08EFE08B100F00BFA6D1E6DB2002D65
:104A5000F3DC84F84460BDE8F04100F01FB90000C9
:104A60002DE9F0410546002700F078FA314E306814
:104A700008B9FFF78FFDF06805424BD1C5B3083583
:104A800068070ED005F00700C0F10800054468076C
:104A900007D0502080F31188BFF34F8FBFF36F8F83
:104AA000FEE72DB37068854234D8224810300146A5
:104AB0000C6801E020460C466168A94202D22168D8
:104AC0000029F7D131688C4224D007682168016041
:104AD00060680837411B10290FD96019420708D0B8
:104AE000502080F31188BFF34F8FBFF36F8FFEE725
:104AF00010E041606560FFF7F5FD61687068401A7D
:104B00007060B268904200D2B060F068014300204B
:104B1000C4E9000100F05EFE780707D0502080F362
:104B20001188BFF34F8FBFF36F8FFEE73846BDE8A4
:104B3000F0810000BC00002010B5031F4FF080740E
:104B40001C601B1F21F001011960191F024B0B6033
:104B5000143940380A6010BDA9490008F8B501248D
:104B600000940E4C069D082626610026A660E6608D
:104B70004FF4007626600A4C0E0A26706170110A06
:104B8000A170E270190A21716371290AA171E5719E
:104B90006B4622460149FBF744FFF8BD204900203F
:104BA000E4000020D0E9013201699A60D0E90123D4
:104BB0005A604A68824201D182684A6000220261DA
:104BC0000868401E0860086870470000034B0360D7
:104BD00003F1540008608020106070471C01002021
:104BE000044B036003F1540008604FF480701060C0
:104BF000704700007003002000F108014FF0FF3201
:104C0000C0E90112C160016100210160704700210B
:104C10000161704730B50B685A1C02D000F10802E0
:104C200002E0026904E02246546825689D42FAD9F0
:104C300053684B6099608A60516008610168491C43
:104C4000016030BD42684A6093688B609368596028
:104C5000916008610168491C01607047502080F331
:104C60001188BFF34F8FBFF36F8F0A494868401C0C
:104C7000486001280CD10848006810F0FF0F07D0E9
:104C8000502080F31188BFF34F8FBFF36F8FFEE783
:104C900070470000D400002004ED00E00849486897
:104CA00028B1401E486001D180F311887047502020
:104CB00080F31188BFF34F8FBFF36F8FFEE70000C3
:104CC000D400002070B5002827D0144DA0F10804AE
:104CD0006168E868014207D1502080F31188BFF372
:104CE0004F8FBFF36F8FFEE722683AB1502080F3F9
:104CF0001188BFF34F8FBFF36F8FFEE78143616071
:104D000000F02CF960686968084468602046FFF785
:104D1000E9FCBDE8704000F05DBD70BDBC00002046
:104D20004FF0E02000210161816105494FF47A7262
:104D30000968B1FBF2F1491E416107210161704729
:104D40006800002010B5FBF745FA114910280ED372
:104D500000F1E02090F8F0030A78904207D250204A
:104D600080F31188BFF34F8FBFF36F8FFEE70948C1
:104D70000068896800F4E060884207D9502080F319
:104D80001188BFF34F8FBFF36F8FFEE710BD000098
:104D9000D40000200CED00E010B5084B002200BF4D
:104DA00053F832401CB1521C082AF9D310BD43F805
:104DB000321003EBC201486010BD00002C0A002035
:104DC00070B515460E460446FFF748FF94F94410A7
:104DD0000020491C01D184F8440094F94510491C75
:104DE00001D184F84500FFF759FFA06B28B92A4686
:104DF000314604F1240000F051F82046BDE870402F
:104E0000FFF7F8BD10B5020014D00F48806B38B121
:104E1000502080F31188BFF34F8FBFF36F8FFEE7F1
:104E200000F09CF800211046FFF784FA00F0D2FC55
:104E3000002807D105494FF080500860BFF34F8F1D
:104E4000BFF36F8F10BD00006C00002004ED00E088
:104E500002498A6A02604969416070476C0000201B
:104E600001490120486270476C00002010B50C46D3
:104E700050B1094909681831FFF7CCFE2046BDE85A
:104E800010400121FFF756BA502080F31188BFF37C
:104E90004F8FBFF36F8FFEE76C00002070B5144694
:104EA0000D4668B10A4909681831FFF7CBFE0CB10D
:104EB0004FF0FF3521462846BDE87040FFF73ABA6B
:104EC000502080F31188BFF34F8FBFF36F8FFEE741
:104ED0006C00002030B587B00024039405AA04A913
:104EE00003A80494FFF772FEDDE903010094CDE905
:104EF0000110002315A11748059A00F042FB164D3A
:104F0000002868631FD000F0C7FC012809D0401CAE
:104F100019D1502080F31188BFF34F8FBFF36F8FEB
:104F2000FEE7502080F31188BFF34F8FBFF36F8FE0
:104F30004FF0FF3028630120E8616C6107B0BDE8E5
:104F4000304000F041B807B030BD000049444C4546
:104F500000000000E14500086C0000200248816B61
:104F6000491C8163704700006C0000201448816B6D
:104F700011B1012141627047002141628169B1FA9A
:104F800081F1C1F11F0101EB81020E4951F822307C
:104F90006BB101EB820101F108034A6852684A6073
:104FA0009A4201D152684A60D1680160704750202E
:104FB00080F31188BFF34F8FBFF36F8FFEE70000C0
:104FC0006C0000206C0A00201CB52649087801906E
:104FD000FF20087008788DF800009DF800009DF80B
:104FE000002000F0F000904207D0502080F311889C
:104FF000BFF34F8FBFF36F8FFEE79DF800001A4B92
:1050000000F0500018700720986005E09DF800201F
:1050100052008DF80020401E9DF800201206F5D4A5
:105020009860032807D0502080F31188BFF34F8F7A
:10503000BFF36F8FFEE74FF44070986001980870DF
:105040000A48016841F470010160016841F0704153
:105050000160FFF765FE00205860FBF785F800202F
:105060001CBD000000E400E0D400002020ED00E0C2
:1050700038B5049D18B153B1CAB181B120E05020B8
:1050800080F31188BFF34F8FBFF36F8FFEE750207F
:1050900080F31188BFF34F8FBFF36F8FFEE750206F
:1050A00080F31188BFF34F8FBFF36F8FFEE739B1E5
:1050B000502080F31188BFF34F8FBFF36F8FFEE74F
:1050C00048241C46012384F846302B460094FFF701
:1050D000B7FA204638BD000070B50D46040025D053
:1050E000FFF7BCFDD4E90F20216802FB00116160CD
:1050F0000021A1632168A1600A46D4E90F01401E86
:1051000000FB0121E16021464FF0FF3001F8440F20
:10511000487004F110008DB1FFF76EFD04F124001A
:10512000FFF76AFDFFF7BAFD012070BD502080F344
:105130001188BFF34F8FBFF36F8FFEE721690029FE
:10514000F0D000F00DFB0028ECD004494FF0805067
:105150000860BFF34F8FBFF36F8FE3E704ED00E00C
:105160002DE9FF4782B01D468A464FF00008040033
:1051700003D0BAF1000F08D011E0502080F311885D
:10518000BFF34F8FBFF36F8FFEE7206C38B1502015
:1051900080F31188BFF34F8FBFF36F8FFEE7022DAF
:1051A0000AD1E06B012807D0502080F31188BFF3AB
:1051B0004F8FBFF36F8FFEE700F00EFA3F4F4FF0B7
:1051C00000094FF0805648B9049838B1502080F358
:1051D0001188BFF34F8FBFF36F8FFEE7FFF73EFDE0
:1051E000A06BE16B884207D3022D05D00498D0B1A3
:1051F000B8F1000F1AD01EE02A4651462046FFF7AC
:1052000078F9616A19B104F1240000F0A9FA20B11B
:105210003E60BFF34F8FBFF36F8FFFF73FFD01205D
:1052200006B0BDE8F087FFF739FD22E06846FFF7DA
:105230000FFE4FF00108FFF731FDFFF78FFEFFF77C
:105240000DFD94F94400401C01D184F8449094F978
:105250004500401C01D184F84590FFF71FFD04A9CB
:10526000684600F027F930B12046FFF7C3FB00F095
:10527000B1FA0020D4E7FFF7F1FCA06BE16B8842A4
:1052800013D1FFF70BFD04F110000499FFF7EEFDB9
:105290002046FFF7AFFB00F09DFA00289ED13E604C
:1052A000BFF34F8FBFF36F8F98E7FFF7F7FC2046F0
:1052B000FFF7A0FB00F08EFA90E7000004ED00E09D
:1052C0002DE9F0471F4690468946040003D0B9F106
:1052D000000F08D011E0502080F31188BFF34F8FEA
:1052E000BFF36F8FFEE7206C38B1502080F3118838
:1052F000BFF34F8FBFF36F8FFEE7022F0AD1E06B32
:10530000012807D0502080F31188BFF34F8FBFF3DF
:105310006F8FFEE7FFF716FD5020EFF3118680F345
:105320001188BFF34F8FBFF36F8FA06BE16B884283
:1053300006D3022F04D0002086F31188BDE8F08741
:1053400094F945503A4649462046FFF7D2F8681C82
:1053500004D06D1C84F845500120EDE7606A0028F8
:10536000FAD004F1240000F0FBF90028F4D0B8F1E1
:10537000000FF1D00121C8F80010EDE72DE9F74743
:10538000002683B08A46040003D0BAF1000F08D08B
:1053900011E0502080F31188BFF34F8FBFF36F8F60
:1053A000FEE7206C38B1502080F31188BFF34F8F97
:1053B000BFF36F8FFEE700F00FF9DFF8F4804FF0D6
:1053C00000094FF0805748B9059838B1502080F354
:1053D0001188BFF34F8FBFF36F8FFEE7FFF73EFCDF
:1053E000A56BC5B151462046FFF770F86D1EA56349
:1053F000206950B104F1100000F0B2F928B1C8F8EA
:105400000070BFF34F8FBFF36F8FFFF747FC012092
:1054100006B0BDE8F087059808B11EB106E0FFF7B9
:105420003DFC27E06846FFF713FD0126FFF736FC39
:10543000FFF794FDFFF712FC94F94400401C01D1E2
:1054400084F8449094F94500401C01D184F84590BB
:10545000FFF724FC05A9684600F02CF80028204638
:105460000AD0FFF7C7FA00F0B5F92046FFF77CF93C
:105470000028B3D00020CBE7FFF776F990B104F114
:1054800024000599FFF7F2FC2046FFF7B3FA00F07D
:10549000A1F90028A2D1C8F80070BFF34F8FBFF365
:1054A0006F8F9BE72046FFF7A5FA00F093F995E789
:1054B00004ED00E02DE9F0410C46050011D0C4B127
:1054C000FFF7CCFB174B5A696E682068911B471C8D
:1054D00017D02F689B6A9F4219D0964217D8012493
:1054E00010E0502080F31188BFF34F8FBFF36F8F10
:1054F000FEE7502080F31188BFF34F8FBFF36F8F0B
:10550000FEE70024FFF7CAFB2046BDE8F081884291
:1055100005D9401A20602846FFF79AFCF1E70020E1
:105520002060DCE76C0000202DE9FF5F8346DDE9A9
:105530000E87994616468A469000FFF791FA0500B5
:105540001CD05420FFF78CFA040014D000202563EF
:1055500084F85100CDE90240CDE900874B46324640
:1055600051465846FFF777F82046FEF71BFF01200B
:1055700004B0BDE8F09F2846FFF7A4FB4FF0FF30D2
:10558000F6E7F0B585B0DDE90B640A9DA6B1DCB1A4
:10559000542700972663022684F85160002604AF42
:1055A000CDE90246CDE90057FFF755F82046FEF752
:1055B000F9FE049805B0F0BD502080F31188BFF3C8
:1055C0004F8FBFF36F8FFEE7502080F31188BFF33A
:1055D0004F8FBFF36F8FFEE70548C16919B1806B2C
:1055E00018B100207047012070470220704700006A
:1055F0006C00002001484069704700006C000020EA
:105600002DE9F0412E4C0027A06B40B1206A401CD0
:105610002062606A00B101273846BDE8F081666902
:10562000761C666113D16068006838B1502080F341
:105630001188BFF34F8FBFF36F8FFEE76068A168DB
:105640006160A060A06A401CA062FFF753F9206B64
:10565000DFF87080864209D36068006880B16068B6
:10566000C068C568686886420DD220632068C06A39
:1056700000EB800158F821000128CAD90127C8E7AA
:105680004FF0FF30F1E7281DFFF78CFAA86A18B138
:1056900005F11800FFF786FAE86A0121A269814046
:1056A0001143A16100EB800108EB8100291DFFF788
:1056B000C9FAE86A2168C96A8842CDD30127CBE7D5
:1056C0006C0000206C0A002070B504004FF000014F
:1056D00040D0214D2868844207D0502080F31188A3
:1056E000BFF34F8FBFF36F8FFEE7A06C38B1401E42
:1056F000A064636CE26A9A422CD040B12AE0502048
:1057000080F31188BFF34F8FBFF36F8FFEE7201D2B
:10571000FFF748FA114A012150B9E06A00EB800313
:1057200052F8233023B9AB6901FA00F08343AB612F
:10573000606CE062C0F10700A061E06AAB69814083
:105740001943A96100EB800002EB8000211DFFF7E7
:1057500079FA0121084670BD6C0000206C0A002017
:105760002DE9F041C068C468ACB104F118000746E7
:10577000FFF718FA154DA86B0126A0B13946144859
:10578000FFF760FAE06A2968C96A88421CD90120DB
:105790006E62BDE8F081502080F31188BFF34F8F17
:1057A000BFF36F8FFEE7201DFFF7FCF9E16AAA69DE
:1057B00006FA01F01043A86101EB81000449B439F5
:1057C00001EB8000211DDBE70020E2E76C000020F8
:1057D000200B00202DE9F0472C4D00242746A86B14
:1057E00038B1FFF73BFAA86B401EA863A86B40B125
:1057F00046E0502080F31188BFF34F8FBFF36F8FC7
:10580000FEE72969224E0120D1B3A6F1B4098046F2
:105810003068E8B1F068C46804F11800FFF7C2F915
:10582000201DFFF7BFF9E06AAA6908FA00F11143E9
:10583000A96100EB800109EB8100211DFFF702FA4D
:10584000E06A2968C96A8842E2D3C5F82480DFE7A4
:105850000CB1FFF74FF82C6A44B14646FFF7D0FE73
:1058600000B16E62641EF9D100202862686A38B106
:105870000849012738070860BFF34F8FBFF36F8FC8
:10588000FFF70CFA3846BDE8F08700006C000020F6
:10589000200B002004ED00E010B586B0FEF7EAFD15
:1058A000114CA068B8B100200390049005AA04A987
:1058B00003A8FFF795F9DDE9032102208DE8070031
:1058C00000230AA10B48059AFFF75BFEE06010B1C8
:1058D00006B0012010BD502080F31188BFF34F8F18
:1058E000BFF36F8FFEE70000A8000020546D722008
:1058F00053766300D1490008FEB51E4613460200E8
:10590000089D4FF0000014D0124CA768002F0FD054
:10591000CDE900130292062915DAFFF75DFE022891
:105920004FF000030DD000226946A068FFF718FC75
:10593000FEBD502080F31188BFF34F8FBFF36F8FF0
:10594000FEE72A46F0E70023324669463846FFF76D
:10595000B7FCFEBDA8000020E4710008CD300008AF
:1059600002000000000000008000000000000000B5
:1059700000000000D07100080529000800000000A8
:105980000000000080000000000000000000000097
:1059900000720008BD2D000801000000000000009A
:1059A000800000000000000000000000D871000826
:1059B000092F000801000000000000008000000026
:1059C0000000000000000000F0710008912D0008A8
:1059D0000100000000000000800000000000000046
:1059E00000000000010202030405060708090A0B73
:1059F0000C0D0E0F1010000000000000000001024E
:105A00000304060708090000000001020304000067
:105A100000000000000000000000000000003F4007
:105A20000000000000000000300040003000400096
:105A3000000009000BC03D000BC03D00090018C06C
:105A400024407FE0224031800000180024C01B0069
:105A50000D803240018003801C4027401C8007409D
:105A60000040100060000000000000000000000086
:105A7000000000001F802040402000004020204007
:105A80001F8000000000090006001F8006000900BA
:105A90000000040004003F80040004000000001027
:105AA000006000000000000000000400040004008A
:105AB000040004000000000000400000000000009E
:105AC0000000002001C006003800400000001F80D8
:105AD0002040204020401F800000000010403FC0B8
