:020000040800F2
:10000000E05D0020DD010008794E0008FB43000898
:10001000614C00082D0D00081D5F00080000000065
:100020000000000000000000000000004501000882
:100030009D0D00080000000089010008F954000827
:10004000F7010008F7010008F7010008F7010008B0
:10005000F7010008F7010008F7010008F7010008A0
:10006000F7010008F7010008F7010008F701000890
:10007000F7010008F7010008F7010008F701000880
:10008000610D0008F7010008210C0008F7010008C5
:100090000D5F0008F7010008F7010008F7010008EC
:1000A000F7010008B1550008F7010008F701000842
:1000B000F7010008F7010008F7010008F701000840
:1000C000F7010008F7010008F7010008F701000830
:1000D000F7010008795E0008895E0008FD5E0008EF
:1000E000F7010008F7010008F7010008F701000810
:1000F000F7010008F7010008F7010008310C0008BB
:10010000F7010008F7010008F7010008F7010008EF
:10011000F7010008F7010008F7010008F7010008DF
:10012000F7010008F7010008F7010008F7010008CF
:10013000DFF80CD000F0C4FC0048004781A10008A3
:10014000E05D0020224B19680868B0E8F00F80F3EA
:100150000988BFF36F8F4FF0000080F311884EF0D5
:100160000D0E70470000000006480068006880F32C
:10017000088862B661B6BFF34F8FBFF36F8F00DFA1
:1001800000BF00BF08ED00E0EFF30980BFF36F8F01
:100190000F4B1A6820E9F00F106008B54FF05000BF
:1001A00080F31188BFF34F8FBFF36F8F0CF018F8F7
:1001B0004FF0000080F31188BDE808401968086816
:1001C000B0E8F00F80F30988BFF36F8F704700BF6E
:1001D000940A0020EFF3058070470000064880472E
:1001E00006480047FEE7FEE7FEE7FEE7FEE7FEE71C
:1001F000FEE7FEE7FEE7FEE7AF5500083101000825
:10020000202A04DB203A21FA02F00021704721FA6B
:1002100002F3D040C2F120029140084319467047D2
:1002200040EA01039B0703D009E008C9121F08C078
:10023000042AFAD203E011F8013B00F8013B521EF8
:10024000F9D27047D2B201E000F8012B491EFBD26F
:1002500070470022F6E710B513460A4604461946D1
:10026000FFF7F0FF204610BDF0B480EA0102D40F82
:100270004200B2EB410F02D20246084611464A0044
:1002800042D0C30DDDB2C1F3C752AD1A202D35DA0D
:10029000C1F3160141F4000204B15242C5F1200637
:1002A00002FA06F12A411044B3EBD05F23D0C4B167
:1002B000012DA0EBC35009DCF0BC4FF0004202EA74
:1002C000C352DBB200F5000000F018BA400000F1A4
:1002D000807000EBC350A0F1807040EAD1704900FB
:1002E00009E0490841EAC071A0EBC35000F50000E5
:1002F000400800EBC350F0BC00F0F7B961420122A6
:1003000002EB4101001BF6E7F0BC704781F00041B1
:10031000AAE780F00040A7E780EA010210B502F0EA
:100320000043400022D04A001FD0010E01EB1261B1
:10033000C0F35600C2F3560240F4000042F400023B
:10034000A0FB022000047F39140400D0401C50EAB6
:10035000124001D44000491EC2B20C0604EBD0107A
:10036000401C4008802A02D003E0002010BD20F08D
:100370000100002900DA0020184310BD30B480EAE3
:10038000010202F0004530F0004221F0004013D09D
:1003900090B1C30DD40DC2F31601C0F31600E41AD8
:1003A00041F4000140F400027D34914201D3641C09
:1003B00000E04900002C02DA30BC002070474FF406
:1003C00000000023914201D3891A034340084FEAF9
:1003D0004101F7D151B1914202D14FF0004105E006
:1003E00002D24FF0010101E06FF0010103EBC450B4
:1003F000284430BC00F079B92DE9FE4F81EA0304AE
:1004000004F0004421F0004100944FF0000B23F071
:10041000004350EA01045ED052EA03045BD0C3F308
:100420000A54C1F30A552C44A4F2F3340194A0FBFE
:100430000254C1F3130141F48011C3F3130343F4D5
:10044000801301FB024400FB034E840A970A44EA2E
:10045000815447EA8357A4FB076802958D0A05FB80
:1004600007854FEA932C04FB0C542705029D4FEAA5
:10047000065847EA1637B5EB08056EEB070C870EF2
:10048000920E47EA811742EA8312A7FB0201B6EBFC
:100490000B0164EB00042B0D43EA0C335E1844EBB4
:1004A0001C50DA465146E7FB0201C5F313044FEA3C
:1004B0000B3343EA14534FEA0432019C43EA060328
:1004C000A4F10C040294009CCDE900B400F053F9AF
:1004D00003B0BDE8F08F00200146F9E7C10F80EAC4
:1004E000E0700844CA079623002100F007B996235C
:1004F0000022114600F002B90EB540F233410291DC
:100500000021CDE900110A460B4600F034F903B092
:1005100000BD00F0004220F00040C10DC0F3160005
:1005200040F400007F2901DA00207047962903DC9F
:10053000C1F19601C84001E096398840002AF4D004
:1005400040427047C1F30A5210B5C1F3130140F2A3
:10055000FF3341F480119A4201DA002010BD40F2CD
:1005600033439A42A2F2334203DC5242FFF748FE81
:1005700010BD904010BD00F0004230F000400AD0A5
:10058000C10D01F56071C0F3160042EA0151C208C5
:1005900040071143704700200146704730B5041EE4
:1005A00071F1000404DB4FF00044404264EB0101B0
:1005B000141E73F1000405DB1C464FF00043524249
:1005C00063EB04038B4208BF824230BD30B5041E8A
:1005D00071F1000404DB4FF00044404264EB010180
:1005E000141E73F1000405DB1C464FF00043524219
:1005F00063EB0403994208BF904230BD01F0004311
:1006000030B421F0004150EA010206D00A0DA2F5F3
:100610006072C1F31301002A02DC30BC0020704775
:10062000440F44EAC104C100E01830BC00EBC250E2
:1006300000F05BB8002801DBC0F10040002901DBBD
:10064000C1F1004181427047002801DBC0F1004048
:10065000002901DBC1F100418842704730B50B46EB
:10066000014600202022012409E021FA02F59D42E2
:1006700005D303FA02F5491B04FA02F52844151EB6
:10068000A2F10102F1DC30BD2DE9F05F054600204A
:1006900092469B4688460646814640241BE02846F3
:1006A000414647462246FFF7ABFD53465A46C01A1D
:1006B000914110D311461846224600F013FA2D1A24
:1006C00067EB01084F4622460120002100F00AFA9C
:1006D00017EB00094E41201EA4F10104DFDC48465F
:1006E00031462A464346BDE8F09F0029A8BF70471F
:1006F000401C490008BF20F00100704710B4B0FA58
:1007000080FC00FA0CF050EA010404BF10BC7047F2
:1007100049B1CCF1200421FA04F411FA0CF118BF0C
:10072000012121430843A3EB0C01CB1D4FEA0061DB
:100730004FEA102042BF002010BC704700EBC350AE
:1007400010440029A4BF10BC7047401C490008BFDA
:1007500020F0010010BC704710B5141E73F10004A6
:1007600008DA401C41F1000192185B411A4301D1A3
:1007700020F0010010BD2DE9F04D92469B4611B1CD
:10078000B1FA81F202E0B0FA80F22032904600F035
:10079000A9F904460F4640EA0A0041EA0B01534614
:1007A0005A46084313D0114653EA010019D0C8F144
:1007B00040025046FFF724FD05460E465046594676
:1007C000424600F08FF9084305D0012004E020469E
:1007D0003946BDE8F08D0020054346EAE0762C431B
:1007E00037430A986305E40AA0EB08000022FD0ADB
:1007F00044EA47540A3002D500200146E9E70105E2
:1008000010196941DDE9084500196941BDE8F04D5D
:10081000A2E72DE9FE4F804681EA0300C00F0C4697
:10082000009021F0004123F00045B8EB0200A941FF
:1008300005D24046214690461C460B46024623F010
:100840000040104347D0270DC7F30A00C3F30A51F5
:100850000290401A019040286BDAC3F3130040F471
:10086000801B0098924620B10023D2EB030A63EB71
:100870000B0B01985946C0F14002504600F032F986
:1008800006460D4650465946019A00F03AF910EBDB
:1008900008006141002487EA115284EAE7731A4391
:1008A00040D0009A62B3019A012A4FEA075215DC40
:1008B000001B61EB02014FF0004202EA0752CDE952
:1008C0000042001C41F5801132462B46FFF753FFD2
:1008D00003B0BDE8F08F40462146F9E7001B61EB0D
:1008E0000201001C41F5801300185B412018A2F59D
:1008F000001747EB030140EAD570B6196D4111E0CE
:100900006D084FEA360645EAC0754FEA0752001BEC
:1009100061EB0201001C41F5801149084FEA3000EB
:100920000019514132462B4603B0BDE8F04FFFF7A6
:1009300013BF0098012240000023D0EB020263EBBA
:10094000E073009821464FEAE074B8EB000061EBD9
:100950000401E9E783F000435BE781F0004158E7D9
:100960002DE9F04D81EA030404F0004B21F000452D
:1009700014464FF0000A23F0004150EA050220D04F
:1009800054EA01021DD0C5F30A570246C5F313030A
:10099000C1F31300C1F30A5640F4801543F48013E9
:1009A000A7EB0608101BD64608F2FD3873EB0500CE
:1009B00002D308F1010801E092185B41B8F1000F81
:1009C00003DA00200146BDE8F08D00204FF48011CD
:1009D000064684460EE0171B73EB050705D3121B72
:1009E00063EB050306434CEA010C49084FEA30006B
:1009F00092185B4150EA0107EDD152EA030012D090
:100A000082EA040083EA0501084305D0101BAB41CC
:100A100006D20122002306E000224FF0004302E04C
:100A20006FF0010253101AEB06004CEB085110EB6B
:100A30000A0041EB0B01BDE8F04DFFF78DBE70B52C
:100A400021F0004303430CD0C1F30A550024D5EB39
:100A5000040564EB0403D617AD1AB34102DB002092
:100A6000014670BD201841EB025170BD0EB5C10F9B
:100A700080EAE0700844CA07002140F233438DE861
:100A80000E000A460B46FFF776FE03B000BDC1F329
:100A90000A52C1F3130140F2FF3341F480119A422C
:100AA00002DA00200146704740F233439A42A2F234
:100AB000334202DC5242FFF7A3BB00F013B8000040
:100AC000064C074D06E0E06840F0010394E807009B
:100AD00098471034AC42F6D3FFF72EFBB40101085F
:100AE000D4010108202A04DB203A00FA02F1002098
:100AF00070479140C2F1200320FA03F3194390405C
:100B00007047202A06DBCB17203A41FA02F043EA6D
:100B1000E07306E041FA02F3D040C2F120029140B6
:100B20000843194670472DE9F04D00231A461B1A59
:100B30008A4103DB00200146BDE8F08DC1F30A5273
:100B4000C1F3130141F480154FF0000BD10702D11E
:100B500000186D41521E0027044640F2FF1138462E
:100B600001EB620A3E468046024600204FF48011A7
:100B7000FFF746FBC2197141BB1846EB0100B4EB0D
:100B8000030C75EB000C04D3E41A65EB0005174663
:100B90000E46241908F101006D4180463428E3DD3A
:100BA000F91946EB0600091BA84103D24FF0FF32AA
:100BB000134601E0002213461BEB070046EB0A51E7
:100BC000BDE8F04DFFF7C8BD70B58C1810F8015B9B
:100BD00015F0070301D110F8013B2A1106D110F8D6
:100BE000012B03E010F8016B01F8016B5B1EF9D1DA
:100BF0002B0705D40023521E0DD401F8013BFAE760
:100C000010F8013BCB1A921C03E013F8015B01F8CA
:100C1000015B521EF9D5A142D8D3002070BD00005F
:100C200010B5024800F083FA10BD000070120020D9
:100C300010B5024800F07BFA10BD0000A0120020A1
:100C400070B5044600252068806800F0010018B3E4
:100C50002068806820F001002168886001F0E4FFCE
:100C6000054613E001F0E0FF401B02280ED9206882
:100C7000806800F0010048B1A06A40F01000A06256
:100C8000E06A40F00100E062012070BD20688068E9
:100C900000F001000028E5D10020F6E738B5044651
:100CA0000025002000902068806800F0010078BBDB
:100CB0002068806840F00100216888601948006859
:100CC0001949B0FBF1F0009002E00098401E00903E
:100CD00000980028F9D101F0A7FF054619E001F0BE
:100CE000A3FF401B022814D92068806800F001008F
:100CF00078B9A06A40F01000A062E06A40F00100FC
:100D0000E06200BF002084F8240000BF012038BD4D
:100D100005E02068806800F001000028DFD0002096
:100D2000F5E70000900A002040420F0000BFFEE7F8
:100D300000B58BB00020069007900120089000209D
:100D4000019002900390049005900120099001A960
:100D5000024800F0CDFD0BB000BD0000D012002015
:100D600010B5024801F0F4FA10BD0000281600206A
:100D700030B590F840500124AC40C56B6C600468FD
:100D800063604468102C04D10468A2600468E160C8
:100D900003E00468A1600468E26030BD704772B689
:100DA00000BFFEE770B50446B3F5804F13D1D1E91B
:100DB000000540EA05108D6840EA05208D6928434A
:100DC0008D8940EA054054F82250064E35402843AC
:100DD00044F8220003E06FF0704044F82200002045
:100DE00070BD00000000F0CF70B50246086852F8F0
:100DF000200020F001000E6842F8260088680828CC
:100E000001D1402300E00023486818438E68304336
:100E1000CE6830430E6930434E693043CE6930436B
:100E20000E6A30434E6A30438E6A3043CE6A304396
:100E30000E6B40EA060488690443486B0443074D7F
:100E400045F4806545F4E025086852F82000A84381
:100E500020430E6842F82600002070BD7FFB08008A
:100E600010B50346D1E9000440EA04108C6840EA5A
:100E700004208C8940EA0444088A401E44EA005455
:100E8000087D801E44EA00608C692043541C53F89E
:100E9000244004F040442043541C43F82400002024
:100EA00010BD0000F8B5044600260020009000BFE9
:100EB00094F82400012801D10220F8BD012084F813
:100EC000240000BF2046FFF7BBFE06462046FFF782
:100ED000E5FE0646002E69D1A06A20F4885040F055
:100EE0000200A062022001F0A7FF34490968B1FBAB
:100EF000F0F04000009002E00098401E0090009842
:100F00000028F9D12068806840F0080021688860D6
:100F100001F08AFE054616E001F086FE401B0A2815
:100F200011D92068806800F0080060B1A06A20F044
:100F3000020040F01000A06200BF002084F82400EE
:100F400000BF0120B9E72068806800F00800002891
:100F5000E2D12068806840F004002168886001F0D8
:100F600063FE054616E001F05FFE401B0A2811D91A
:100F70002068806800F0040060B1A06A20F00200E0
:100F800040F01000A06200BF002084F8240000BFE1
:100F9000012092E72068806800F004000028E2D178
:100FA000A06A20F0020040F00100A06200BF002013
:100FB00084F8240000BF30467FE70000900A00203C
:100FC0007047000038B5024600230020009000BFA3
:100FD00092F82400012801D1022038BD012082F8B6
:100FE000240000BF4868072812D21068406B0C79B3
:100FF000641E04EB84051F24AC40A0430D796D1ED4
:1010000005EB85050C68AC4020431468606327E05D
:1010100048680D2812D21068006B0C79E41F04EBAD
:1010200084051F24AC40A0430D79ED1F05EB850519
:101030000C68AC4020431468206311E01068C06A5B
:101040000C790D3C04EB84051F24AC40A0430D79C2
:101050000D3D05EB85050C68AC4020431468E0624B
:1010600008680A2812D31068C0680C780A3C04EBA0
:1010700044050724AC40A0430D780A3D05EB450527
:101080008C68AC4020431468E0600FE01068006991
:101090000C7804EB44050724AC40A0430D7805EB25
:1010A00045058C68AC40204314682061086810280E
:1010B00002D00868112827D1174C1068A0421ED111
:1010C0001068806800F40000F0B91068806840F48F
:1010D00000001468A0600868102815D10F48006847
:1010E0000F4CB0FBF4F000EB80004000009002E0F9
:1010F0000098401E009000980028F9D104E0906A02
:1011000040F020009062012300BF002082F82400FC
:1011100000BF184661E7000000240140900A00204B
:1011200040420F00704701460868C06C704770B5B8
:101130000446206805682068466806F020002028DC
:101140002DD105F00200022829D1A06A00F010007C
:1011500018B9A06A40F40070A0622068806800F4AA
:101160006020B0F5602F13D1207B88B920684068DB
:1011700020F0200021684860A06A20F48070A062FE
:10118000A06A00F4805018B9A06A40F00100A06283
:101190002046FFF7C7FF6FF012002168086006F0D5
:1011A0008000802839D105F00400042835D1A06AD8
:1011B00000F0100018B9A06A40F40050A062206846
:1011C000806800F4E040B0F5E04F0DD02068406842
:1011D00000F48060D0B92068806800F46020B0F529
:1011E000602F13D1207B88B92068406820F08000F0
:1011F00021684860A06A20F48050A062A06A00F4D0
:10120000807018B9A06A40F00100A0622046FFF784
:10121000D7FE6FF00C002168086006F040004028FF
:101220000DD105F0010050B1A06A40F48030A062F9
:10123000204600F0B5F86FF001002168086070BD2D
:101240002DE9F0410446002700250026A84614B9E0
:101250000120BDE8F081A06810B1207D00B100BF81
:10126000A06A30B90020E06284F82400204600F033
:1012700099F82046FFF7E4FC0746A06A00F010004A
:10128000002873D1002F7ED1A06A20F4885040F04E
:101290000200A0623F4AD4E90001904208D1E0690F
:1012A000B0F5402F02D14FF4002002E0E06900E0E9
:1012B000E0690143207B41EA40000643A068B0F5A5
:1012C000807F02D0A068012802D14FF4807000E036
:1012D00000200543207D012811D1207B38B9A06969
:1012E000401E4FF4006141EA4030054307E0A06A28
:1012F00040F02000A062E06A40F00100E062206857
:10130000406820F46940284321684860206880686C
:1013100021490840304321688860A068B0F5807F8B
:1013200002D0A068012802D14FF4807000E00020B4
:10133000B0F5807F03D1208A401E4FEA0058206814
:10134000C06A20F4700040EA08002168C862206882
:10135000806812490840B04209D10020E062A06ACA
:1013600020F0020040F00100A06211E00BE0A06A52
:1013700020F0020040F01000A062E06A40F001009E
:10138000E062012704E0A06A40F01000A06201279B
:1013900038465EE7003C0140FDF7E1FFFE0E1FFF0F
:1013A0007047000010B586B00446002002900390FC
:1013B000049005903049206888422BD100BF2F4807
:1013C000806940F400702D4988610846806900F406
:1013D0000070019000BF00BF00BF0846806940F068
:1013E000040088610846806900F00400019000BF95
:1013F00000BFC32002900320039002A9204801F0FF
:1014000065FA00220521122001F0C4FC122001F02F
:10141000B1FC2EE01B49206888422AD100BF174842
:10142000806940F40040154988610846806900F4ED
:101430000040019000BF00BF00BF0846806940F037
:10144000800088610846806900F08000019000BF3C
:1014500000BFC02002900320039002A90A4801F0B7
:1014600035FA002205212F2001F094FC2F2001F0F5
:1014700081FC06B010BD00000024014000100240B5
:1014800000080140003C0140001C0140F8B5044642
:101490000D46002600200090002701F0C5FB0646FF
:1014A0002068806800F4807050B1A06A40F020008D
:1014B000A06200BF002084F8240000BF0120F8BD16
:1014C0002068406800F4807020BB2068C06A00F487
:1014D0007000F8B917E0681CA8B125B101F0A4FBB1
:1014E000801BA8420FD92068006800F0020050B9A4
:1014F000A06A40F00400A06200BF002084F824002D
:1015000000BF0320DBE72068006800F0020000282D
:10151000E1D053E0022001F08FFC38490968B1FBAB
:10152000F0F021680969364A114091B92168C9680B
:101530009211114069B921680969324A114031B9E3
:101540002168C9689211114009B9142117E02921B5
:1015500015E0216809692B4A114021B92168C96841
:101560009211114041B121680969274A114029B9F6
:101570002168C968114009B9542100E0FC2100FB31
:1015800001F718E0681C98B125B101F04DFB801BF4
:10159000A8420DD90098B8420AD2A06A40F00400CF
:1015A000A06200BF002084F8240000BF032086E76B
:1015B0000098401C00900098B842E3D36FF01200EE
:1015C00021680860A06A40F40070A062206880680A
:1015D00000F46020B0F5602F0DD1207B58B9A06ACF
:1015E00020F48070A062A06A00F4805018B9A06A4C
:1015F00040F00100A062002061E70000900A002096
:1016000024499224922449124992240070B5044638
:10161000002500BF94F82400012801D1022070BDEC
:10162000012084F8240000BF2046FFF737FB054661
:10163000002D77D1A06A40F20121884340F48070E8
:10164000A0623C492068884208D13B48006800F409
:10165000702008B9012002E0002000E0012078B1EC
:10166000A06A20F48010A0622068406800F48060C6
:1016700000B3A06A20F4005040F48050A06219E04A
:10168000A06A40F48010A0622B49091F206888429C
:1016900003D028492068884204D12748006800F414
:1016A000806000E0002028B1A06A20F4005040F4DF
:1016B0008050A062A06A00F4805020B1E06A20F05F
:1016C0000600E06201E00020E06200BF002084F834
:1016D000240000BFC01E216808602068806800F4F4
:1016E0006020B0F5602F16D112492068884208D1D9
:1016F0001148006800F4702008B9012002E00020C1
:1017000000E0012038B12068806840F4A000216822
:1017100088600CE006E02068806840F48010216852
:10172000886004E000BF002084F8240000BF284641
:1017300075E70000002801400424014070B504460C
:10174000002500BF94F82400012801D1022070BDBB
:10175000012084F8240000BF2046FFF771FA0546F7
:101760002DB9A06A20F4885040F00100A06200BFAB
:10177000002084F8240000BF2846E8E710B50246A0
:1017800092F82030012B01D0022B06D1106840695D
:10179000084314686061002010BD506A40F4802046
:1017A00050620120F8E7F0B504460D461E4694F855
:1017B000207020688368A86800B900E000BF012F8E
:1017C00001D0022F7DD103F0806030B903F00060BA
:1017D00018B903F0805000287ED0C3F301610120C6
:1017E00088403060A86860B9B5F800C0E86840EA91
:1017F0004C5C206800F5C07000EB0110C0F800C020
:101800000FE0D5E901C040EACC00D5F80CC040EAB1
:101810000C00D4F800C00CF5C07C0CEB011CCCF81B
:101820000000D5F810C0206800F5C07000EB011072
:10183000C0F804C0287D01280ED1206800F5C070D2
:1018400000EB0110406840F4807C206800F5C07017
:1018500000EB0110C0F804C0D079000692F806C071
:1018600040EA0C4092F805C040EA0C2092F804C00F
:1018700040EA0C00D4F800C00CF5C07C0CEB011C55
:10188000CCF80C00D078000692F802C040EA0C4078
:1018900092F801C040EA0C2092F800C040EA0C0027
:1018A000D4F800C00CF5C07C0CEB011CCCF808008F
:1018B000206800F5C07000EB0110006840F0010CDA
:1018C00001E00FE008E0206800F5C07000EB0110B7
:1018D000C0F800C00020F0BD606A40F400106062F3
:1018E0000120F8E7606A40F4802060620120F2E79E
:1018F000F0B504460A46216894F82050012D01D025
:10190000022D74D1D1F8000240F00100C1F80002AC
:10191000107D00F01F06012000FA06F3D1F81C022A
:101920009843C1F81C02D069C8B9D1F80C02984399
:10193000C1F80C02908880B2968940EA064601F50B
:101940001070576940F83760108880B2168940EAF5
:10195000064601F51070576900EBC7004660D06974
:10196000012819D1D1F80C021843C1F80C02908853
:1019700080B2168840EA064601F51070576940F8B3
:101980003760908980B2168940EA064601F51070EA
:10199000576900EBC7004660906928B9D1F8040286
:1019A0009843C1F8040204E0D1F804021843C1F8D6
:1019B0000402106928B9D1F814029843C1F814023E
:1019C00004E0D1F814021843C1F81402106A012887
:1019D00004D1D1F81C021843C1F81C02D1F800024E
:1019E00020F00100C1F800020020F0BDFFE7606AAE
:1019F00040F4802060620120F7E7704710B502468E
:101A0000002092F82030012B01D0022B09D121B9FE
:101A10001468E46804F0030003E01468246904F027
:101A2000030010BD70B5044694F82050012D01D07C
:101A3000022D7DD151B92068C06800F0030080B943
:101A4000606A40F400106062012070BD2068006987
:101A500000F0030028B9606A40F4001060620120C1
:101A6000F3E7206800F5D87000EB0110006800F083
:101A700004009060906840B9206800F5D87000EBD1
:101A800001100068400D106007E0206800F5D87074
:101A900000EB01100068C0085060206800F5D870A5
:101AA00000EB0110006800F00200D060206800F533
:101AB000D87000EB0110406800F00F00082802D336
:101AC0000820106108E0206800F5D87000EB0110D4
:101AD000406800F00F001061206800F5D87000EB3E
:101AE0000110406800F47F40000A9061206800F512
:101AF000D87000EB01104068000C5061206800F5C0
:101B0000D87000EB011080681870206800F5D8705C
:101B100000EB0110806800F47F40000A58702068D4
:101B200000F5D87000EB0110806800F47F0000E041
:101B30003CE0000C9870206800F5D87000EB0110B4
:101B40008068000ED870206800F5D87000EB011096
:101B5000C0681871206800F5D87000EB0110C068EB
:101B600000F47F40000A5871206800F5D87000EB3F
:101B70000110C06800F47F00000C9871206800F527
:101B8000D87000EB0110C068000ED87131B9206820
:101B9000C06840F020002668F06005E02068006919
:101BA00040F020002668306100204EE7606A40F473
:101BB00080206062012048E72DE9F05F044600259F
:101BC000206846692068D0F80490206887682068FB
:101BD000D0F80CA02068D0F810B02068D0F8188099
:101BE00006F00100002855D007F00100C0B1012027
:101BF0002168886007F0020018B1204600F0A3FABF
:101C00000EE007F0040010B145F4006508E007F0AD
:101C1000080010B145F4805502E0204600F092FA29
:101C200007F48070C8B14FF480702168886007F4B1
:101C3000007018B1204600F088FA0EE007F48060CA
:101C400010B145F4005508E007F4006010B145F408
:101C5000804502E0204600F077FA07F48030C8B1F2
:101C60004FF480302168886007F4003018B12046B6
:101C700000F06DFA0EE007F4802010B145F4004545
:101C800008E007F4002010B145F4803502E020465A
:101C900000F05CFA06F0080038B10AF0100020B13C
:101CA00045F4007510202168C86006F0040040B1BA
:101CB0000AF0080028B108202168C860204600F01A
:101CC000A9F906F0020038B12068C06800F00300EE
:101CD00010B1204600F0A0F906F0400038B10BF03A
:101CE000100020B145F4806510202168086106F0DD
:101CF000200040B10BF0080028B1082021680861DD
:101D0000204600F0EDF906F0100038B120680069B7
:101D100000F0030010B1204600F0E3F906F40030B3
:101D200040B109F0100028B1102021684860204619
:101D300000F0D8F906F4803040B109F0080028B16D
:101D4000082021684860204600F002FA06F40040AE
:101D500088B309F0040078B306F4807020B108F06D
:101D6000010008B145F0010506F4007020B108F04B
:101D7000020008B145F0020506F4806020B108F0C9
:101D8000040008B145F0040506F40060A0B108F0B5
:101D9000700088B108F07000402817D006DC1028C9
:101DA0000BD020280CD0302819D10CE0502810D0AE
:101DB000602814D110E01DE019E045F008050FE09F
:101DC00045F010050CE045F0200509E045F0400520
:101DD00006E045F0800503E045F4807500E000BFB3
:101DE00000BF2068806920F07000216888610420AD
:101DF000216848602DB1606A284360622046FFF781
:101E0000FCFDBDE8F09F70B504460CB9012070BD23
:101E100094F8200010B9204600F0B0F8206800685F
:101E200040F001002168086000F0FEFE05460DE06C
:101E300000F0FAFE401B0A2808D9606A40F400301E
:101E40006062052084F820000120E0E720684068F7
:101E500000F001000028EBD02068006820F00200AC
:101E60002168086000F0E0FE05460DE000F0DCFEB1
:101E7000401B0A2808D9606A40F4003060620520DF
:101E800084F820000120C2E72068406800F00200CA
:101E90000028EBD1207E012806D12068006840F0A0
:101EA00080002168086005E02068006820F080005C
:101EB00021680860607E012806D12068006840F033
:101EC00040002168086005E02068006820F04000BC
:101ED00021680860A07E012806D12068006840F0D3
:101EE00020002168086005E02068006820F02000DC
:101EF00021680860E07E012806D12068006820F093
:101F000010002168086005E02068006840F01000BB
:101F100021680860207F012806D12068006840F011
:101F200008002168086005E02068006820F00800CB
:101F300021680860607F012806D12068006840F0B1
:101F400004002168086005E02068006820F00400B3
:101F500021680860D4E902010843216908436169E6
:101F600008436168491E08432168C8610020606217
:101F7000012084F82000002049E7000010B586B059
:101F80000446002002900390049005901E492068AA
:101F9000884236D100BF1D48C06940F000701B491F
:101FA000C8610846C06900F00070019000BF00BF22
:101FB00000BF0846806940F00400886108468069D7
:101FC00000F00400019000BF00BFC8140290002080
:101FD0000390049002A90E4800F078FC4FF4805062
:101FE0000290022003900320059002A9084800F007
:101FF0006DFC00220521142000F0CCFE142000F01E
:10200000B9FE06B010BD00000064004000100240A0
:10201000000801407047000010B50446284804F04D
:1020200023FD2849087028480078401E2749087079
:102030000846007800EB400101EBC000244901EBA9
:102040008000816A2148007800EB400202EBC0006A
:102050001F4A02EB8000806A401C1C4A127802EB87
:10206000420303EBC2021A4B03EB82029062322955
:102070000CD81649097801EB410202EBC1011A465E
:1020800002EB8100214604F045FE0BE00F49097880
:1020900001EB410202EBC1010D4A02EB8100214636
:1020A00004F0F8FD21460B4804F0F4FD07480078E1
:1020B0000949087002210948FFF760FB10BD0000C4
:1020C000180B0020140B0020160B0020200B002002
:1020D000CC5400207C5500200C080020D012002099
:1020E00070477047704770B5044694F82000012887
:1020F00022D1022084F820002068006820F001002E
:102100002168086000F090FD05460DE000F08CFDB0
:10211000401B0A2808D9606A40F40030606205203C
:1021200084F82000012070BD2068406800F00100A4
:102130000028EBD16062F6E7606A40F4002060623C
:102140000120F0E77047704770477047704770474D
:1021500070470146002291F82100022808D004208F
:10216000886300BF002081F8200000BF0120704775
:102170000868006820F00E000B68186008680068A6
:1021800020F001000B68186091F840300120984061
:10219000CB6B5860012081F8210000BF002081F83E
:1021A000200000BF1046E2E770B50446002594F811
:1021B0002100022803D00420A0630125C1E020688B
:1021C000006820F00E00216808602068006820F098
:1021D0000100216808605C492068884252D95A4948
:1021E00078392068884201D1012047E05649643996
:1021F0002068884201D1102040E0534950392068BE
:10220000884201D1801539E04F493C392068884225
:1022100001D1801432E04C4928392068884202D12B
:102220004FF480302AE0484914392068884202D1AE
:102230004FF4801022E044492068884201D14004D4
:102240001CE042492068884201D1012016E03F4944
:1022500014312068884201D110200FE03B49283119
:102260002068884201D1801508E038493C31206857
:10227000884201D1801401E04FF480303349091FB6
:10228000086051E0304978392068884201D1012046
:1022900047E02D4964392068884201D1102040E090
:1022A000294950392068884201D1801539E02649F2
:1022B0003C392068884201D1801432E02249283913
:1022C0002068884202D14FF480302AE01E49143938
:1022D0002068884202D14FF4801022E01A49206819
:1022E000884201D140041CE018492068884201D18D
:1022F000012016E0154914312068884201D11020D0
:102300000FE0124928312068884201D1801508E089
:102310000E493C312068884201D1801401E04FF41D
:102320008030094980394860012084F8210000BFCD
:10233000002084F8200000BF606B10B12046616B64
:102340008847284670BD0000800002400804024013
:1023500070B50446E06B05682068066894F8401084
:10236000042088402840002875D006F0040000288A
:10237000FAD02068006800F0200028B920680068C2
:1023800020F0040021680860D5492068884254D9AB
:10239000D34978392068884201D1042049E0D049E6
:1023A00064392068884201D1402042E0CC4950394C
:1023B0002068884201D100153BE0C9493C392068BA
:1023C000884202D14FF4804033E0C5492839206863
:1023D000884202D14FF480202BE0C1491439206893
:1023E000884202D14FF4800023E0BD492068884232
:1023F00001D1C0041DE0BB492068884201D10420FE
:1024000017E0B84914312068884201D1402010E01B
:10241000B44928312068884201D1001509E0B1494A
:102420003C312068884202D14FF4804001E04FF4F3
:102430008020AC49091F086054E0A9497839206818
:10244000884201D104204AE0A549643920688842C5
:1024500002D1402043E04CE0A14950392068884235
:1024600001D100153BE09E493C392068884202D1E9
:102470004FF4804033E09A4928392068884202D1DD
:102480004FF480202BE0964914392068884202D10D
:102490004FF4800023E092492068884201D1C004B3
:1024A0001DE090492068884201D1042017E08D4941
:1024B00014312068884201D1402010E08949283138
:1024C0002068884201D1001509E086493C31206826
:1024D000884202D14FF4804001E04FF480208049CF
:1024E00080394860E06A002802D02046E16A8847C7
:1024F000F4E094F84010022088402840002871D071
:1025000006F002000028FAD02068006800F02000E1
:1025100040B92068006820F00A00216808600120A6
:1025200084F821006E492068884254D96C49783972
:102530002068884201D1022049E069496439206855
:10254000884201D1202042E0654950392068884204
:1025500001D140153BE062493C392068884202D1F4
:102560004FF4005033E05E4928392068884202D198
:102570004FF400302BE05A4914392068884202D1C8
:102580004FF4001023E056492068884201D18004AE
:102590001DE054492068884201D1022017E05149CA
:1025A00014312068884201D1202010E04D492831A3
:1025B0002068884201D1401509E04A493C31206831
:1025C000884202D14FF4005001E04FF400304549F9
:1025D000091F086054E0424978392068884202D1D6
:1025E00002204AE057E03E4964392068884201D120
:1025F000202042E03A4950392068884201D14015F4
:102600003BE037493C392068884202D14FF4005002
:1026100033E0334928392068884202D14FF4003032
:102620002BE02F4914392068884202D14FF4001062
:1026300023E02B492068884201D180041DE029490C
:102640002068884201D1022017E026491431206811
:10265000884201D1202010E0224928312068884298
:1026600001D1401509E01F493C312068884202D160
:102670004FF4005001E04FF40030194980394860B0
:1026800000BF002084F8200000BFA06A30B32046BD
:10269000A16A884722E094F840100820884028402A
:1026A000E0B106F00800C8B12068006820F00E0014
:1026B0002168086094F8401001208840E16B486070
:1026C0000120A06384F8210000BF002084F82000CE
:1026D00000BF206B10B12046216B884770BD000001
:1026E00080000240080402400146002209B901208E
:1026F00070471E4B086898420BD21D4B0868C01AE1
:102700001423B0FBF3F08000086419480838C8634C
:102710000AE0164B0868C01A1423B0FBF3F08000DF
:10272000086412480838C863022081F8210008684C
:10273000026843F6F0708243D1E901031843CB6885
:1027400018430B6918434B6918438B691843CB69CD
:10275000184302430868026000208863012081F862
:102760002100002081F8200000BFC1E708040240DA
:10277000080002402DE9F04104460D4616461F466A
:102780004FF0000800BF94F82000012802D1022079
:10279000BDE8F081012084F8200000BF94F82100FA
:1027A00001282CD1022084F821000020A063206899
:1027B000006820F00100216808603B463246294647
:1027C0002046FEF7D5FAE06A30B12068006840F094
:1027D0000E00216808600BE02068006820F004000B
:1027E000216808602068006840F00A0021680860DD
:1027F0002068006840F001002168086006E000BF22
:10280000002084F8200000BF4FF002084046BFE7D8
:1028100070B5044600F008FA06462546681C10B15B
:1028200004480078054400BF00F0FEF9801BA84270
:10283000FAD370BD8C0A002000B585B0002001904D
:102840000290039004901C48006808B105B000BDD8
:1028500001201949086000BF1848406940F48070A1
:10286000164948610846406900F48070009000BF36
:1028700000BF41F201000190022002900320049069
:1028800001A90F4800F022F84FF680700190022055
:1028900002900320049001A90A4800F017F84CF2B6
:1028A00033700190022002900320049001A9064891
:1028B00000F00CF800BFC9E7580A002000100240E1
:1028C0000020014000180140001401402DE9F847A4
:1028D000024600239C467BE14FF0010808FA03F40E
:1028E000D1F8008008EA0400A0427DD1DFF8F4A20C
:1028F000D1F80480A8EB0A09D0453AD014DCB8F12D
:10290000030F50D009DCB8F1000F31D0B8F1010F3E
:102910001CD0B8F1020F49D120E0B8F1110F18D046
:10292000B8F1120F42D11EE0B9F5881F25D006DCA0
:10293000B9F5803F20D0B9F5801F37D11AE0B9F53D
:10294000001F18D0B9F5041F30D117E0D1F80CC022
:102950002DE0D1F80C8008F1040C28E0D1F80C80AF
:1029600008F1080C23E0D1F80C8008F10C0C1EE0F3
:1029700000BF00BF00BF00BF00BF00BFD1F808808C
:10298000B8F1000F02D14FF0040C0BE0D1F8088031
:10299000B8F1010F03D14FF0080C146102E04FF0C1
:1029A000080C546103E04FF0000C00E000BF00BFD2
:1029B000FF2801D8904601E002F104084646FF28AE
:1029C00002D84FEA830803E0A3F108084FEA880819
:1029D0004746D6F800804FF00F0909FA07F928EAB0
:1029E00009080CFA07F900E07AE048EA0908C6F895
:1029F0000080D1F8048008F08058B8F1805F6FD172
:102A000000BFDFF8E481D8F8188048F00108DFF84B
:102A1000D891C9F81880C846D8F8188008F001087D
:102A2000CDF8008000BF00BF4FEAB9384FEA9309E4
:102A300058F829504FEA83784FEA18794FF00F0879
:102A400008FA09F825EA0805DFF8A081424502D115
:102A50004FF0000824E0DFF89881424502D14FF0A2
:102A600001081DE0DFF88C81424502D14FF00208D9
:102A700016E0DFF88481424502D14FF003080FE0F1
:102A8000DFF87881424502D14FF0040808E0DFF812
:102A90007081424502D14FF0050801E04FF0060871
:102AA0004FEA83794FEA197908FA09F848EA0505E7
:102AB000DFF850814FEA930948F82950D1F8048093
:102AC00008F48018B8F5801F0BD1DFF83C81D8F8E6
:102AD000008048EA0008DFF83091C9F800800AE079
:102AE00075E0DFF82481D8F8008028EA0008DFF8D4
:102AF0001891C9F80080D1F8048008F40018B8F5DE
:102B0000001F0ED1DFF8008108F10408D8F800801A
:102B100048EA0008DFF8F09009F10409C9F80080DC
:102B20000DE0DFF8E48008F10408D8F8008028EA16
:102B30000008DFF8D49009F10409C9F80080D1F841
:102B4000048008F40038B8F5003F0ED1DFF8B880F3
:102B5000A8F10408D8F8008048EA0008DFF8A89037
:102B6000A9F10409C9F800800DE0DFF89C80A8F104
:102B70000408D8F8008028EA0008DFF88C90A9F152
:102B80000409C9F80080D1F8048008F48038B8F549
:102B9000803F0ED1DFF87080A8F10808D8F80080D7
:102BA00048EA0008DFF86090A9F10809C9F8008038
:102BB0000DE0DFF85480A8F10808D8F8008028EA72
:102BC0000008DFF84490A9F10809C9F800805B1CEF
:102BD000D1F8008028FA03F8B8F1000F7FF47CAE3A
:102BE000BDE8F88700001110001002400008014005
:102BF000000C014000100140001401400018014089
:102C0000001C01400800014008040140024693688E
:102C10000B400BB1012000E0002070470AB10161B8
:102C200001E00B0403617047014800687047000031
:102C3000840A0020034800680349097808440149D0
:102C400008607047840A00208C0A002010B50848EC
:102C5000006840F0100006490860032000F0D8F832
:102C60000F2000F007F800F055F8002010BD00001C
:102C700000200240F0B587B004460026002700255A
:102C800000BF1F48806940F400601D498861084604
:102C9000806900F40060009000BF00BF01A902A895
:102CA00000F0B4FA00F0EAFA06461648B6FBF0F077
:102CB000471E15481549086040F2E7311348C160C6
:102CC0004760002101618160816100F08BFD054654
:102CD00095B90E4800F0BAFD05466DB9192000F00F
:102CE00049F8102C07D200222146192000F052F892
:102CF0000748046000E00125284607B0F0BD000049
:102D00000010024040420F00002C01406C160020D1
:102D1000880A002008B500BF1448806940F001000F
:102D2000124988610846806900F00100009000BFE8
:102D300000BF00BF0846C06940F08050C861084627
:102D4000C06900F08050009000BF00BF00220F213A
:102D5000901E00F01FF800BF0549486820F0E060B1
:102D600040F00070486000BF08BD00000010024045
:102D70000000014001460846002809DB00F01F035F
:102D800001229A4043099B0003F1E023C3F800218C
:102D900000BF70472DE9F05F80460D4616460027BC
:102DA00003F04CF9074639462A46334601F007003E
:102DB000C0F1070ABAF1040F02D94FF0040A01E08A
:102DC000C0F1070AD14600F1040ABAF1070F02D296
:102DD0004FF0000A01E0A0F1030AD4464FF0010AC7
:102DE0000AFA09FAAAF1010A0AEA020A0AFA0CFA2C
:102DF0004FF0010B0BFA0CFBABF1010B0BEA030BD1
:102E00004AEA0B042146404603F020F9BDE8F09F52
:102E100000BF00F00702064B19684FF6FF03194088
:102E2000044B0B4343EA0221014B196000BF70477A
:102E30000CED00E00000FA052DE9F04706464FF0E2
:102E40000008002500270024A146042E37D004DC0A
:102E5000012E3CD0022E6CD160E0082E33D0102E13
:102E600067D136484468006800F0807008B3344881
:102E7000C4F38341475C04F4803078B12F48406844
:102E8000C0F340402F4911F8008004F4803040B175
:102E90002D48B0FBF8F000FB07F502E02B4807FBDC
:102EA00000F52648406800F48000B0F5800F01D19D
:102EB000A94603E068000321B0FBF1F93AE000F015
:102EC000EDF9814636E000F0E9F9814632E01B4831
:102ED000046A04F44070B0F5807F05D104F002006C
:102EE00010B14FF4004918E004F44070B0F5007FD1
:102EF00007D11248406A00F0020010B149F640497B
:102F00000BE004F44070B0F5407F06D10B48006838
:102F100000F4003008B14FF224490BE000F0AEF9A4
:102F200006494968C1F38131491C4900B0FBF1F9F8
:102F300000E000BF00BF4846BDE8F0870010024037
:102F400032D1000842D1000800127A0000093D0089
:102F5000F8B5044600260025207800F0010000287E
:102F60006BD000274348C06900F0805070B900BFA3
:102F70004048C06940F080503E49C8610846C06979
:102F800000F08050009000BF00BF01273A48006861
:102F900000F48070B0B93848006840F48070364959
:102FA0000860FFF741FE064606E0FFF73DFE801B86
:102FB000642801D90320F8BD2F48006800F4807010
:102FC0000028F2D02B48006A00F440752DB3A08889
:102FD00000F44070A84220D02648006A20F44075D2
:102FE000012026490860002008602248056205F09B
:102FF000010090B1FFF718FE064608E0FFF714FE47
:10300000801B41F28831884201D90320D3E7194857
:10301000006A00F002000028F0D01648006A20F490
:1030200040706168084313490862012F04D10846C3
:10303000C06920F08050C86100BF207800F0020015
:10304000022807D10B48406820F44040A16808439B
:1030500008494860207800F01000102807D1054882
:10306000406820F4800061690843024948600020FC
:10307000A1E70000001002400070004040044242FE
:1030800070B504460D460CB9012070BD5A48006861
:1030900000F00700A8420ED25748006820F0070051
:1030A0002843554908600846006800F00700A84218
:1030B00001D00120E9E7207800F0020002281DD1AC
:1030C000207800F00400042805D14C48406840F402
:1030D000E0604A494860207800F00800082805D1DF
:1030E0004648406840F4605044494860434840685E
:1030F00020F0F000A168084340494860207800F0C3
:10310000010078B36068012806D13C48006800F4EB
:10311000003090B90120B8E76068022806D137482E
:10312000006800F0007040B90120AEE73348006845
:1031300000F0020008B90120A7E73048406820F0FD
:103140000300616808432D494860FFF76DFD06469E
:1031500009E0FFF769FD801B41F28831884202D9FE
:10316000032092E707E02548406800F00C00616802
:10317000B0EB810FEDD12048006800F00700A842B5
:103180000ED91D48006820F0070028431A4908603E
:103190000846006800F00700A84201D0012074E74B
:1031A000207800F00400042807D11448406820F477
:1031B000E060E168084311494860207800F00800A9
:1031C000082808D10D48406820F46050216940EA81
:1031D000C1000A49486000F061F808494968C1F334
:1031E0000311074A515CC840064908600648006858
:1031F000FFF740FD002048E7002002400010024099
:1032000044D10008900A0020880A00200F220260A2
:103210000D4A526802F0030242600B4A526802F003
:10322000F0028260084A526802F4E062C260064A14
:10323000526802F46052D2080261044A126802F035
:1032400007020A60704700000010024000200240A0
:103250000148006870470000900A002000B5FFF7A1
:10326000F7FF04494968C1F30221034A515CC84091
:1032700000BD00000010024054D1000800B5FFF767
:10328000E7FF04494968C1F3C221034A515CC840C1
:1032900000BD00000010024054D1000870B50021AC
:1032A0000022002400230020134D696801F00C0562
:1032B000F5B1042D02D0082D19D101E00F4819E015
:1032C0000F4DC1F38346AB5D01F4803555B10A4D16
:1032D0006D68C5F340450B4E725D084D5D43B5FB0F
:1032E000F2F402E0084D03FB05F4204602E000BFC3
:1032F000024800BF00BF70BD0010024000127A00FB
:1033000020D1000830D1000800093D00F8B504467E
:103310000CB90120F8BD207800F00100002878D019
:10332000F848406800F00C0004280CD0F5484068CC
:1033300000F00C00082811D1F248406800F48030F9
:10334000B0F5803F0AD1EF48006800F40030002853
:103350005FD0606800285CD10120DBE700BF6068B7
:10336000B0F5803F06D1E748006840F48030E54979
:10337000086028E0606858B9E248006820F48030AE
:10338000E04908600846006820F4802008601AE0E0
:103390006068B0F5A02F0BD1DA48006840F48020B7
:1033A000D84908600846006840F4803008600AE0A8
:1033B000D448006820F48030D2490860084600688C
:1033C00020F48020086000BF606888B1FFF72CFC03
:1033D000054606E0FFF728FC401B642801D90320BE
:1033E00098E7C848006800F400300028F2D010E0E8
:1033F000FFF71AFC054606E0FFF716FC401B6428A1
:1034000001D9032086E7BF48006800F40030002897
:10341000F2D1207800F00200022857D1B948406864
:1034200000F00C0050B1B748406800F00C000828CC
:1034300018D1B448406800F4803098B9B1480068A9
:1034400000F0020020B12069012801D0012061E7CD
:10345000AC48006820F0F800616940EAC100A94961
:10346000086033E02069E8B10120A7490860FFF750
:10347000DBFB054606E0FFF7D7FB401B022801D91E
:10348000032047E79F48006800F002000028F2D0C0
:103490009C48006820F0F800616940EAC100994941
:1034A000086013E0002098490860FFF7BDFB05465F
:1034B00006E0FFF7B9FB401B022801D9032029E7EA
:1034C0009048006800F002000028F2D1207800F057
:1034D000080008282DD1A069B8B101208B490860E7
:1034E000FFF7A2FB054606E0FFF79EFB401B022804
:1034F00001D903200EE78348406A00F0020000284B
:10350000F2D0012001F064FE13E000207F49086042
:10351000FFF78AFB054606E0FFF786FB401B022803
:1035200001D90320F6E67748406A00F0020000283F
:10353000F2D1207800F00400042873D100277148EC
:10354000C06900F0805070B900BF6E48C06940F09B
:1035500080506C49C8610846C06900F080500090F6
:1035600000BF00BF01276A48006800F48070B0B94E
:103570006748006840F4807065490860FFF754FBB5
:10358000054606E0FFF750FB401B642801D90320E5
:10359000C0E65F48006800F480700028F2D000BFE9
:1035A000E068012806D15748006A40F001005549FB
:1035B000086227E0E06858B95248006A20F001002C
:1035C000504908620846006A20F00400086219E0C9
:1035D000E06805280BD14B48006A40F004004949D7
:1035E00008620846006A40F0010008620AE04548A7
:1035F000006A20F00100434908620846006A20F092
:103600000400086200BFE068A0B1FFF70DFB0546AB
:1036100009E0FFF709FB401B41F28831884202D9DB
:10362000032077E622E03748006A00F00200002815
:10363000EFD012E0FFF7F8FA054608E0FFF7F4FADA
:10364000401B41F28831884201D9032062E62D48AF
:10365000006A00F002000028F0D1012F05D12948AE
:10366000C06920F080502749C86100BFE069C8B335
:103670002448406800F00C00082860D0E069022867
:1036800048D1002020490866FFF7CEFA054606E03B
:10369000FFF7CAFA401B022801D903203AE619486D
:1036A000006800F000700028F2D1206AB0F5803F79
:1036B00007D11448406820F40030A168084311493C
:1036C0004860D4E9080108430E49496821F474119F
:1036D00008430C49486001200B490866FFF7A4FA2B
:1036E000054607E03DE0FFF79FFA401B022801D99D
:1036F00003200FE60348006800F000700028F2D0B5
:103700002FE00000001002400000424280044242CC
:1037100000700040002014490866FFF785FA05464E
:1037200006E0FFF781FA401B022801D90320F1E5EA
:103730000E48006800F000700028F2D111E0E06946
:10374000012800D1E6E50948466806F48031206A80
:10375000814204D106F47011606A814201D00120D7
:10376000D8E50020D6E500000000424200100240EB
:1037700070B504460E4615461CB1A069B0F5807FB1
:1037800001D1012070BD94F8410028B9002084F8CF
:103790004000204600F01FF804F108012068FDF702
:1037A00023FB3146A2682068FDF75AFB2946236BAC
:1037B000D4E90102FDF7F6FAA168206850F821006B
:1037C00040F00100A268216841F82200012084F83D
:1037D00041000020D6E710B50446FFF72DF810BDD4
:1037E0007047704710B504460CB9012010BD94F81D
:1037F0003D0028B9002084F83C00204600F025F860
:10380000022084F83D00211D206801F0D9FE01202E
:1038100084F8460000BF84F83E0001213F20015596
:10382000402001554120015500BF00BF012084F810
:10383000420043200155442001554520015500BF59
:10384000012084F83D000020D0E77047014691F840
:103850003D00012801D001207047022081F83D0081
:103860000868C06840F001000B68D860164B086813
:10387000984213D0154B086898420FD00868B0F1F1
:10388000804F0BD0124B0868984207D0114B086844
:10389000984203D0104B086898420CD108688068A1
:1038A00000F00702062A0CD00868006840F001000A
:1038B0000B68186005E00868006840F001000B68BC
:1038C00018600020C8E70000002C014000340140CF
:1038D0000004004000080040000C0040704710B594
:1038E000044620680069C0F34000D8B12068C06871
:1038F000C0F34000B0B16FF0020021680861012000
:1039000020772068806900F0030018B12046FFF797
:10391000E5FF05E0204600F0ADF8204600F0ABF8EA
:103920000020207720680069C0F38000D8B12068AB
:10393000C068C0F38000B0B16FF004002168086176
:10394000022020772068806900F4407018B120467A
:10395000FFF7C4FF05E0204600F08CF8204600F099
:103960008AF80020207720680069C0F3C000D8B131
:103970002068C068C0F3C000B0B16FF008002168D3
:103980000861042020772068C06900F0030018B1A6
:103990002046FFF7A3FF05E0204600F06BF8204625
:1039A00000F069F80020207720680069C0F300105B
:1039B000D8B12068C068C0F30010B0B16FF010003B
:1039C00021680861082020772068C06900F44070F1
:1039D00018B12046FFF782FF05E0204600F04AF8C4
:1039E000204600F048F8002020772068006900F0A9
:1039F000010058B12068C06800F0010030B16FF0DC
:103A0000010021680861204600F036F8206800694E
:103A1000C0F3C01058B12068C068C0F3C01030B106
:103A20006FF08000216808612046FFF7D9FE20680A
:103A30000069C0F3801058B12068C068C0F38010DE
:103A400030B16FF0400021680861204600F020F896
:103A500020680069C0F3401058B12068C068C0F306
:103A6000401030B16FF02000216808612046FFF758
:103A7000B8FE10BD7047704710B504460349206872
:103A8000884201D1FFF7D6F810BD0000002C01409C
:103A90007047704770B50446002520684069C0F340
:103AA000C01594F84100212817D1B5B100BF00BF5F
:103AB0002168143151E8001F21F080002168143181
:103AC00041E80002002AF3D100BFA06B10B1A06B47
:103AD000FEF73FFB204601F0C1FF20684069C0F3BC
:103AE000801594F84200222817D1B5B100BF00BF5D
:103AF0002168143151E8001F21F040002168143181
:103B000041E80002002AF3D100BFE06B10B1E06B86
:103B1000FEF71FFB204601F05BFF002070BD7047E1
:103B200001460022002391F8412091F8423042EAF8
:103B3000030070472DE9F84F0446206805682068A7
:103B4000C668206847694FF00009CA4605F00F09AA
:103B5000B9F1000F0AD105F0200038B106F02000BD
:103B600020B1204601F08DFFBDE8F88FB9F1000FBC
:103B70007BD007F0010018B906F49070002874D0CB
:103B800005F0010030B106F4807018B1606C40F0AF
:103B90000100606405F0040030B107F0010018B1C5
:103BA000606C40F00200606405F0020030B107F084
:103BB000010018B1606C40F00400606405F008007A
:103BC00048B106F0200010B907F0010018B1606C90
:103BD00040F008006064606C002845D005F02000CB
:103BE00028B106F0200010B1204601F04AFF2068FD
:103BF0004069C0F3801A606C00F0080010B9BAF197
:103C0000000F2CD0204601F0E3FE2068406900F050
:103C1000400000B300BF00BF2168143151E8001F0D
:103C200021F040002168143141E80002002AF3D15C
:103C300000BFE06B50B17748E16B4863E06BFEF783
:103C4000B3FA88B1E06B416B88470DE02046FFF77F
:103C500066FF09E009E02046FFF761FF04E0204627
:103C6000FFF75DFF002060647EE7206B012877D1BD
:103C700005F01000002873D006F010000028FAD0DC
:103C800000BF002000902068006800902068406815
:103C9000009000BF00BF2068406900F0400000288D
:103CA0005FD0E06B006840681FFA80F8B8F1000F41
:103CB00055D0A08D404552DDA4F82E80E06B806980
:103CC000202843D000BF00BF21680C3151E8001FFD
:103CD00021F4807021680C3141E80002002AF3D100
:103CE00000BF00BF00BF2168143151E8001F21F060
:103CF00001002168143141E80002002AF3D100BF1D
:103D000000BF00BF2168143151E8001F21F04000BE
:103D10002168143141E80002002AF3D100BF2020BD
:103D200084F842000020206300BF00BF21680C31EE
:103D300051E8001F21F0100021680C3141E8000219
:103D4000002AF3D100BFE06BFEF703FA02206063A4
:103D5000A08DE28D801A81B22046FFF79AFE03E71C
:103D600042E0A08DE18D401A1FFA80F8E08DD0B3BB
:103D7000B8F1000F37D000BF00BF21680C3151E807
:103D8000001F21F4907021680C3141E80002002AE4
:103D9000F3D100BF00BF00BF2168143151E8001FFC
:103DA00021F001002168143141E80002002AF3D11A
:103DB00000BF202084F842000020206300BF00BF25
:103DC00021680C3151E8001F21F0100021680C31EE
:103DD00041E80002002AF3D100BF0220606341469F
:103DE0002046FFF756FEBFE605F0800030B106F032
:103DF000800018B1204601F0C5FFB5E605F040008F
:103E000030B106F0400018B1204601F017FEABE6D5
:103E100000BFA9E69558000810B504460CB901206A
:103E200010BDA06900B100E000BF94F8410028B9BE
:103E3000002084F84000204600F02AF8242084F86E
:103E400041002068C06820F400502168C860204606
:103E500001F096FE2068006920F490402168086116
:103E60002068406920F02A00216848612068C06805
:103E700040F400502168C86000206064202084F86D
:103E8000410084F842000020606300BFC8E70000E2
:103E900010B586B00446002002900390049005906F
:103EA00066492068884237D100BF6548806940F480
:103EB0008040634988610846806900F48040019031
:103EC00000BF00BF00BF0846806940F00400886161
:103ED0000846806900F00400019000BF00BF48154B
:103EE0000290022003900320059002A95548FEF796
:103EF000EDFC4FF48060029000200390049002A932
:103F00005048FEF7E3FC002205212520FEF742FF82
:103F10002520FEF72FFF8EE04B49206888424FD1C5
:103F200000BF4748C06940F400304549C8610846B1
:103F3000C06900F40030019000BF00BF00BF084618
:103F4000806940F0040088610846806900F0040040
:103F5000019000BF00BF04200290022003900320C4
:103F6000059002A93748FEF7B1FC08200290002016
:103F70000390049002A93348FEF7A8FC3348344963
:103F80000860002048600021314881608021C160C4
:103F90000021016141618161C161FEF7A5FB08B1AA
:103FA000FCF7FDFE00BF2A48E063446200BF002228
:103FB00005212620FEF7EEFE2620FEF7DBFE3AE086
:103FC00024492068884236D100BF1D48C06940F4AA
:103FD00080201B49C8610846C06900F48020019018
:103FE00000BF00BF00BF0846806940F0080088613C
:103FF0000846806900F00800019000BF00BF081566
:104000000290022003900320059002A91248FEF7B7
:104010005DFC4FF40060029000200390049002A920
:104020000D48FEF753FC002205212720FEF7B2FEC3
:104030002720FEF79FFE06B010BD000000380140AB
:104040000010024000080140004400406C000240A3
:104050002816002000480040000C014070B50446BE
:104060000D46164694F8420020280BD105B10EB932
:10407000012070BD0020206332462946204601F011
:10408000FDFDF6E70220F4E770B504460D4616463E
:1040900094F8420020280BD105B10EB9012070BD63
:1040A0000020206332462946204601F04BFEF6E709
:1040B0000220F4E710B504469048844244D1904869
:1040C0000078FF280FDB00208D4908704FF48071C5
:1040D0008C48FCF7BEF84FF6FF730A228AA1874886
:1040E00000F031F92BE08B480178854802780078A0
:1040F000401C834B18708348815418460078401E3A
:104100008049085C0A281AD118460078801E085C8D
:104110000D2814D14FF6FF7379480278774800F0E4
:1041200012F900BF7548FFF7FBFC2128FAD00020E8
:10413000734908704FF480717248FCF78AF80122C5
:1041400074496E48FFF7A0FF734884427ED17348DC
:10415000007838B972480078AA2837D101206F4911
:10416000087033E06D48007801280AD16C48007867
:10417000AE282BD1022069490870002069490870D7
:1041800024E066480078022812D165480078664924
:10419000644A1278885463480078401C614908706A
:1041A000084600780D2811DB03205C4908700DE0FB
:1041B0005A480078032809D159480078AC2805D11D
:1041C0000020564908700120584908705648C078A8
:1041D00000065549897840EA01405349497840EA48
:1041E0000120514909780843514908604E48007B35
:1041F000BF2831D101204F4908704D48006801287F
:1042000002D04B48006880B94748C079000646494B
:10421000897940EA01404449497940EA012042490C
:10422000097908434449086052E04148006802287F
:104230004ED13D48C07900063B49897940EA0140AA
:104240003949497940EA0120374900E055E00979C8
:1042500008433A4908603BE03348007BCF2830D11F
:1042600001203449087032480068012802D03048E3
:10427000006888B92C48C07900062B49897940EA42
:1042800001402949497940EA012027490979084331
:104290004042294908601BE025480068022817D1E0
:1042A0002148C07900062049897940EA01401E4929
:1042B000497940EA01201C49097908431F490860EF
:1042C00006E01948007BAF2802D100201949087088
:1042D0001548C07A00061449897A40EA014012491B
:1042E000497A40EA01201049097A084314490860D4
:1042F00001220B490848FFF7C7FE10BD50150020EA
:10430000610A002040130020CAFDBEDDD2E7B3F6EB
:1043100000000000600A0020E0150020800A002054
:10432000640A0020810A002040150020650A002050
:10433000680A0020630A00206C0A0020780A002026
:10434000700A002070472DE9F84F04460E461746C4
:1043500099464FF0000A94F8410020284AD106B14E
:1043600017B90120BDE8F88F00206064212084F88F
:104370004100FEF759FC8246A784E784A068B0F5A7
:10438000805F04D1206910B90025B04602E03546AF
:104390004FF000081BE05346002280212046CDF854
:1043A000009001F01FFD08B10320DBE745B9B8F824
:1043B0000000C0F308002168486008F1020803E02B
:1043C0002878216848606D1CE08C401EE084E08CF9
:1043D0000028E0D15346002240212046CDF800902D
:1043E00001F000FD08B10320BCE7202084F8410063
:1043F0000020B7E70220B5E7704700BFFEE70000E6
:104400002DE9FF475E484078212801DABDE8FF87A3
:104410004FF0000AADE00AEB4A0000EBCA01584831
:10442000C01C405C56498978884200D09DE00AEB68
:104430004A0000EBCA00401C5149C91C085C5128C5
:1044400004D0522829D0532873D14CE00AEB4A00FB
:1044500000EBCA00801C4A49C91C014449480A684B
:10446000026049684160002414E0464931F91400B3
:10447000FCF734F806464FF08E41FBF77FFF054608
:104480004FF08341FBF748FF3D49303141F82400AC
:10449000601CC4B2032CE8DB4BE00AEB4A0000EBE3
:1044A000CA00801C3649C91C014437480A680260AA
:1044B00049684160002413E0334931F91400FCF7E6
:1044C0000DF806464FF08E41FBF758FF05462F4981
:1044D000FBF722FF2A493C3141F82400601CC4B29A
:1044E000032CE9DB25E00AEB4A0000EBCA00801C44
:1044F0002349C91C014426480A6802604968416092
:10450000002413E0224931F91400FBF7E7FF0646C7
:104510004FF08E41FBF732FF05461E49FBF7FCFECC
:104520001749243141F82400601CC4B2032CE9DB94
:1045300000BF00BF1249C86AFCF71DF804460D46CB
:104540000F49886AFCF717F806460F460C49486A77
:10455000FCF711F8804642460B460FA0CDE90067F4
:10456000CDE9024501F046FD00BF0AF1010000F06F
:10457000FF0ABAF1040FFFF64EAF00BF46E7000096
:10458000945900202C0B0020340B00200000FA442A
:104590003C0B002000003443783A256620793A2508
:1045A00066207A3A25660A0D0000000000BF06204A
:1045B0005449086010215448FEF728FB53490880ED
:1045C00008215148FEF722FB5049C8800421504879
:1045D000FEF71CFB4D49888101214E48FEF716FB72
:1045E0004A49488200246CE004EB4400474901EB4F
:1045F0004000408820B1012810D002285FD123E07C
:1046000004EB4400414931F8100030B9012004EBBB
:1046100044013E4A02EB4101488050E004EB440073
:104620003A4931F8100038B9022004EB4401374A06
:1046300002EB4101488006E0002004EB4401334ACC
:1046400002EB410148803AE004EB44002F4931F885
:104650001000012825D1032C13D12F480088C82829
:104660000FDD022004EB4401284A02EB410188805F
:10467000002004EB440102EB4101488026490880F8
:104680001CE0012004EB4401204A02EB4101888038
:10469000002004EB440102EB4101488007F074FC68
:1046A0000CE004EB4400194931F8100030B9032C38
:1046B00004D1194800880A301749088000BF00BF9C
:1046C000641C042C90DB002114480068FBF7B2FF47
:1046D00014D0002112480068FBF7ACFF0ED011493E
:1046E0000F480068FBF7A6FF08D20E490B48006888
:1046F000FBF7A0FF02D20120044988800A2005F0C0
:1047000081FD54E7E8080020001801404C0B002010
:10471000000C014000080140AC0800207408002093
:1047200078080020000020420EB500200090019083
:1047300002902448244908608115234881600021A3
:1047400001730121017581614FF46021C161002075
:104750001D49486004211C480161FCF771FD08B146
:10476000FCF71DFB00200090012001900520029025
:1047700069461548FCF726FC08B1FCF710FB012040
:1047800000900220019069460F48FCF71BFC08B11D
:10479000FCF705FB062000900320019069460A48BB
:1047A000FCF710FC08B1FCF7FAFA0720009004208F
:1047B000019069460448FCF705FC08B1FCF7EFFAE4
:1047C0000EBD000000240140701200200EB5002034
:1047D0000090019002901948194908608115184805
:1047E0008160002101730121017581614FF4602115
:1047F000C161002012494860022111480161FCF7A3
:104800001FFD08B1FCF7CBFA0420009001200190B5
:104810000520029069460A48FCF7D4FB08B1FCF772
:10482000BEFA052000900220019069460448FCF77A
:10483000C9FB08B1FCF7B3FA0EBD0000003C014013
:10484000A012002010B50E480E49086002204860F2
:1048500000210C488160C1604FF4002101614FF4D8
:10486000E00141610021017641768176C1760177D0
:104870004177FDF7C8FA08B1FCF791FA10BD0000C6
:1048800000640040D012002008B500BF0A4840690B
:1048900040F00100084948610846406900F0010005
:1048A000009000BF00BF002205211020FEF772FA21
:1048B0001020FEF75FFA08BD0010024000B5B1B04D
:1048C0001C222A492AA8FBF7ABFC00212AA805F0E4
:1048D000AAFC274908601C2224491C3123A8FBF7A5
:1048E0009FFC002123A805F09EFC224908601C22A1
:1048F0001E4938311CA8FBF793FC00211CA805F0C9
:1049000092FC1D4908601C221849543115A8FBF778
:1049100087FC002115A805F086FC184908601C22B8
:10492000124970310EA8FBF77BFC00210EA805F0A0
:104930007AFC134908601C220C498C3107A8FBF74C
:104940006FFC002107A805F06EFC0E4908601C22D0
:104950000649A8316846FBF763FC0021684605F06C
:1049600062FC0949086031B000BD000060CF00085A
:10497000300A0020340A00203C0A0020440A0020AB
:10498000480A00204C0A0020500A002000B58FB0D1
:104990001C2108A8FBF75DFC1C2101A8FBF759FCB2
:1049A0004FF0204023490860234848600620886073
:1049B00000212048C1600161102141610021816115
:1049C000C161016241624FF4805181620021C16284
:1049D0004FF480410163002141638163022008900C
:1049E0000F20099010200A9000200B9010200C90AE
:1049F00011200D9000200E90042001900F200290B5
:104A000009200390002004901020059011200690AA
:104A10000020079001AA08A90648FEF7A9FE08B1E0
:104A2000FCF7BDF90548C06940F480600349C861DE
:104A30000FB000BDF8120020040100A000000140EA
:104A400000B585B00020019002900390049000BF53
:104A50004D48806940F040004B49886108468069B4
:104A600000F04000009000BF00BF00BF0846806912
:104A700040F0800088610846806900F08000009066
:104A800000BF00BF00BF0846806940F01000886189
:104A90000846806900F01000009000BF00BF00BF12
:104AA0000846806940F0040088610846806900F08B
:104AB0000400009000BF00BF00BF0846806940F4BA
:104AC000807088610846806900F48070009000BFA3
:104AD00000BF00BF0846806940F0080088610846B2
:104AE000806900F00800009000BF00BF00BF0846CA
:104AF000806940F0200088610846806900F020004D
:104B0000009000BF00BF002230212048FEF786F849
:104B10000022C0211E48FEF781F8182001900020D5
:104B200002900120039001A91A48FDF7CFFE4FF42F
:104B3000E060019000200290039001A91648FDF763
:104B4000C5FE0F20019000200290039001A90F489C
:104B5000FDF7BCFE30200190012002900020039060
:104B60000220049001A90948FDF7B0FEC020019081
:104B700001200290002003900220049001A9044823
:104B8000FDF7A4FE05B000BD00100240001001407A
:104B9000000C014000180140001C014010B50B48FA
:104BA0000B4908604FF4E1304860002108488160FB
:104BB000C16001610C21416100218161C161FFF788
:104BC0002BF908B1FCF7EBF810BD000000380140EC
:104BD0005015002010B51148114908604FF4E1301C
:104BE000486000210E488160C16001610C21416173
:104BF00000218161C161FFF70FF908B1FCF7CFF81F
:104C000007480068C06840F0100005490968C8609E
:104C1000212204490248FFF721FA10BD0044004058
:104C2000981500209759002010B50B480B490860D3
:104C30004FF416504860002108488160C16001614E
:104C40000C21416100218161C161FFF7E5F808B1E4
:104C5000FCF7A5F810BD000000480040E01500205A
:104C600000BFFEE70EB500241DE000205F494FF0B5
:104C70007F52CDE90021029004EBC40101EB410118
:104C80005B4A02EB810044F620631A46032100F0E0
:104C9000F5F8584804EBC40101EB4101544A02EB1A
:104CA00081014865641C042CDFDB18E05248006871
:104CB000FBF761FC044622460B4650A001F09AF92E
:104CC00050480068FBF757FC044622460B464EA0AE
:104CD00001F090F94E4881884EA001F08BF94C48C4
:104CE00080880128E2D100204F4908604F480068C1
:104CF00007F04AF900BF00241BE04D4951F8240099
:104D0000FBF7ECFB054604EB440101EBC401494A07
:104D100032F92100FBF7E2FB064604EBC40101EB8C
:104D20004101334A02EB81002A46314605F0AAFAD6
:104D3000641C042CE1DB2E49D1F88001FBF7E9FB70
:104D400004B22B49D1F81401FBF7E3FB05B2284963
:104D5000D1F8A800FBF7DDFB06B22549C86BFBF7CD
:104D6000D8FB07B22B46324639463348009406F04A
:104D700003FF3248007810B931A001F03BF901215E
:104D80003148FDF743FF3149088000203049088051
:104D90003049088008212C48FDF738FF2E4908804B
:104DA0004FF480612D48FDF731FF2D4908804FF405
:104DB00080712A48FDF72AFF2A4908808021274868
:104DC000FDF724FF28490880284801F053FF2849AF
:104DD0000860264801F04EFF264908602348FCF78A
:104DE000ADFC0A2005F00EFA85E70000CDCCCC3DE5
:104DF000B456002000004842740800204C333A2585
:104E0000660D0A00780800204C343A25660D0A0029
:104E10004C0B00206B65795B305D2E666C61673AE8
:104E200025640D0A0000000094080020300A0020CC
:104E3000640B0020CC540020D0120020FC0800207D
:104E400066696E6400000000001001407C080020CC
:104E50007E0800208008002082080020001C0140FD
:104E6000840800208608002088080020A012002066
:104E70008C0800209008002000BFFEE72DE9FE4FBF
:104E800004460D4616461F46DDE90D9ADDF83080D2
:104E9000074860660748A0668DE800073B46324633
:104EA00029462046D4F864C0E047BDE8FE8F0000E4
:104EB00017A400082BA4000888B0A84801F098FEA9
:104EC00040F6B83005F09EF900BF0120A449086003
:104ED000A4480068A4490988884220DAA3480068E9
:104EE000A349098888421ADA0120A24908701C22C5
:104EF000A14901A8FBF794F9002101A805F093F955
:104F00009E4908609E48006807F03EF800209C49D2
:104F1000086007F039F800209A4908707EE09A4846
:104F2000008818B999480088002837D0012098498E
:104F3000087098490870984801F05AFE4FF4FA70CA
:104F400005F060F9002001F053FEC82005F05AF981
:104F5000924806F03DFEC82005F054F990480078CC
:104F6000012813D100208E4908708E490870012055
:104F70008D49087000208D4908608D480078401EDA
:104F80008B49087001207F49087047E08548007808
:104F9000002843D00020834908703FE085480088FE
:104FA00010B98548008870B101207A490870002046
:104FB0007C4908704FF4FA6001F01AFE4FF4FA7061
:104FC00005F020F92AE07D480068B0F5FA6F10D3AB
:104FD00000207349087073490870012072490870F5
:104FE0000020724908607549086001206549087011
:104FF00014E06B48007820B17148006801F004FEAD
:105000000CE07048007848B100206E490870624892
:1050100006F0DEFD6C48008805F0F4F85948007889
:10502000002833D06148006800282FD156480088F6
:1050300010B95648008890B3012056490870564868
:1050400001F0D6FD4FF4FA7005F0DCF8002001F015
:10505000CFFDC82005F0D6F8504806F0B9FDC820AD
:1050600005F0D0F84E480078012810D100204C49B6
:1050700008704C49087001204B49087000204B49CA
:1050800008604B480078401E4949087062E0454876
:10509000007800285ED00020424908705AE0FFE7FF
:1050A0004448008810B94448008870B1012039494B
:1050B000087000203B4908704FF4FA6001F098FD39
:1050C0004FF4FA7005F09EF844E02648006826493F
:1050D0000988884221DA25480068254909888842DC
:1050E0001BDA0120234908701C2223491C3101A826
:1050F000FBF796F8002101A805F095F81F49086014
:105100001F48006806F040FF00201D49086006F0B7
:105110003BFF00201B4908701CE0124800682B4927
:105120000988884212DA1E48007801280ED01B48F0
:1051300006F04EFD4FF4FA7005F064F82048006860
:1051400001F056FDC82005F05DF803E01C4800683A
:1051500001F04EFD052005F055F8B6E684EAFFFFA4
:10516000E80800208C080020B808002090080020E3
:10517000BA0800204F0800205CD00008500A002028
:10518000400A0020FA0800207C0800207E08002049
:105190004C080020FD08002030F8FFFF50FBFFFF07
:1051A000F7080020F8080020F90800206C0A002009
:1051B000FE080020800800208208002098080020B7
:1051C00004090020C4080020C0080020B408002002
:1051D00008B508490968C9084FF47A72B1FBF2F1C1
:1051E0004143009100BF00BF00994A1E0092002970
:1051F000F9D108BD900A002000BF022003490860D1
:1052000006F088FB0A2004F0FDFFF6E7E80800201E
:1052100092B0012294499548FEF736FF0122944945
:105220009448FEF731FF04F097FAFBF781FD9248AE
:10523000FCF759FF02219048FCF7A0FA8F4800F0D4
:105240006FFE00208E49087048708EA000F0D2FEDC
:1052500000208E494FF07F524FF4FA73CDE90021C0
:1052600002901A4603218A48FFF708FE89488849B8
:105270004865002085494FF07F524FF4FA73CDE91D
:10528000002102901A4603218348FFF7F7FD814869
:1052900081494865002001F063FD1C227F490BA86D
:1052A000FAF7BEFF00210BA804F0BDFF7C4908609F
:1052B0001C227A491C3104A8FAF7B2FF002104A885
:1052C00004F0B1FF774908607748006806F05CFE9B
:1052D00000BF764801F0CEFC75490880734801F0A4
:1052E000C9FC74490880714801F0C4FC7249088007
:1052F0006E4801F0BFFC714908806C48FCF71EFA4B
:105300006B480088FBF7F3F881466D49FBF736F8E8
:105310000446FBF730F907464FF06632694BFBF75E
:105320006BF80546FBF76AF9674908606148008831
:10533000FBF7DDF881466249FBF720F80446FBF7EE
:105340001AF907464FF066325E4BFBF755F80546F3
:10535000FBF754F95D49086057480088FBF7C7F828
:1053600081465749FBF70AF80446FBF704F907465C
:105370004FF06632534BFBF73FF80546FBF73EF91B
:10538000534908604D480088FBF7B1F881464C4905
:10539000FAF7F4FF0446FBF7EEF807464FF06632E3
:1053A000484BFBF729F80546FBF728F949490860FF
:1053B00045480068FBF7DFF88246474A474B05F04F
:1053C00039F88046464A474BFBF716F8064604F084
:1053D00005FF0446FBF712F9434908603B480068A3
:1053E000FBF7C9F882463C4A3C4B05F023F80646D9
:1053F0003B4A3C4BFBF700F8044604F0EFFE8046C6
:10540000FBF7FCF83949086031480068FBF7B3F84E
:105410008046314A314B05F00DF80646304A314B93
:10542000FAF7EAFF044604F0D9FE8246FBF7E6F8F5
:105430002F49086027480068FBF79DF88046264AF8
:10544000264B04F0F7FF0646254A264BFAF7D4FF11
:10545000044604F0C3FE8246FBF7D0F825490860F5
:105460000A2004F0CFFE34E7600A00205015002027
:10547000640A0020E0150020D0120020945900207A
:105480002E0A00204F4B0D0A00000000CDCCCC3D71
:105490006458002000007A44D058002024D000082E
:1054A000480A00204C0A0020500A002070120020F8
:1054B00052080020540800205608002058080020F8
:1054C00000F07F4566660A405C0800206008002006
:1054D000640800206808002046B6F3FDD478F1BFC8
:1054E000AC1C5A643B8F4E406C08002070080020B2
:1054F000740800207808002010B500BF502080F309
:105500001188BFF34F8FBFF36F8F00BF07F0D4FA3E
:1055100018B14FF080500449086000BF002080F3AC
:10552000118800BF10BD000004ED00E000B595B08B
:1055300028210BA8FAF78DFE142106A8FAF789FE98
:1055400018216846FAF785FE01200B9000040C90A4
:1055500000200D9001200F9002201290C1031391A2
:105560004FF4E01114910BA8FDF7D0FE08B1FBF742
:1055700016FC0F20069002200790002008904FF4A0
:105580008060099000200A90022106A8FDF778FDAE
:1055900008B1FBF704FC02200090800302906846EB
:1055A000FDF7D6FC08B1FBF7FAFB15B000BD70475C
:1055B00010B50248FEF793F910BD00006C160020EC
:1055C00010B50268204B98420ED0204B98420BD069
:1055D000B0F1804F08D01E4B984205D01D4B984229
:1055E00002D01D4B984203D122F070024B681A433F
:1055F000154B98420ED0154B98420BD0B0F1804F0E
:1056000008D0134B984205D0124B984202D0124B4F
:10561000984203D122F44072CB681A4322F08003EF
:105620004C6943EA040202608B68C3620B688362C0
:10563000054B984202D0054B984201D10B69036398
:105640000123436110BD0000002C014000340140E3
:105650000004004000080040000C004088B02C48C6
:1056600001F0C6FA4FF4FA6004F0CCFD00BF04204C
:10567000284908602848006828490988884217DABC
:105680002748006827490988884211DA01202649FD
:1056900008701C22254901A8FAF7C2FD002101A8C3
:1056A00004F0C1FD22490860002006F06DFC00BF37
:1056B0002048008810B92048008860B11F4801F0D8
:1056C00097FA4FF4FA7004F09DFD00201C49087011
:1056D0001C49087017E01C48008810B91B48008856
:1056E00068B14FF4FA6001F083FA4FF4FA7004F0F5
:1056F00089FD0020124908701249087003E04FF438
:10570000487006F065FA0A2004F07CFDAFE700005F
:1057100078ECFFFFE80800208C080020B808002083
:1057200090080020BA0800204F080020E8D00008A8
:10573000500A00207C0800207E08002030F8FFFF7F
:10574000ED080020EE0800208008002082080020DC
:105750000EB500BF3D48007820B13D480068401CB0
:105760003B49086005203B4908603B4800680A3017
:10577000394908603948007858B10846006844F64D
:105780002061B0FBF1F201FB120010B90120344995
:10579000087034480078E8B133480078D0B933480D
:1057A000007820B932480078304908700BE02A4868
:1057B000006830490968401AB0F57A7F03D92C484F
:1057C00000782A490870244800682A4908600020A7
:1057D00024490870204800680321B0FBF1F201FB66
:1057E000120080B92448006824490968884203D11E
:1057F00001202349087002E00020214908701F4859
:1058000000681D490860144800681E4909688842FC
:1058100017D31D48006806F0B7FB1C48006806F067
:10582000B3FB002001F09CFA4FF478401849102295
:105830002023CDE900210290F022A0210A2004F0CB
:1058400015FC0A2004F0DEFC84E70000F8080020C4
:1058500098080020E8080020940800205108002043
:10586000C40800204E0800204F0800204D080020EA
:105870004C0800209C080020480800206C0A0020EA
:10588000FC080020A40800203C0A0020340A002064
:10589000740B002070B505466C6A0020E085E0843A
:1058A0002046FEF73CF970BD70B506460025746AC7
:1058B00020684069C0F3C01594F84100212805D143
:1058C00025B10020E084204600F0C8F82068406937
:1058D000C0F3801594F84200222805D125B100209C
:1058E000E085204600F074F8606C40F010006064C1
:1058F0002046FEF714F970BD70B505466C6A28683D
:10590000006800F02000002842D1E08500BF00BF01
:1059100021680C3151E8001F21F4807021680C319E
:1059200041E80002002AF3D100BF00BF00BF216898
:10593000143151E8001F21F001002168143141E8C1
:105940000002002AF3D100BF00BF00BF216814315C
:1059500051E8001F21F040002168143141E80002A5
:10596000002AF3D100BF202084F84200206B0128D8
:105970000ED100BF00BF21680C3151E8001F21F09B
:10598000100021680C3141E80002002AF3D100BF69
:1059900000206063206B012804D1A18D2046FEF712
:1059A00078F802E02046FEF785FB70BD70B505462D
:1059B0006C6A01206063206B012805D1A08D41082D
:1059C0002046FEF766F802E02046FEF7BBFC70BDFD
:1059D00000BF00BF02680C3252E8002F22F4907121
:1059E00002680C3242E80013002BF3D100BF00BF65
:1059F00000BF0268143252E8002F22F00101026851
:105A0000143242E80013002BF3D100BF016B0129CF
:105A10000ED100BF00BF02680C3252E8002F22F006
:105A2000100102680C3242E80013002BF3D100BFD2
:105A3000202180F8421000210163704710B5044610
:105A40002068C06820F040002168C860202084F8E9
:105A500041002046FEF7D0FC002010BD00BF00BF73
:105A600002680C3252E8002F22F0C00102680C32AA
:105A700042E80013002BF3D100BF202180F8411031
:105A80007047F8B5044694F84200222875D1A06802
:105A9000B0F5805F0CD1206950B90025A66A206856
:105AA0004068C0F308003080A06A801CA06215E046
:105AB000A56A0026A068B0F5805F03D0A06828B969
:105AC000206918B920684068287004E020684068A0
:105AD00000F07F002870A06A401CA062E08D401E8C
